:100000000C94E8000C94FF080C9468090C94B50952
:100010000C9405010C94CA090C9405010C9405017B
:100020000C9405010C9405010C9405010C94050138
:100030000C9405010C94FA050C9405010C9405012F
:100040000C94B2050C9405010C9405010C94050167
:100050000C9405010C9405010C9405010C94050108
:100060000C9405010C94050107634236B79BD8A791
:100070001A39685618AEBAAB558C1D3CB7CC5763CD
:10008000BD6DEDFD753EF6177231BF000000803F7B
:1000900008000000BE922449123EABAAAA2ABECD97
:1000A000CCCC4C3E00000080BEABAAAAAA3E000009
:1000B0000000BF000000803F000000000008417801
:1000C000D3BB4387D1133D190E3CC3BD4282AD2B38
:1000D0003E68EC8276BED98FE1A93E4C80EFFFBE30
:1000E00001C4FF7F3F00000000000000000000FF8F
:1000F000C1D5C1FE0C020000005C222A221D3EC1B7
:10010000C9C93E0808080808492A1C080000050358
:100110000000001C2241000041221C0000000205DA
:100120000208083E080800503000000808080808C7
:10013000006060000020100804023E5149453E0066
:10014000427F400042615149462141454B311814DC
:10015000127F1027454545393C4A4949300171090C
:1001600005033649494936064949291E0000000061
:10017000000000000000000000000000000000007F
:100180000000000000000000000000000000007EF1
:100190001111117E7F494949363E414141227F413B
:1001A00041221C7F494949417F090909013E4149D2
:1001B000497A7F0808087F00417F41002040413F85
:1001C000017F081422417F404040407F020C027FA3
:1001D00011241FBECFEFD8E0DEBFCDBF11E0A0E0FD
:1001E000B1E0E6EDF1E202C005900D92AA35B1074B
:1001F000D9F723E0AAE5B1E001C01D92AB39B207FF
:10020000E1F70E9443010C94E9100C940000F8946B
:1002100040919401509195016091960170919701E0
:1002200084E090E00E94CD104091880150918901B6
:1002300060918A0170918B0180E090E00E94CD1066
:1002400040918401509185016091860170918701F0
:1002500088E090E00E94CD106091740184E190E00C
:100260000E94BB10409198015091990160919A01B0
:1002700070919B018CE090E00E94CD108CE3809304
:10028000040178940895CDB7DEB76C970FB6F89453
:10029000DEBF0FBECDBF3D9880917A008668809307
:1002A0007A0080917C00856C80937C0053985298F2
:1002B0008BB18C608BB980916900826080936900FA
:1002C000809169008460809369008DB383608DBBE9
:1002D000579856988BB1806C8BB92098289A80914A
:1002E00068008560809368008BB385608BBB8091CC
:1002F0006B00816080936B0080916D0080688093BB
:100300006D00109280008091810083608093810055
:1003100080916F00816080936F008EEE95E89093DE
:1003200085008093840085B5836085BD81E08093DE
:100330006E0016BC80E190E00E94B51060939C01B5
:1003400070939D0180939E0190939F0184E090E0C3
:100350000E94B510462F572FBC01498B5A8B6B8BCF
:100360007C8B9A01AC01B9010E94060F882321F011
:10037000198A1A8A1B8A1C8A29893A894B895C89BD
:1003800020939401309395014093960150939701E7
:1003900080E090E00E94B510462F572FBC01498B9A
:1003A0005A8B6B8B7C8B9A01AC01B9010E94060FB2
:1003B000882321F0198A1A8A1B8A1C8A89899A89BA
:1003C000AB89BC898093880190938901A0938A01AD
:1003D000B0938B0188E090E00E94B510462F572F14
:1003E000BC01498B5A8B6B8B7C8B9A01AC01B90198
:1003F0000E94060F882321F0198A1A8A1B8A1C8AF8
:1004000029893A894B895C8920938401309385013D
:10041000409386015093870184E190E00E94AD10E3
:100420008F3F09F480E0809374018CE090E00E949B
:10043000B510462F572FBC01498B5A8B6B8B7C8B89
:100440009A01AC01B9010E94060F882321F0198A94
:100450001A8A1B8A1C8A89899A89AB89BC898093EC
:10046000980190939901A0939A01B0939B01E09118
:100470000501F091060109957894A0900D01B090C6
:100480000E01DE0111966D0180900B0190900C0120
:100490003401BA8EA98E75018401E0910901F091B1
:1004A0000A01FC8FEB8F20910F01309110013E8BE0
:1004B0002D8B4091070150910801588F4F8B8091EF
:1004C000800190918101A0918201B0918301898B7B
:1004D0009A8BAB8BBC8B20E030E0A901BC01CD0135
:1004E0000E94E50C18168CF180917A00806480934C
:1004F0007A0080917A0086FDFCCF809178009091FF
:1005000079009C0150E040E0298B3A8B4B8B5C8B4F
:10051000CA01B9010E94920D20E030E040E751E4A9
:10052000698B7A8B8B8B9C8B69897A898B899C8967
:100530000E94EA0C462F572FBC0140938001509334
:100540008101609382017093830180917701811111
:1005500087C280910201823009F48AC1833009F494
:10056000C3C0813009F068C22091840130918501B7
:100570004091860150918701298B3A8B4B8B5C8B84
:1005800022E030E0A60169897A898B899C890E94E2
:10059000770B61E081E0F701099561E082E491E089
:1005A000F8010995209184013091850140918601DF
:1005B00050918701298B3A8B4B8B5C8B20E030E08C
:1005C000A90169897A898B899C890E94E50C260199
:1005D00018160CF4C4C161E08AE291E0F8010995B3
:1005E00061E081E4F701099561E088E491E0F801B8
:1005F000099569E081E0F701099561E08BE191E0FF
:10060000F80109952091940130919501409196014E
:1006100050919701298B3A8B4B8B5C8B21E030E01A
:10062000A20169897A898B899C890E94770B61E193
:1006300081E0F70109952091940130919501409155
:10064000960150919701298B3A8B4B8B5C8B20E064
:1006500030E0A90169897A898B899C890E94E50C1F
:1006600018160CF4B4C162E087E291E0F801099534
:1006700066E186E4F701099561E088E191E0F8011F
:100680000995209180013091810140918201509122
:100690008301298B3A8B4B8B5C8B30E020E0A201ED
:1006A00069897A898B899C890E94770B60E281E055
:1006B000F701099561E08BE191E0F801099568E2A5
:1006C00085E0F701099561E08BE491E0F801099577
:1006D00061E0C201F801099568E286E4F701099535
:1006E00061E089E491E0B5C061E081E0F70109953E
:1006F00061E081E191E0F801099580916A019091B2
:100700006B014AE0BE01675F7F4F0E94471061E0C6
:10071000F801099561E081E4F701099561E087E15D
:1007200091E0F801099569E081E0F701099561E040
:100730008BE191E0F801099520918C0130918D01B8
:1007400040918E0150918F01298B3A8B4B8B5C8BA2
:1007500021E030E0A60169897A898B899C890E9411
:10076000770B61E181E0F701099520918C013091CF
:100770008D0140918E0150918F01298B3A8B4B8BCB
:100780005C8B20E030E046EC52E469897A898B8901
:100790009C890E94440E26011816B4F080918C01A9
:1007A00090918D01A0918E01B0918F01898B9A8BD0
:1007B000AB8BBC8B20E030E0A901BC01CD010E94D5
:1007C000E50C18160CF44EC062E08AE291E0F801E4
:1007D000099566E186E3F70109958091750161E06D
:1007E000863008F442C08FE291E0F801099560E29A
:1007F00081E0F701099561E08BE191E0F80109954D
:1008000068E285E0F701099561E089E391E0F8018C
:100810000995209188013091890140918A01509178
:100820008B01298B3A8B4B8B5C8B21E030E0A20152
:1008300069897A898B899C890E94770B61E0C20162
:10084000F801099568E286E3F701099561E08FE216
:1008500091E0F8010995ED89FE890995EF89F88DF8
:1008600009952DCE62E0C601B2CF85E391E0BDCF00
:1008700080917501282F30E050E040E0298B3A8BC1
:100880004B8B5C8BCA01B9010E94920D22E030E0D3
:10089000A601698B7A8B8B8B9C8B69897A898B8972
:1008A0009C890E94770B67E086E0F70109958091AB
:1008B0007501811131C062E087E291E0F80109958C
:1008C0006BE088E3F701099561E08DE391E0F801C1
:1008D000099560E281E0F701099561E08BE191E023
:1008E000F801099568E285E0F701099561E089E37F
:1008F00091E0F801099580917401811125C061E0B2
:1009000087E291E0F801099568E288E3F70109952B
:1009100061E08DE391E09DCF80917501811109C067
:1009200080917501882329F062E083E391E0F8016A
:100930000995809175014AE0BE01675F7F4F90E0A5
:100940000E94471062E0BACF809174014AE0BE0174
:10095000675F7F4F90E00E94471061E0D3CF209106
:100960008401309185014091860150918701298B46
:100970003A8B4B8B5C8B20E030E040E85FE3698989
:100980007A898B899C890E94E50C87FF1DC0809124
:10099000840190918501A0918601B0918701898B96
:1009A0009A8BAB8BBC8B20E030E0A901BC01CD0160
:1009B0000E94440E181644F461E083E391E0F801CC
:1009C000099561E0C6010ACE61E0C20107CE20911F
:1009D0009401309195014091960150919701298B96
:1009E0003A8B4B8B5C8B20E030E0A90169897A89D6
:1009F0008B899C890E94440E1816DCF48091940126
:100A000090919501A0919601B0919701898B9A8B55
:100A1000AB8BBC8B20E030E040E85FE3BC01CD0154
:100A20000E94E50C87FF05C062E080E3EB8DFC8D42
:100A3000099562E0C2011ACE61E081E0F7010995F3
:100A400061E081E591E0F8010995809102014AE0B9
:100A5000BE01675F7F4F90E00E94471061E0F9CED2
:100A600080910201813071F18250823008F0F3CE22
:100A7000789480917201909173019C0150E040E064
:100A8000298B3A8B4B8B5C8B2AE0AE01475F5F4F23
:100A900069897A898B899C890E94521061E0F301EF
:100AA000099569E080E0E98DFA8D099580917601DC
:100AB0004AE0BE01675F7F4F90E00E94471061E00F
:100AC000F301C8CEF8942091760130E0AFEFBFEF8C
:100AD0000E94550C698B7A8B8B8B9C8B0E94940D9A
:100AE0001B012C0180917201909173019C0150E0D7
:100AF00040E0298B3A8B4B8B5C8BCA01B9010E9479
:100B0000920D9101A201698B7A8B8B8B9C8B6989E9
:100B10007A898B899C890E94790C9B01AC0160E0E9
:100B200070E080E291E40E94EA0C1B012C01AB0111
:100B3000BC0180E190E00E94CD1069E080E0F50109
:100B4000099528E030E0A601298A3A8A4B8A5C8A16
:100B500069897A898B899C890E94770B61E0C6013B
:100B6000F40178CE1F921FB61F9211242F933F934A
:100B70008F939F93AF93BF93809162019091630194
:100B8000A0916401B09165013091A00126E0230F8E
:100B90002D3750F50296A11DB11D2093A001809321
:100BA000620190936301A0936401B0936501809109
:100BB000660190916701A0916801B0916901019669
:100BC000A11DB11D8093660190936701A0936801F8
:100BD000B0936901BF91AF919F918F913F912F91F8
:100BE0001F901FBE1F90189529E8230F0396A11D83
:100BF000B11DD3CF1F920F920FB60F921124BF9247
:100C0000CF92DF92EF92FF920F931F932F933F9318
:100C10004F935F936F937F938F939F93AF93BF9304
:100C2000EF93FF93CF93DF93CDB7DEB72A97DEBF65
:100C3000CDBF809100019091010101979093010136
:100C400080930001809170019091710180329340F6
:100C500040F48091720190917301892B11F40E94EC
:100C6000070180910401811106C0809175018111F5
:100C700002C00E9407014E99B1C2809103018150C8
:100C80008093030180910301811107C08091770156
:100C9000811103C081E080937701809100019091E0
:100CA0000101892B09F074C2809172019091730146
:100CB0009C0150E040E029833A834B835C83CA0166
:100CC000B9010E94920D20919C0130919D014091AB
:100CD0009E0150919F0169837A838B839C836981F4
:100CE0007A818B819C810E94490E20E030E041E6B0
:100CF00055E469837A838B839C8369817A818B81B4
:100D00009C810E94490E69837A838B839C836981CD
:100D10007A818B819C810E94630D60937501809123
:100D2000780190917901A0917A01B0917B0189833A
:100D30009A83AB83BC8329E638E84FE45BE3BC01CC
:100D4000CD010E94490E20E030E041E656E469837F
:100D50007A838B839C8369817A818B819C810E94B9
:100D6000490E462F572FBC014D835E836F837887D2
:100D7000209178013091790140917A0150917B0165
:100D800029833A834B835C8329E638E84FE45BE3AD
:100D900069817A818B819C810E94490E20E030E03C
:100DA00040E850E469837A838B839C8369817A81EC
:100DB0008B819C810E94490E8B018A879987809143
:100DC0007001909171019C0150E040E029833A83C9
:100DD0004B835C83CA01B9010E94920D20E030E090
:100DE0004AE754E469837A838B839C8369817A819F
:100DF0008B819C810E94EA0C462F572FBC014093A7
:100E000078015093790160937A0170937B0180910E
:100E10007501863008F4E6C1B090750120E030E03D
:100E200048EC52E46D817E818F8198850E94490E45
:100E30006B017C018B2D90E0B0E0A0E089839A8368
:100E4000AB83BC83BC01CD010E94940D9B01AC011E
:100E5000C982DA82EB82FC8269817A818B819C81F2
:100E60000E94EA0C462F572FBC0140938C015093EF
:100E70008D0160938E0170938F0120918C013091D0
:100E80008D0140918E0150918F0129833A834B83CC
:100E90005C8320E030E0A90169817A818B819C81AB
:100EA0000E94440E18160CF068C080918C0190913D
:100EB0008D01A0918E01B0918F0189839A83AB83BC
:100EC000BC8320E030E048EC52E4BC01CD010E943C
:100ED000E50C87FF52C020918C0130918D0140912B
:100EE0008E0150918F01C0907C01D0907D01E090E7
:100EF0007E01F0907F0160E070E080E89FE30E9457
:100F0000EA0CA701960169837A838B839C836981AC
:100F10007A818B819C810E94790C462F572FBC01CE
:100F200040937C0150937D0160937E0170937F011B
:100F3000209198013091990140919A0150919B0123
:100F400029833A834B835C8320917C0130917D011E
:100F500040917E0150917F0169817A818B819C81D2
:100F60000E94EA0C462F572FBC01409388015093F2
:100F7000890160938A0170938B01209184013091E3
:100F80008501409186015091870109831A839A85D2
:100F90009B83A985AC8369817A818B819C810E9426
:100FA000790C462F572FBC01409384015093850143
:100FB00060938601709387012091800130918101B7
:100FC000409182015091830129833A834B835C8352
:100FD00098014A85598569817A818B819C810E941B
:100FE000780C462F572FBC0140938001509381010C
:100FF000609382017093830180917501863008F4BB
:10100000B0C08091800190918101A0918201B09146
:10101000830189839A83AB83BC83209188013091BB
:10102000890140918A0150918B01BC01CD010E9440
:10103000EA0C20E030E048EC52E469837A838B8349
:101040009C8369817A818B819C810E94490E69838E
:101050007A838B839C8369817A818B819C810E94B6
:10106000630D462F572F50936B0140936A012091D7
:1010700098013091990140919A0150919B012983E7
:101080003A834B835C8320E030E040E85FE3698192
:101090007A818B819C810E94790C462F572FBC014D
:1010A000409398015093990160939A0170939B012A
:1010B00080917501C0909001D0909101E0909201D3
:1010C000F0909301282F30E050E040E029833A83EC
:1010D0004B835C83CA01B9010E94940D9B01AC0152
:1010E00060E070E080E89FE30E94EA0CA7019601AF
:1010F00069837A838B839C8369817A818B819C81CC
:101100000E94790C462F572FBC01409390015093B9
:101110009101609392017093930180919801909155
:101120009901A0919A01B0919B0189839A83AB8325
:10113000BC83209190013091910140919201509196
:101140009301BC01CD010E94EA0C69837A838B83F1
:101150009C8369817A818B819C810E94630D60935D
:101160007401809104018150809304018091770182
:10117000811104C0109273011092720110927101DA
:101180001092700184E090E090930101809300013F
:101190008EEE95E890938500809384002A960FB692
:1011A000F894DEBF0FBECDBFDF91CF91FF91EF91DD
:1011B000BF91AF919F918F917F916F915F914F916F
:1011C0003F912F911F910F91FF90EF90DF90CF9063
:1011D000BF900F900FBE0F901F90189588E18093DD
:1011E00003015BCD8D819E81AF81B88580938C0199
:1011F00090938D01A0938E01B0938F01BECE1F926C
:101200000F920FB60F9211242F933F934F935F933A
:101210006F937F938F939F93AF93BF93EF93FF93BE
:10122000CF93DF9300D000D0CDB7DEB780917201AD
:101230009091730101969093730180937201809154
:101240007701882359F08091720190917301019682
:1012500029F4809176018F5F8093760180919401CB
:1012600090919501A0919601B091970189839A83FD
:10127000AB83BC8320919C0130919D0140919E01E4
:1012800050919F01BC01CD010E94790C462F572F30
:10129000BC01409394015093950160939601709323
:1012A00097010F900F900F900F90DF91CF91FF91CA
:1012B000EF91BF91AF919F918F917F916F915F91CE
:1012C0004F913F912F910F900FBE0F901F90189547
:1012D0002F932FB72F933F934F935F938F939F93AA
:1012E000AF93BF934B991BC02FB7F89480916201C5
:1012F00090916301A0916401B09165012FBF789432
:1013000090936D0180936C01BF91AF919F918F91EC
:101310005F914F913F912F912FBF2F9118952FB72C
:10132000F8948091620190916301A0916401B09161
:1013300065012FBF789490936F0180936E01809127
:101340006E0190916F0120916C0130916D0140917F
:10135000700150917101840F951F821B930B909324
:101360007101809370015B9ACFCF8F938FB78F936A
:1013700018990CC0809102018F5F809302018091C7
:101380000201843018F081E0809302018F918FBFB9
:101390008F9118951F921FB61F9211248F934F990A
:1013A0000CC0809102018150809302018091020162
:1013B000811103C083E0809302018F911F901FBEB3
:1013C0001F9018952C986623A9F02B9A27E030E0FF
:1013D00090E0AC01022E02C0559547950A94E2F7C1
:1013E00040FF0AC02A9A299A29982150310988F782
:1013F0002C9A08952B98EACF2A98F5CF60E00C94A8
:10140000E20980E80E94FE0980E40E94FE09109231
:10141000990310929A03E1EAF1E088EF91E0DF018D
:101420009C011D9221503040E1F70895809399036B
:1014300060939A030895CF93DF93249A259A239A71
:10144000229A219A2D9A2C9A8FE19EE40197F1F726
:1014500000C000002D989FE725EB81E091502040CF
:101460008040E1F700C000002D9A2C9881E20E9494
:10147000FE0983E10E94FE0986E00E94FE0982ECDB
:101480000E94FE0980E20E94FE0989E00E94FE0996
:1014900080E80E94FE0980E40E94FE09C8EFD1E0C6
:1014A00061E080E00E94E2092197D1F788E00E9484
:1014B000FE098CE0DF91CF910C94FE09CF93DF936E
:1014C00080E80E94FE0980E40E94FE09C1EAD1E0A2
:1014D00061E089910E94E20983E0C939D807C1F728
:1014E000DF91CF910895811103C084E20C94FE092D
:1014F00080E2FCCF962F969596959695E82FF0E092
:1015000084E5989FE00DF11D1124EF55FE4F2081D9
:10151000677081E090E001C0880F6A95EAF7442384
:1015200019F0822B8083089580958223FBCFBF9290
:10153000CF92DF92EF92FF920F931F93CF93DF939F
:10154000C62F25E0629F8001112497E0699F7001FA
:1015500011248052990B289F6001299FD00C1124DF
:10156000D0E0D017110609F04FC0809199038F5F2A
:101570009C2F990F990F9C0F890F809399038435A5
:1015800058F080919A03109299038F5F97E0C99F5A
:10159000800D112480939A0380919A03803320F068
:1015A0001092990310929A03DF91CF911F910F919E
:1015B000FF90EF90DF90CF90BF9008958D2F6C2F0C
:1015C0000E94350CF601E80FF11DE651FF4FE49142
:1015D0003B0D2D0FF0E08B2D0E94350C02C0F595D0
:1015E000E7958A95E2F741E0E0FF40E0632F822F24
:1015F0000E947A0AB39430919A0320919903BE1401
:101600001F04E1F6DF5FADCFB12CF5CF1F93CF9371
:10161000DF93162FEC018991811104C0DF91CF91E6
:101620001F910895612F0E94970AF5CFCF93DF9302
:101630009B01FC01DC01A60FB71F90E080E0215068
:101640003109821793071CF0DF91CF9108954191E2
:101650005E91EF01219758834C930196F0CFAF92A2
:10166000BF92CF92DF92EF92FF920F931F93CF938F
:10167000DF937B015A01FB01D0E0C0E02AE030E0BB
:10168000009769F585010C1B1D0B6801AC16BD06A2
:1016900014F4D12CC12CA60160E370E0C7018C0FBB
:1016A0009D1F0E944010AC16BD0614F410E000E02F
:1016B0000C0F1D1FCC0DDD1DCE0DDF1DB801C701A8
:1016C0000E94160B1882C801DF91CF911F910F91D4
:1016D000FF90EF90DF90CF90BF90AF90089521964C
:1016E000B9010E94410C805D8193CB01C9CF2F923B
:1016F0003F924F925F926F927F928F929F92AF92A2
:10170000BF92CF92DF92EF92FF920F931F93CF93EE
:10171000DF9300D000D000D0CDB7DEB71B012C0185
:101720005A01890169833A828B835C8269817A815B
:101730008B819C810E945C0D6B0150E040E0B50103
:10174000C6010E942F0B8D839E830115110509F49C
:1017500073C0ED81FE81EA0DFB1D8EE28083C8011E
:10176000012E000CAA0BBB0B89839A83AB83BC832D
:10177000BC01CD010E94940D9B01AC0160E070E0C2
:1017800080E291E40E94B60E3B014C01C601DD0CE3
:10179000AA0BBB0B89839A83AB83BC83BC01CD01AD
:1017A0000E94940D9B01AC0129823A824B825C829B
:1017B00069817A818B819C810E94780CAD81BE8188
:1017C0001196AA0DBB1DBE83AD839B01AC0169823E
:1017D0007A828B829C8269817A818B819C810E9432
:1017E000490E69837A838B839C8369817A818B819B
:1017F0009C810E945C0D362F272FA8016D817E8170
:10180000832F922F26960FB6F894DEBF0FBECDBF62
:10181000DF91CF911F910F91FF90EF90DF90CF90CC
:10182000BF90AF909F908F907F906F905F904F9000
:101830003F902F900C942F0B26960FB6F894DEBF96
:101840000FBECDBFDF91CF911F910F91FF90EF9011
:10185000DF90CF90BF90AF909F908F907F906F90D0
:101860005F904F903F902F900895991B79E004C0AE
:10187000991F961708F0961B881F7A95C9F78095CF
:10188000089597FB072E16F4009407D077FD09D032
:101890000E94640C07FC05D03EF4909581959F4F03
:1018A0000895709561957F4F0895A29FB001B39FF1
:1018B000C001A39F700D811D1124911DB29F700D59
:1018C000811D1124911D0895AA1BBB1B51E107C066
:1018D000AA1FBB1FA617B70710F0A61BB70B881FC0
:1018E000991F5A95A9F780959095BC01CD0108954F
:1018F0005058BB27AA270E94900C0C940A0E0E94F5
:10190000FC0D38F00E94030E20F039F49F3F19F4CB
:1019100026F40C94F90D0EF4E095E7FB0C94F30D0E
:10192000E92F0E941B0E58F3BA176207730784074A
:10193000950720F079F4A6F50C943D0E0EF4E09591
:101940000B2EBA2FA02D0B01B90190010C01CA0179
:10195000A0011124FF27591B99F0593F50F4503E24
:1019600068F11A16F040A22F232F342F4427585F16
:10197000F3CF469537952795A795F0405395C9F72E
:101980007EF41F16BA0B620B730B840BBAF09150E6
:10199000A1F0FF0FBB1F661F771F881FC2F70EC085
:1019A000BA0F621F731F841F48F487957795679558
:1019B000B795F7959E3F08F0B0CF9395880F08F044
:1019C0009927EE0F9795879508950E94CF0D08F4FB
:1019D00081E008950E94FE0C0C940A0E0E94030EF2
:1019E00058F00E94FC0D40F029F45F3F29F00C9460
:1019F000F30D51110C943E0E0C94F90D0E941B0E28
:101A000068F39923B1F3552391F3951B550BBB272D
:101A1000AA2762177307840738F09F5F5F4F220F72
:101A2000331F441FAA1FA9F335D00E2E3AF0E0E869
:101A300032D091505040E695001CCAF72BD0FE2FB3
:101A400029D0660F771F881FBB1F26173707480747
:101A5000AB07B0E809F0BB0B802DBF01FF279358FF
:101A60005F4F3AF09E3F510578F00C94F30D0C94C3
:101A70003E0E5F3FE4F3983ED4F3869577956795E5
:101A8000B795F7959F5FC9F7880F911D9695879534
:101A900097F90895E1E0660F771F881FBB1F621753
:101AA00073078407BA0720F0621B730B840BBA0B11
:101AB000EE1F88F7E09508950E94630D6894B111B8
:101AC0000C943E0E08950E94230E88F09F5798F0C4
:101AD000B92F9927B751B0F0E1F0660F771F881F33
:101AE000991F1AF0BA95C9F714C0B13091F00E944D
:101AF0003D0EB1E008950C943D0E672F782F882796
:101B0000B85F39F0B93FCCF3869577956795B39573
:101B1000D9F73EF490958095709561957F4F8F4FE2
:101B20009F4F0895E89409C097FB3EF490958095E7
:101B3000709561957F4F8F4F9F4F9923A9F0F92F93
:101B400096E9BB279395F695879577956795B79511
:101B5000F111F8CFFAF4BB0F11F460FF1BC06F5FF7
:101B60007F4F8F4F9F4F16C0882311F096E911C009
:101B7000772321F09EE8872F762F05C0662371F02A
:101B800096E8862F70E060E02AF09A95660F771F3E
:101B9000881FDAF7880F9695879597F90895990F1A
:101BA0000008550FAA0BE0E8FEEF16161706E80727
:101BB000F907C0F012161306E407F50798F0621B48
:101BC000730B840B950B39F40A2661F0232B242B1D
:101BD000252B21F408950A2609F4A140A6958FEF3C
:101BE000811D811D089597F99F6780E870E060E08E
:101BF00008959FEF80EC089500240A9416161706A6
:101C000018060906089500240A94121613061406ED
:101C100005060895092E0394000C11F4882352F050
:101C2000BB0F40F4BF2B11F460FF04C06F5F7F4F08
:101C30008F4F9F4F089557FD9058440F551F59F0EF
:101C40005F3F71F04795880F97FB991F61F09F3FA9
:101C500079F087950895121613061406551FF2CFD2
:101C60004695F1DF08C0161617061806991FF1CF22
:101C700086957105610508940895E894BB27662749
:101C80007727CB0197F908950E94CF0D08F48FEFC5
:101C900008950E945C0E0C940A0E0E94FC0D38F010
:101CA0000E94030E20F0952311F00C94F30D0C9478
:101CB000F90D11240C943E0E0E941B0E70F3959F9B
:101CC000C1F3950F50E0551F629FF001729FBB2733
:101CD000F00DB11D639FAA27F00DB11DAA1F649FCF
:101CE0006627B00DA11D661F829F2227B00DA11D82
:101CF000621F739FB00DA11D621F839FA00D611D08
:101D0000221F749F3327A00D611D231F849F600D28
:101D1000211D822F762F6A2F11249F5750409AF051
:101D2000F1F088234AF0EE0FFF1FBB1F661F771FDD
:101D3000881F91505040A9F79E3F510580F00C94A8
:101D4000F30D0C943E0E5F3FE4F3983ED4F386957A
:101D500077956795B795F795E7959F5FC1F7FE2B48
:101D6000880F911D9695879597F90895FA01EE0FC2
:101D7000FF1F309621053105A1F16115710561F450
:101D80008038BFE39B0749F168949038810561F082
:101D90008038BFEF9B0741F099234AF5FF3FE105EB
:101DA0003105210519F1E8940894E795D901AA2392
:101DB00029F4AB2FBE2FF85FD0F310C0FF5F70F493
:101DC000A695E0F7F73950F019F0FF3A38F49F770D
:101DD0009F930DD00F9007FC9058089546F00C94F7
:101DE000F90D60E070E080E89FE308954FE79F778A
:101DF0005F934F933F932F930E94B60F2F913F9184
:101E00004F915F910E94490E0C94130F0E94CF0DC9
:101E1000880B990B089529F416F00C94F30D0C948B
:101E20003D0E0C94F90D0E94230EA8F39638A0F7EE
:101E300007F80F92E8942BE33AEA48EB5FE70E9439
:101E40005F0E0F920F920F924DB75EB70F920E94E6
:101E5000FE0FE8E6F0E00E94450F4F915F91EF9191
:101E6000FF91E595EE1FFF1F49F0FE57E0684427FC
:101E7000EE0F441FFA95E1F74195550B0E94780F3C
:101E80000F9007FE0C946C0F0895DF93CF931F9370
:101E90000F93FF92EF92DF927B018C01689406C052
:101EA000DA2EEF010E945C0EFE01E894A5912591C7
:101EB000359145915591A6F3EF010E94900CFE01DA
:101EC0009701A801DA9469F7DF90EF90FF900F91E6
:101ED0001F91CF91DF9108959B01AC0160E070E00C
:101EE00080E89FE30C94EA0C0C94F30D0C943210F0
:101EF0000E94230ED8F39923C9F3940F511DA3F325
:101F00009150504094F059F0882332F0660F771FBB
:101F1000881F91505040C1F79E3F51052CF7880F04
:101F2000911D9695879597F908955F3FACF0983E7F
:101F30009CF0BB27869577956795B79508F4B160B7
:101F40009395C1F7BB0F58F711F460FFE8CF6F5FAF
:101F50007F4F8F4F9F4FE3CF0C943E0E16F00C94A3
:101F600032100C94F90D68940C94F30D0E94230E1A
:101F7000A8F39923C1F3AEF3DF93CF931F930F938D
:101F8000FF92C92FDD2788232AF02197660F771F3C
:101F9000881FDAF720E030E040E85FEB9FE3883904
:101FA00020F0803E38F021968F770E94790CE0E98E
:101FB000F0E004C00E94790CEDEBF0E00E94450FC8
:101FC0008B01BE01EC01FB2E6F5771097595771FD0
:101FD000880B990B0E94940D28E132E741E35FE3FF
:101FE0000E945C0EAF2D9801AE01FF900F911F91E2
:101FF000CF91DF910E94900C0C940A0EFA01DC0143
:10200000AA0FBB1F9B01AC01BF5728F4222733271F
:102010004427507820C0B75190F4AB2F0024469548
:1020200037952795011CA395D2F3002071F0220F5C
:10203000331F441FB395DAF30ED00C94780C613043
:102040007105A0E88A07B94630F49B01AC01662708
:10205000772788279078309621F020833183428338
:10206000538308959F3F31F0915020F487957795E1
:102070006795B795880F911D9695879597F908955F
:10208000DC0101C06D9341505040E0F70895BB273B
:102090004A3031F4992322F4BDE2909581959F4F07
:1020A0000C948410BB272A3051F4992342F4BDE2EA
:1020B00090958095709561957F4F8F4F9F4F0C94B1
:1020C0006210BB27FA01A62F6217710581059105E1
:1020D000330B30FB66F0AA27660F771F881F991F06
:1020E000AA1FA21710F0A21B63953850A9F7A05D94
:1020F000AA3308F0A95DA19336F7B111B19310820C
:10210000CA010C949D10BB27FB015527AA27880FF5
:10211000991FAA1FA41710F0A41B83955051B9F75B
:10212000A05DAA3308F0A95DA193009779F7B111DA
:10213000B1931192CB010C949D10DC01FC01672F2F
:1021400071917723E1F7329704C07C916D9370838E
:102150006291AE17BF07C8F30895F999FECF92BDFB
:1021600081BDF89A992780B50895A6E1B0E044E0D2
:1021700050E00C94DB10262FF999FECF92BD81BD63
:10218000F89A019700B4021639F01FBA20BD0FB6B5
:10219000F894FA9AF99A0FBE08950396272F0E9491
:1021A000BC100E94BB10252F0E94BC10242F0C9441
:1021B000BC10DC01CB01FC01F999FECF06C0F2BDD9
:1021C000E1BDF89A319600B40D9241505040B8F7F5
:0621D0000895F894FFCF12
:1021D600040003183C1B0A010A970A060B160A5E3E
:1021E6000A242526202000204B4D002D2D2D2D2D97
:1021F6002D2D2D2D2D2D2D2D2D002D2D2E2D004C43
:102206002F313030004C2F4800232020004B4D2F1B
:102216004800252624202000204C002122202020B2
:0A222600004C2F2F4D202D2000004A
:00000001FF
