:100000000C940B010C94700D0C94120E0C945C0E5D
:100010000C9428010C941E0F0C9428010C942801B8
:100020000C9428010C9428010C9428010C942801AC
:100030000C9428010C94E3090C9428010C942801D9
:100040000C9453120C9428010C9428010C94280150
:100050000C9428010C9428010C9428010C9428017C
:100060000C9428010C94280107634236B79BD8A74B
:100070001A39685618AEBAAB558C1D3CB7CC5763CD
:10008000BD6DEDFD753EF6177231BF000000803F7B
:1000900008000000BE922449123EABAAAA2ABECD97
:1000A000CCCC4C3E00000080BEABAAAAAA3E000009
:1000B0000000BF000000803F000000000008417801
:1000C000D3BB4387D1133D190E3CC3BD4282AD2B38
:1000D0003E68EC8276BED98FE1A93E4C80EFFFBE30
:1000E00001C4FF7F3F00000000000000000000FF8F
:1000F000C1D5C1FE0C020000005C222A221D3EC1B7
:10010000C9C93E0808080808492A1C080000050358
:100110000000001C2241000041221C0000000205DA
:100120000208083E080800503000000808080808C7
:10013000006060000020100804023E5149453E0066
:10014000427F400042615149462141454B311814DC
:10015000127F1027454545393C4A4949300171090C
:1001600005033649494936064949291E0000000061
:10017000000000000000000000000000000000007F
:100180000000000000000000000000000000007EF1
:100190001111117E7F494949363E414141227F413B
:1001A00041221C7F494949417F090909013E4149D2
:1001B000497A7F0808087F00417F41002040413F85
:1001C000017F081422417F404040407F020C027FA3
:1001D0007F0408107F3E4141413E7F090909063EE8
:1001E0004151215E7F09192946464949493101019A
:1001F0007F01013F4040403F1F2040201F3F4038CB
:10020000403F6314081463070870080761514945AB
:1002100043000000000011241FBECFEFD8E0DEBF76
:10022000CDBF11E0A0E0B1E0E2EAFEE202C005903D
:100230000D92A438B107D9F723E0A4E8B1E001C0DA
:100240001D92AA3DB207E1F70E94CA020C944F1713
:100250000C940000CF93DF9300D000D0CDB7DEB771
:10026000F89488E190E00E941B176093CB01709393
:10027000CC018093CD019093CE0184E290E00E9466
:100280001B176093C7017093C8018093C9019093B5
:10029000CA0184E090E00E941B17462F572FBC0133
:1002A00049835A836B837C839A01AC01B9010E9414
:1002B0006C15882321F019821A821B821C82898185
:1002C0009A81AB81BC818093BF019093C001A093C0
:1002D000C101B093C20180E090E00E941B17462F3D
:1002E000572FBC0149835A836B837C839A01AC01ED
:1002F000B9010E946C15882321F019821A821B8291
:100300001C8289819A81AB81BC818093AB019093DF
:10031000AC01A093AD01B093AE0188E090E00E94E3
:100320001B17462F572FBC0149835A836B837C834D
:100330009A01AC01B9010E946C15882321F0198241
:100340001A821B821C8289819A81AB81BC81809335
:10035000A7019093A801A093A901B093AA018CE0F2
:1003600090E00E941B17462F572FBC0149835A83E8
:100370006B837C839A01AC01B9010E946C158823C0
:1003800021F019821A821B821C8289819A81AB8199
:10039000BC818093970190939801A0939901B093A9
:1003A0009A0180E190E00E941B17462F572FBC0155
:1003B00049835A836B837C839A01AC01B9010E9403
:1003C0006C15882321F019821A821B821C82898174
:1003D0009A81AB81BC8180939B0190939C01A093F7
:1003E0009D01B0939E0188E290E00E9413178F3F19
:1003F00009F480E080938E0184E190E00E941B1755
:10040000462F572FBC0149835A836B837C839A0103
:10041000AC01B9010E946C15882321F019821A825F
:100420001B821C8289819A81AB81BC818093C3012C
:100430009093C401A093C501B093C6018CE190E0F4
:100440000E941B17462F572FBC0149835A836B8389
:100450007C839A01AC01B9010E946C15882321F0BC
:1004600019821A821B821C8289819A81AB81BC818C
:100470008093B7019093B801A093B901B093BA01EA
:1004800080E290E00E941B17462F572FBC01498342
:100490005A836B837C839A01AC01B9010E946C156D
:1004A000882321F019821A821B821C8289819A81F9
:1004B000AB81BC8180939F019093A001A093A10187
:1004C000B093A20178940F900F900F900F90DF914E
:1004D000CF910895F8944091BF015091C00160916F
:1004E000C1017091C20184E090E00E9433174091F5
:1004F000AB015091AC016091AD017091AE0180E013
:1005000090E00E9433174091A7015091A80160919B
:10051000A9017091AA0188E090E00E9433174091F0
:100520009701509198016091990170919A018CE026
:1005300090E00E94331760918E0188E290E00E9463
:1005400021174091C3015091C4016091C501709180
:10055000C60184E190E00E9433174091B7015091A9
:10056000B8016091B9017091BA018CE190E00E94EC
:10057000331740919F015091A0016091A1017091AA
:10058000A20180E290E00E9433178CE38093040183
:1005900078940895CDB7DEB7A7970FB6F894DEBF6D
:1005A0000FBECDBF3D9880917A00866880937A0017
:1005B00080917C00806C80937C0080917C008560C1
:1005C00080937C008AB1837F8AB98BB18C608BB9B0
:1005D00080916900826080936900809169008460E5
:1005E000809369008DB383608DBB8AB18F738AB9A4
:1005F0008BB1806C8BB92098289A809168008560B7
:10060000809368008BB385608BBB80916B008160A9
:1006100080936B0080916D00806880936D001092D4
:1006200080008091810083608093810080916F00C1
:10063000816080936F008EEE95E8909385008093A3
:10064000840085B5836085BD81E080936E0016BC13
:100650000E942A01E0910901F0910A01099578941C
:10066000B12C2090110130901201C0900F01D09058
:1006700010013C8E2B8EDE8ACD8AD88ECF8A3E8E9C
:100680002D8E7101860120910D0130910E013A8F5E
:10069000298F3DA32CA33FA32EA34091130150917A
:1006A000140159A348A380910B0190910C019BA3C5
:1006B0008AA32091A3013091A4014091A5015091FA
:1006C000A601298B3A8B4B8B5C8B20E030E0A90193
:1006D00069897A898B899C890E944B1318160CF4BE
:1006E00056C080917A00806480937A0080917A006D
:1006F00086FDFCCF8091780090917900892B09F4D8
:10070000A8C080919B0190919C01A0919D01B09106
:100710009E01898B9A8BAB8BBC8B20E030E0A901CA
:10072000BC01CD010E94AA1440E050E0BA011816A5
:1007300034F5809178009091790040909B01509021
:100740009C0160909D0170909E019C0150E040E0F2
:10075000298B3A8B4B8B5C8BCA01B9010E94F81331
:10076000A3019201698B7A8B8B8B9C8B69897A8927
:100770008B899C890E945013462F572FBC014093B0
:10078000A3015093A4016093A5017093A60189B1C0
:1007900080748B2909F076C08FE48BB9B0909201F8
:1007A00091E0B9127AC080910201823069F52091FE
:1007B0009B0130919C0140919D0150919E01298B9C
:1007C0003A8B4B8B5C8B20E030E040E05FE3698943
:1007D0007A898B899C890E94DF12462F572FBC0192
:1007E00040939B0150939C0160939D0170939E01E7
:1007F00040919B0150919C0160919D0170919E01DF
:1008000080E190E00E94331780919201811195C49C
:1008100080910201833009F41BC208F041C081308D
:1008200009F48BC3823009F40FC361E081E0F70162
:10083000099561E083E691E0F80109958091020154
:100840004AE0BE01675F7F4F90E00E94AD1661E015
:10085000E1C18091970190919801A0919901B09187
:100860009A01898B9A8BAB8BBC8B2091A70130911D
:10087000A8014091A9015091AA01BC01CD010E949B
:10088000DE127ACF4E9BC0CFBB2009F4BDCF8BB117
:1008900090E489278BB9B12CB7CFBB24B394B4CFE4
:1008A000843009F439C1853009F0BFCF8091A701A8
:1008B0009091A801A091A901B091AA01898B9A8B6E
:1008C000AB8BBC8B22E030E0DE0111964D01AD0117
:1008D00069897A898B899C890E94741161E081E021
:1008E000F701099561E085E191E0F8010995209112
:1008F000A7013091A8014091A9015091AA01298B2B
:100900003A8B4B8B5C8B20E030E0A90169897A89B6
:100910008B899C890E944B13782CA92C18160CF4F7
:100920008CC061E08AE191E0F801099561E081E421
:10093000F701099561E08FE191E0F801099569E01F
:1009400081E0F701099561E082E291E0F801099503
:100950002091BB013091BC014091BD015091BE017D
:10096000298B3A8B4B8B5C8B21E030E0472D5A2D45
:1009700069897A898B899C890E94741161E181E07F
:10098000F70109952091BB013091BC014091BD0157
:100990005091BE01298B3A8B4B8B5C8B20E030E071
:1009A000A90169897A898B899C890E944B13181641
:1009B0000CF47CC062E08EE291E0F801099566E1FA
:1009C00087E3F701099561E081E391E0F80109957A
:1009D0002091A3013091A4014091A5015091A6015D
:1009E000298B3A8B4B8B5C8B30E020E0472D5A2DC6
:1009F00069897A898B899C890E94741160E281E0FF
:100A0000F701099561E082E291E0F801099568E259
:100A100085E0F701099561E087E391E0F801099528
:100A200061E0872D9A2DF801099568E286E4F701C7
:100A3000099561E080E291E0EDC02091A70130913D
:100A4000A8014091A9015091AA01298B3A8B4B8BA7
:100A50005C8B20E030E040E85FE369897A898B892C
:100A60009C890E944B1387FF1DC08091A701909124
:100A7000A801A091A901B091AA01898B9A8BAB8B97
:100A8000BC8B20E030E0A901BC01CD010E94AA147A
:100A9000181644F461E089E591E0F801099561E0F8
:100AA000C40142CF61E0872D9A2D3ECF2091BB013A
:100AB0003091BC014091BD015091BE01298B3A8B10
:100AC0004B8B5C8B20E030E0A90169897A898B89A6
:100AD0009C890E94AA141816DCF48091BB019091A5
:100AE000BC01A091BD01B091BE01898B9A8BAB8BEB
:100AF000BC8B20E030E040E85FE3BC01CD010E9408
:100B00004B1387FF05C062E080E3ECA1FDA10995CE
:100B100062E0872D9A2D51CF80918F01282F30E0F0
:100B200050E040E0298B3A8B4B8B5C8BCA01B901BA
:100B30000E94F81322E030E0AE014F5F5F4F4A01A0
:100B4000698B7A8B8B8B9C8B69897A898B899C8941
:100B50000E94741167E086E0F701099580918F018A
:100B6000A92C81115AC062E08EE291E0F80109954A
:100B70006BE088E3F701099561E08DE391E0F8010E
:100B8000099560E281E0F701099561E082E291E078
:100B9000F801099568E285E0F701099561E089E3CC
:100BA00091E0F80109952091B3013091B401409191
:100BB000B5015091B601298B3A8B4B8B5C8B21E0B0
:100BC00030E0482D5A2D69897A898B899C890E9449
:100BD00074118091B3019091B401A091B501B091CD
:100BE000B601898B9A8BAB8BBC8B20E030E0A901DE
:100BF000BC01CD010E944B1361E0181634F18AE16B
:100C000091E0F801099568E288E3F701099561E050
:100C100082E491E0F801099548C380918F01811128
:100C200009C080918F01882329F062E089E591E075
:100C3000F801099580918F014AE0BE01675F7F4FFF
:100C400090E00E94AD1662E091CF882D9A2DD9CF09
:100C500061E081E0F701099561E086E491E0F80147
:100C60000995809184019091850161E08536910517
:100C700008F4CCC080E2E98DFA8D09958091840159
:100C8000909185014AE0BE01675F7F4F0E94AD16DB
:100C900061E0F801099561E081E4F701099561E0FF
:100CA00081E591E0F801099569E081E0F701099596
:100CB00061E082E291E0F80109952091AF01309165
:100CC000B0014091B1015091B201298B3A8B4B8B0D
:100CD0005C8B21E030E0AE014F5F5F4F4A016989D4
:100CE0007A898B899C890E94741161E181E0F70106
:100CF00009952091AF013091B0014091B10150911F
:100D0000B201298B3A8B4B8B5C8B20E030E046ECB8
:100D100052E469897A898B899C890E94AA14782C6B
:100D2000A92C1816B4F08091AF019091B001A09158
:100D3000B101B091B201898B9A8BAB8BBC8B20E057
:100D400030E0A901BC01CD010E944B1318160CF430
:100D500072C062E08AE191E0F801099566E186E3FC
:100D6000F701099580918F0161E0863008F466C033
:100D700085E591E0F801099560E281E0F7010995C8
:100D800061E082E291E0F801099568E285E0F7010F
:100D9000099561E08FE591E0F80109952091AB019B
:100DA0003091AC014091AD015091AE01298B3A8B4D
:100DB0004B8B5C8B21E030E0472D5A2D69897A8975
:100DC0008B899C890E9474118091AB019091AC0138
:100DD000A091AD01B091AE01898B9A8BAB8BBC8B8E
:100DE00020E030E0A901BC01CD010E944B1361E07D
:100DF00018163CF18AE191E0F801099568E286E372
:100E0000F701099561E085E591E004CF8BE491E07D
:100E1000F801099580918401909185014AE0BE0115
:100E2000675F7F4F0E94AD1661E0F801099561E0B0
:100E30008EE491E02ECF62E0C4018ECF8BE591E08D
:100E400099CF872D9A2DD8CF80918F01282F30E010
:100E500050E040E0298B3A8B4B8B5C8BCA01B90187
:100E60000E94F81322E030E0AE014F5F5F4F698BC4
:100E70007A8B8B8B9C8B69897A898B899C890E9460
:100E8000741167E086E0F701099580918F01811167
:100E900031C062E08EE291E0F80109956BE088E3F1
:100EA000F701099561E08DE391E0F801099560E2B1
:100EB00081E0F701099561E082E291E0F80109958E
:100EC00068E285E0F701099561E08FE591E0F801BE
:100ED000099580918E01811125C061E08EE291E03B
:100EE000F801099568E288E3F701099561E08DE36F
:100EF00091E090CE80918F01811109C080918F0186
:100F0000882329F062E089E591E0F8010995809154
:100F10008F014AE0BE01675F7F4F90E00E94AD16EF
:100F200062E0BACF80918E014AE0BE01675F7F4FD9
:100F300090E00E94AD1661E0D3CF2091A7013091DF
:100F4000A8014091A9015091AA01298B3A8B4B8BA2
:100F50005C8B22E030E0AE014F5F5F4F4A01698950
:100F60007A898B899C890E94741161E081E0F70184
:100F7000099561E085E191E0F80109952091A701CB
:100F80003091A8014091A9015091AA01298B3A8B77
:100F90004B8B5C8B20E030E0A90169897A898B89D1
:100FA0009C890E944B13782CA92C18160CF456C05F
:100FB00061E08AE191E0F801099561E081E4F701DF
:100FC000099561E08FE191E0F801099569E081E020
:100FD000F701099561E082E291E0F801099520911D
:100FE000BF013091C0014091C1015091C201298BD4
:100FF0003A8B4B8B5C8B21E030E0472D5A2D698971
:101000007A898B899C890E94741161E181E0F701E2
:1010100009952091BF013091C0014091C1015091CB
:10102000C201298B3A8B4B8B5C8B20E030E0A9010D
:1010300069897A898B899C890E944B1318160CF454
:1010400046C062E08EE291E0F801099566E186E42F
:10105000F701099561E082E591E0B8CC2091A70104
:101060003091A8014091A9015091AA01298B3A8B96
:101070004B8B5C8B20E030E040E85FE369897A8944
:101080008B899C890E944B1387FF1DC08091A7010B
:101090009091A801A091A901B091AA01898B9A8B86
:1010A000AB8BBC8B20E030E0A901BC01CD010E94DC
:1010B000AA14181644F461E089E591E0F801099555
:1010C00061E0C40178CF61E0872D9A2D74CF209123
:1010D000BF013091C0014091C1015091C201298BE3
:1010E0003A8B4B8B5C8B20E030E0A90169897A89CF
:1010F0008B899C890E94AA141816DCF48091BF0188
:101100009091C001A091C101B091C201898B9A8BCD
:10111000AB8BBC8B20E030E040E85FE3BC01CD014D
:101120000E944B1387FF05C062E080E3EEA1FFA1A0
:10113000099562E0872D9A2D87CF80910201823038
:1011400009F4BAC0833009F401C1813009F0ADC09F
:10115000F8942091910130E0AFEFBFEF0E94BB12F5
:10116000698B7A8B8B8B9C8B0E94FA13762E872E41
:10117000982EA92E80918C0190918D019C0150E0B8
:1011800040E0298B3A8B4B8B5C8BCA01B9010E94E2
:10119000F813272D382D492D5A2D698B7A8B8B8B7F
:1011A0009C8B69897A898B899C890E94DF129B01BB
:1011B000AC0160E070E080E291E40E9450136F8F18
:1011C000472E582E692E8091050190910601A0911D
:1011D0000701B0910801898B9A8BAB8BBC8B20E007
:1011E00030E04AE754E4BC01CD010E94501320E0F6
:1011F00030E040E752E4698B7A8B8B8B9C8B69895A
:101200007A898B899C890E945013762E872E982E7E
:10121000A92E4F8D542D652D762D88E190E00E94EA
:101220003317472D582D692D7A2D84E290E00E94C6
:10123000331761E08BE691E0EF89F88D099569E05D
:1012400080E0ED8DFE8D099528E030E0AE014F5F26
:101250005F4FFF8DF98B4A8A5B8A6C8A69897A892C
:101260008B899C890E94741161E0CE010196EF89FF
:10127000F88D099562E180E0ED8DFE8D099528E0FD
:1012800030E0AE014F5F5F4F798A8A8A9B8AAC8AD1
:1012900069897A898B899C890E94741161E0CE01E9
:1012A0000196EF89F88D09957894E8A1F9A109953F
:1012B000EAA1FBA10995FDC9209105013091060124
:1012C0004091070150910801298B3A8B4B8B5C8B25
:1012D00021E030E0AE014F5F5F4F69897A898B89E9
:1012E0009C890E94741161E080E0F101099561E040
:1012F00080E791E0F601099561E0CE010196F601E3
:10130000099520919B0130919C0140919D01509144
:101310009E01298B3A8B4B8B5C8B21E030E0AE0138
:101320004F5F5F4F69897A898B899C890E9474110C
:1013300069E080E0F101099561E085E791E0F6015F
:10134000099561E0CE010196F60165CC789461E0E3
:1013500080E0EB8DFC8D099561E08AE791E0ED89F5
:10136000FE89099580918C0190918D019C0150E03E
:1013700040E0298B3A8B4B8B5C8B2AE0AE01475FB8
:101380005F4F69897A898B899C890E94B81661E0D0
:10139000ED89FE89099569E080E0EB8DFC8D09956A
:1013A00061E08FE791E0ED89FE89099580919101D7
:1013B0004AE0BE01675F7F4F90E00E94AD1661E09A
:1013C000ED89FE8928CC1F920F920FB60F9211243F
:1013D000BF92CF92DF92EF92FF920F931F932F93C2
:1013E0003F934F935F936F937F938F939F93AF93AD
:1013F000BF93EF93FF93CF93DF93CDB7DEB72D97D6
:10140000DEBFCDBF809100019091010101979093C3
:1014100001018093000180918F01882349F0809120
:101420008F01843628F4809190018F5F8093900122
:1014300080918F018436D8F08091900186958695B1
:10144000282F30E050E040E029833A834B835C83CF
:10145000CA01B9010E94FA13462F572FBC014093CD
:10146000B3015093B4016093B5017093B6018091BC
:101470008A0190918B018032934040F480918C01DD
:1014800090918D01892B11F40E946A0280910401D0
:10149000811106C080918F01811102C00E946A02F1
:1014A0004E990DC380910301815080930301809177
:1014B00092018111CCC280910301853108F0C7C22D
:1014C00080910301882309F4C2C280910201813016
:1014D00009F4BBC2823019F484E080930201809148
:1014E000030181110BC080919201811107C080918D
:1014F0000201833019F481E0809392018091000110
:1015000090910101892B09F07AC280918C01909110
:101510008D019C0150E040E029833A834B835C833A
:10152000CA01B9010E94F8132091CB013091CC017E
:101530004091CD015091CE0169837A838B839C8346
:1015400069817A818B819C810E94AF1420E030E018
:1015500041E655E469837A838B839C8369817A8130
:101560008B819C810E94AF1469837A838B839C83D7
:1015700069817A818B819C810E94C91360938F015C
:101580008091930190919401A0919501B091960161
:1015900089839A83AB83BC832091C7013091C801B2
:1015A0004091C9015091CA012D833E834F835887D2
:1015B000BC01CD010E94AF1420E030EC48EA56E4B3
:1015C00069837A838B839C8369817A818B819C81F7
:1015D0000E94AF14462F572FBC0149875A876B874B
:1015E0007C87209193013091940140919501509115
:1015F00096016D817E818F8198850E94AF1420E0D5
:1016000030E040EC50E469837A838B839C8369816A
:101610007A818B819C810E94AF148B018D879D8381
:1016200080918A0190918B019C0150E040E02983D8
:101630003A834B835C83CA01B9010E94F81320E00E
:1016400030E04AE754E469837A838B839C83698121
:101650007A818B819C810E945013462F572FBC01A9
:101660004093930150939401609395017093960178
:1016700080918F01863008F426C2B0908F0120E05F
:1016800030E048EC52E469857A858B859C850E9420
:10169000AF146B017C018B2D90E0B0E0A0E089835A
:1016A0009A83AB83BC83BC01CD010E94FA139B01DA
:1016B000AC01C982DA82EB82FC8269817A818B81FA
:1016C0009C810E945013462F572FBC014093AF01BD
:1016D0005093B0016093B1017093B2012091AF01BA
:1016E0003091B0014091B1015091B20129833A8308
:1016F0004B835C8320E030E0A90169817A818B8192
:101700009C810E94AA1418160CF068C08091AF0149
:101710009091B001A091B101B091B20189839A83F7
:10172000AB83BC8320E030E048EC52E4BC01CD0147
:101730000E944B1387FF52C02091AF013091B0013E
:101740004091B1015091B201C0909F01D090A00191
:10175000E090A101F090A20160E070E080E89FE3DA
:101760000E945013A701960169837A838B839C831F
:1017700069817A818B819C810E94DF12462F572FCD
:10178000BC0140939F015093A0016093A10170930D
:10179000A2012091C3013091C4014091C501509133
:1017A000C60129833A834B835C8320919F0130914A
:1017B000A0014091A1015091A20169817A818B81A0
:1017C0009C810E945013462F572FBC014093AB01C0
:1017D0005093AC016093AD017093AE012091A701CD
:1017E0003091A8014091A9015091AA0109831A835F
:1017F0009D859B83AD81AC8369817A818B819C813E
:101800000E94DF12462F572FBC014093A70150932F
:10181000A8016093A9017093AA012091A3013091BE
:10182000A4014091A5015091A60129833A834B83DD
:101830005C8398014D855D8169817A818B819C8172
:101840000E94DE12462F572FBC014093A3015093F4
:10185000A4016093A5017093A60180918F0181116D
:1018600002C01092900180918F01863008F4B0C0C0
:101870008091A3019091A401A091A501B091A6012E
:1018800089839A83AB83BC832091AB013091AC01F7
:101890004091AD015091AE01BC01CD010E945013A9
:1018A00020E030E048EC52E469837A838B839C83A8
:1018B00069817A818B819C810E94AF1469837A83CC
:1018C0008B839C8369817A818B819C810E94C9135F
:1018D000462F572F50938501409384012091C301D7
:1018E0003091C4014091C5015091C60129833A83CA
:1018F0004B835C8320E030E040E85FE369817A81DC
:101900008B819C810E94DF12462F572FBC01409390
:10191000C3015093C4016093C5017093C6018091C7
:101920008F01C090B701D090B801E090B901F0905C
:10193000BA01282F30E050E040E029833A834B83FE
:101940005C83CA01B9010E94FA139B01AC0160E0FB
:1019500070E080E89FE30E945013A701960169831D
:101960007A838B839C8369817A818B819C810E949D
:10197000DF12462F572FBC014093B7015093B80197
:101980006093B9017093BA018091C3019091C40131
:10199000A091C501B091C60189839A83AB83BC83B2
:1019A0002091B7013091B8014091B9015091BA012D
:1019B000BC01CD010E94501369837A838B839C8381
:1019C00069817A818B819C810E94C91360938E0109
:1019D00080910401815080930401809192018111D2
:1019E00004C010928D0110928C0110928B01109204
:1019F0008A0184E090E090930101809300018EEED3
:101A000095E890938500809384002D960FB6F89406
:101A1000DEBF0FBECDBFDF91CF91FF91EF91BF91A0
:101A2000AF919F918F917F916F915F914F913F9176
:101A30002F911F910F91FF90EF90DF90CF90BF906B
:101A40000F900FBE0F901F90189585E046CD8091A6
:101A50009201811144CD809103018D3008F03FCD7A
:101A600080910301882309F43ACD809102018230EC
:101A700019F18330A1F0813009F031CD1092A70126
:101A80001092A8011092A9011092AA011092BF0110
:101A90001092C0011092C1011092C20108C01092B0
:101AA000AB011092AC011092AD011092AE010E94F8
:101AB0006A020E942A0113CD10928E01F8CF88E1AC
:101AC000809303011BCD89859A85AB85BC85809366
:101AD000AF019093B001A093B101B093B2017ECE5B
:101AE0001F920F920FB60F9211242F933F934F9393
:101AF0005F936F937F938F939F93AF93BF93EF9376
:101B0000FF93CF93DF93CDB7DEB72897DEBFCDBF6E
:101B100080918C0190918D01019690938D0180931D
:101B20008C0180919201882359F080918C019091D1
:101B30008D01019629F4809191018F5F809391012D
:101B40008091BF019091C001A091C101B091C201EB
:101B500089839A83AB83BC838091CB019091CC0124
:101B6000A091CD01B091CE018D839E83AF83B887C4
:101B70009C01AD0169817A818B819C810E94DF1279
:101B8000462F572FBC014093BF015093C001609373
:101B9000C1017093C2018091AF019091B001A091F9
:101BA000B101B091B20189839A83AB83BC8320E0F9
:101BB00030E0A901BC01CD010E944B131816CCF0F6
:101BC0002091BB013091BC014091BD015091BE01FB
:101BD0006D817E818F8198850E94DF12462F572F5D
:101BE000BC014093BB015093BC016093BD01709355
:101BF000BE0128960FB6F894DEBF0FBECDBFDF91B1
:101C0000CF91FF91EF91BF91AF919F918F917F9174
:101C10006F915F914F913F912F910F900FBE0F9059
:101C20001F9018951F920F920FB60F9211242F93A9
:101C30003F934F935F936F937F938F939F93AF9354
:101C4000BF93EF93FF934B9919C00E943212462F16
:101C5000572F5093870140938601FF91EF91BF91D9
:101C6000AF919F918F917F916F915F914F913F9134
:101C70002F910F900FBE0F901F9018950E94321257
:101C8000462F572F509389014093880180918801F6
:101C900090918901209186013091870140918A01BC
:101CA00050918B01840F951F821B930B90938B0196
:101CB00080938A015B9AD1CF1F920F920FB60F9239
:101CC00011242F933F934F935F936F937F938F9341
:101CD0009F93AF93BF93EF93FF93CF93DF9300D086
:101CE00000D0CDB7DEB7189929C08091920181301C
:101CF000E1F5809102018230C1F54E9936C08091A4
:101D0000050190910601A0910701B0910801898316
:101D10009A83AB83BC8320E030E040E05FE3BC010A
:101D2000CD010E94DE12462F572FBC0140930501C2
:101D30005093060160930701709308010F900F9074
:101D40000F900F90DF91CF91FF91EF91BF91AF91E5
:101D50009F918F917F916F915F914F913F912F91C3
:101D60000F900FBE0F901F901895809192018130B7
:101D700089F480910201833069F44E990BC08091FF
:101D80008C0190918D01845F914090938D0180939F
:101D90008C01D4CF80919201811142C080910201C7
:101DA0008130F1F54E993CC08091A3019091A4013E
:101DB000A091A501B091A60189839A83AB83BC83CE
:101DC00020E030E040E05FE3BC01CD010E94DE1284
:101DD000462F572FBC014093A3015093A401609359
:101DE000A5017093A6018091A3019091A401A091F7
:101DF000A501B091A6018093970190939801A093BB
:101E00009901B0939A014091970150919801609186
:101E1000990170919A018CE090E00E9433178ECF67
:101E2000809102018F5F80930201809102018430D2
:101E300008F484CF81E08093020180CF1F920F923B
:101E40000FB60F9211242F933F934F935F936F938D
:101E50007F938F939F93AF93BF93EF93FF93CF9312
:101E6000DF9300D000D0CDB7DEB74F9929C0809165
:101E700092018130E1F5809102018230C1F54E99E5
:101E800036C08091050190910601A0910701B091A3
:101E9000080189839A83AB83BC8320E030E040E073
:101EA0005FE3BC01CD010E94DF12462F572FBC011A
:101EB0004093050150930601609307017093080158
:101EC0000F900F900F900F90DF91CF91FF91EF91B6
:101ED000BF91AF919F918F917F916F915F914F9142
:101EE0003F912F910F900FBE0F901F9018958091EA
:101EF0009201813089F480910201833069F44E9916
:101F00000BC080918C0190918D018C509E4F9093CD
:101F10008D0180938C01D4CF80919201811142C0B8
:101F2000809102018130F1F54E993CC08091A3016E
:101F30009091A401A091A501B091A60189839A83F3
:101F4000AB83BC8320E030E040E05FE3BC01CD0127
:101F50000E94DF12462F572FBC014093A3015093DC
:101F6000A4016093A5017093A6018091A3019091B3
:101F7000A401A091A501B091A6018093970190932F
:101F80009801A0939901B0939A01409197015091C3
:101F900098016091990170919A018CE090E00E9403
:101FA00033178ECF8091020181508093020180917E
:101FB0000201811185CF83E08093020181CF2C98AB
:101FC0006623A9F02B9A27E030E090E0AC01022EC6
:101FD00002C0559547950A94E2F740FF0AC02A9A35
:101FE000299A29982150310988F72C9A08952B981D
:101FF000EACF2A98F5CF60E00C94DF0F80E80E94CA
:10200000FB0F80E40E94FB0F1092C7031092C803DD
:10201000EFECF1E088EF91E0DF019C011D9221508F
:102020003040E1F708958093C7036093C803089593
:10203000CF93DF93249A259A239A229A219A2D9A54
:102040002C9A8FE19EE40197F1F700C000002D98D3
:102050009FE725EB81E0915020408040E1F700C0F0
:1020600000002D9A2C9881E20E94FB0F83E10E94D0
:10207000FB0F86E00E94FB0F82EC0E94FB0F80E2C8
:102080000E94FB0F89E00E94FB0F80E80E94FB0F7B
:1020900080E40E94FB0FC8EFD1E061E080E00E9485
:1020A000DF0F2197D1F788E00E94FB0F8CE0DF91D2
:1020B000CF910C94FB0FCF93DF9380E80E94FB0F2E
:1020C00080E40E94FB0FCFECD1E061E089910E9497
:1020D000DF0F83E0C73CD807C1F7DF91CF910895A8
:1020E000811103C084E20C94FB0F80E2FCCF962F99
:1020F000969596959695E82FF0E084E5989FE00DEB
:10210000F11D1124E153FE4F2081677081E090E0C2
:1021100001C0880F6A95EAF7442319F0822B808367
:10212000089580958223FBCFBF92CF92DF92EF92EA
:10213000FF920F931F93CF93DF93C62F25E0629FEB
:102140008001112497E0699F700111248052990B3E
:10215000289F6001299FD00C1124D0E0D0171106D0
:1021600009F04FC08091C7038F5F9C2F990F990F83
:102170009C0F890F8093C703843558F08091C80362
:102180001092C7038F5F97E0C99F800D1124809341
:10219000C8038091C803803320F01092C7031092C7
:1021A000C803DF91CF911F910F91FF90EF90DF90C7
:1021B000CF90BF9008958D2F6C2F0E949B12F60137
:1021C000E80FF11DE651FF4FE4913B0D2D0FF0E0BC
:1021D0008B2D0E949B1202C0F595E7958A95E2F738
:1021E00041E0E0FF40E0632F822F0E947710B3941C
:1021F0003091C8032091C703BE141F04E1F6DF5FCE
:10220000ADCFB12CF5CF1F93CF93DF93162FEC01F9
:102210008991811104C0DF91CF911F910895612FA1
:102220000E949410F5CFCF93DF939B01FC01DC015A
:10223000A60FB71F90E080E0215031098217930765
:102240001CF0DF91CF91089541915E91EF012197AC
:1022500058834C930196F0CFAF92BF92CF92DF920A
:10226000EF92FF920F931F93CF93DF937B015A015D
:10227000FB01D0E0C0E02AE030E0009769F585017D
:102280000C1B1D0B6801AC16BD0614F4D12CC12C1F
:10229000A60160E370E0C7018C0F9D1F0E94A61687
:1022A000AC16BD0614F410E000E00C0F1D1FCC0DA1
:1022B000DD1DCE0DDF1DB801C7010E94131118826C
:1022C000C801DF91CF911F910F91FF90EF90DF90A8
:1022D000CF90BF90AF9008952196B9010E94A712A8
:1022E000805D8193CB01C9CF2F923F924F925F9235
:1022F0006F927F928F929F92AF92BF92CF92DF9216
:10230000EF92FF920F931F93CF93DF9300D000D0F3
:1023100000D0CDB7DEB71B012C015A0189016983BA
:102320003A828B835C8269817A818B819C810E9455
:10233000C2136B0150E040E0B501C6010E942C11B0
:102340008D839E830115110509F473C0ED81FE8113
:10235000EA0DFB1D8EE28083C801012E000CAA0B42
:10236000BB0B89839A83AB83BC83BC01CD010E94E4
:10237000FA139B01AC0160E070E080E291E40E94FE
:102380001C153B014C01C601DD0CAA0BBB0B89835C
:102390009A83AB83BC83BC01CD010E94FA139B01DD
:1023A000AC0129823A824B825C8269817A818B817D
:1023B0009C810E94DE12AD81BE811196AA0DBB1DCB
:1023C000BE83AD839B01AC0169827A828B829C8241
:1023D00069817A818B819C810E94AF1469837A83A1
:1023E0008B839C8369817A818B819C810E94C2133B
:1023F000362F272FA8016D817E81832F922F26965D
:102400000FB6F894DEBF0FBECDBFDF91CF911F9105
:102410000F91FF90EF90DF90CF90BF90AF909F9083
:102420008F907F906F905F904F903F902F900C9483
:102430002C1126960FB6F894DEBF0FBECDBFDF91EC
:10244000CF911F910F91FF90EF90DF90CF90BF90B1
:10245000AF909F908F907F906F905F904F903F9044
:102460002F900895CF93DF9300D000D0CDB7DEB783
:102470008FB7F8942091D1033091D2034091D303C8
:102480005091D40329833A834B835C838FBF789424
:1024900069817A818B819C810F900F900F900F90B2
:1024A000DF91CF9108951F921FB61F9211242F9391
:1024B0003F938F939F93AF93BF938091D10390915C
:1024C000D203A091D303B091D4033091D90326E075
:1024D000230F2D3750F50296A11DB11D2093D9036E
:1024E0008093D1039093D203A093D303B093D403EA
:1024F0008091D5039091D603A091D703B091D803D2
:102500000196A11DB11D8093D5039093D603A0938E
:10251000D703B093D803BF91AF919F918F913F9113
:102520002F911F901FBE1F90189529E8230F039627
:10253000A11DB11DD3CF991B79E004C0991F961737
:1025400008F0961B881F7A95C9F78095089597FB28
:10255000072E16F4009407D077FD09D00E94CA1206
:1025600007FC05D03EF4909581959F4F0895709596
:1025700061957F4F0895A29FB001B39FC001A39FB3
:10258000700D811D1124911DB29F700D811D1124AC
:10259000911D0895AA1BBB1B51E107C0AA1FBB1FB9
:1025A000A617B70710F0A61BB70B881F991F5A95DF
:1025B000A9F780959095BC01CD0108955058BB278F
:1025C000AA270E94F6120C9470140E94621438F02C
:1025D0000E94691420F039F49F3F19F426F40C94FA
:1025E0005F140EF4E095E7FB0C945914E92F0E9458
:1025F000811458F3BA17620773078407950720F010
:1026000079F4A6F50C94A3140EF4E0950B2EBA2FD2
:10261000A02D0B01B90190010C01CA01A0011124E8
:10262000FF27591B99F0593F50F4503E68F11A1694
:10263000F040A22F232F342F4427585FF3CF469525
:1026400037952795A795F0405395C9F77EF41F1647
:10265000BA0B620B730B840BBAF09150A1F0FF0F11
:10266000BB1F661F771F881FC2F70EC0BA0F621FFD
:10267000731F841F48F4879577956795B795F795ED
:102680009E3F08F0B0CF9395880F08F09927EE0F82
:102690009795879508950E94351408F481E0089570
:1026A0000E9464130C9470140E94691458F00E94E4
:1026B000621440F029F45F3F29F00C945914511131
:1026C0000C94A4140C945F140E94811468F3992351
:1026D000B1F3552391F3951B550BBB27AA2762171E
:1026E0007307840738F09F5F5F4F220F331F441F2B
:1026F000AA1FA9F335D00E2E3AF0E0E832D091505F
:102700005040E695001CCAF72BD0FE2F29D0660F4B
:10271000771F881FBB1F261737074807AB07B0E88E
:1027200009F0BB0B802DBF01FF2793585F4F3AF094
:102730009E3F510578F00C9459140C94A4145F3FFB
:10274000E4F3983ED4F3869577956795B795F7951A
:102750009F5FC9F7880F911D9695879597F9089502
:10276000E1E0660F771F881FBB1F6217730784079E
:10277000BA0720F0621B730B840BBA0BEE1F88F7AD
:10278000E09508950E94C9136894B1110C94A414A3
:1027900008950E94891488F09F5798F0B92F9927BF
:1027A000B751B0F0E1F0660F771F881F991F1AF03C
:1027B000BA95C9F714C0B13091F00E94A314B1E0EA
:1027C00008950C94A314672F782F8827B85F39F0E9
:1027D000B93FCCF3869577956795B395D9F73EF4D5
:1027E00090958095709561957F4F8F4F9F4F08957D
:1027F000E89409C097FB3EF490958095709561959B
:102800007F4F8F4F9F4F9923A9F0F92F96E9BB2750
:102810009395F695879577956795B795F111F8CFCC
:10282000FAF4BB0F11F460FF1BC06F5F7F4F8F4F37
:102830009F4F16C0882311F096E911C0772321F02D
:102840009EE8872F762F05C0662371F096E8862FC5
:1028500070E060E02AF09A95660F771F881FDAF71C
:10286000880F9695879597F90895990F0008550F49
:10287000AA0BE0E8FEEF16161706E807F907C0F006
:1028800012161306E407F50798F0621B730B840B0E
:10289000950B39F40A2661F0232B242B252B21F4E8
:1028A00008950A2609F4A140A6958FEF811D811D88
:1028B000089597F99F6780E870E060E008959FEFC2
:1028C00080EC089500240A941616170618060906C7
:1028D000089500240A941216130614060506089596
:1028E000092E0394000C11F4882352F0BB0F40F41E
:1028F000BF2B11F460FF04C06F5F7F4F8F4F9F4F5E
:10290000089557FD9058440F551F59F05F3F71F0DF
:102910004795880F97FB991F61F09F3F79F0879546
:102920000895121613061406551FF2CF4695F1DFCF
:1029300008C0161617061806991FF1CF869571055F
:10294000610508940895E894BB2766277727CB0193
:1029500097F908950E94351408F48FEF08950E94A6
:10296000C2140C9470140E94621438F00E9469140E
:1029700020F0952311F00C9459140C945F14112439
:102980000C94A4140E94811470F3959FC1F3950FC9
:1029900050E0551F629FF001729FBB27F00DB11DE3
:1029A000639FAA27F00DB11DAA1F649F6627B00D73
:1029B000A11D661F829F2227B00DA11D621F739F5C
:1029C000B00DA11D621F839FA00D611D221F749F6A
:1029D0003327A00D611D231F849F600D211D822FB1
:1029E000762F6A2F11249F5750409AF0F1F08823D8
:1029F0004AF0EE0FFF1FBB1F661F771F881F915005
:102A00005040A9F79E3F510580F00C9459140C9446
:102A1000A4145F3FE4F3983ED4F3869577956795C9
:102A2000B795F795E7959F5FC1F7FE2B880F911D2E
:102A30009695879597F90895FA01EE0FFF1F309646
:102A400021053105A1F16115710561F48038BFE3FD
:102A50009B0749F168949038810561F08038BFEF99
:102A60009B0741F099234AF5FF3FE1053105210518
:102A700019F1E8940894E795D901AA2329F4AB2F1A
:102A8000BE2FF85FD0F310C0FF5F70F4A695E0F79B
:102A9000F73950F019F0FF3A38F49F779F930DD033
:102AA0000F9007FC9058089546F00C945F1460E076
:102AB00070E080E89FE308954FE79F775F934F931F
:102AC0003F932F930E941C162F913F914F915F913E
:102AD0000E94AF140C9479150E943514880B990B41
:102AE000089529F416F00C9459140C94A3140C9422
:102AF0005F140E948914A8F39638A0F707F80F9284
:102B0000E8942BE33AEA48EB5FE70E94C5140F9282
:102B10000F920F924DB75EB70F920E946416E8E6CF
:102B2000F0E00E94AB154F915F91EF91FF91E59519
:102B3000EE1FFF1F49F0FE57E0684427EE0F441FC9
:102B4000FA95E1F74195550B0E94DE150F9007FEAF
:102B50000C94D2150895DF93CF931F930F93FF9298
:102B6000EF92DF927B018C01689406C0DA2EEF01B0
:102B70000E94C214FE01E894A591259135914591DA
:102B80005591A6F3EF010E94F612FE019701A801EC
:102B9000DA9469F7DF90EF90FF900F911F91CF913A
:102BA000DF9108959B01AC0160E070E080E89FE355
:102BB0000C9450130C9459140C9498160E94891478
:102BC000D8F39923C9F3940F511DA3F391505040AA
:102BD00094F059F0882332F0660F771F881F9150C8
:102BE0005040C1F79E3F51052CF7880F911D9695D7
:102BF000879597F908955F3FACF0983E9CF0BB270E
:102C0000869577956795B79508F4B1609395C1F768
:102C1000BB0F58F711F460FFE8CF6F5F7F4F8F4F06
:102C20009F4FE3CF0C94A41416F00C9498160C94B8
:102C30005F1468940C9459140E948914A8F3992382
:102C4000C1F3AEF3DF93CF931F930F93FF92C92F7E
:102C5000DD2788232AF02197660F771F881FDAF770
:102C600020E030E040E85FEB9FE3883920F0803ED1
:102C700038F021968F770E94DF12E0E9F0E004C07F
:102C80000E94DF12EDEBF0E00E94AB158B01BE015C
:102C9000EC01FB2E6F5771097595771F880B990B07
:102CA0000E94FA1328E132E741E35FE30E94C21475
:102CB000AF2D9801AE01FF900F911F91CF91DF9141
:102CC0000E94F6120C947014FA01DC01AA0FBB1FCB
:102CD0009B01AC01BF5728F42227332744275078A3
:102CE00020C0B75190F4AB2F002446953795279517
:102CF000011CA395D2F3002071F0220F331F441F53
:102D0000B395DAF30ED00C94DE1261307105A0E8B1
:102D10008A07B94630F49B01AC01662777278827DC
:102D20009078309621F02083318342835383089535
:102D30009F3F31F0915020F4879577956795B7952F
:102D4000880F911D9695879597F90895DC0101C02C
:102D50006D9341505040E0F70895BB274A3031F45D
:102D6000992322F4BDE2909581959F4F0C94EA1629
:102D7000BB272A3051F4992342F4BDE29095809507
:102D8000709561957F4F8F4F9F4F0C94C816BB274E
:102D9000FA01A62F6217710581059105330B30FBEF
:102DA00066F0AA27660F771F881F991FAA1FA21710
:102DB00010F0A21B63953850A9F7A05DAA3308F064
:102DC000A95DA19336F7B111B1931082CA010C9499
:102DD0000317BB27FB015527AA27880F991FAA1F96
:102DE000A41710F0A41B83955051B9F7A05DAA3326
:102DF00008F0A95DA193009779F7B111B1931192F1
:102E0000CB010C940317DC01FC01672F7191772330
:102E1000E1F7329704C07C916D9370836291AE1795
:102E2000BF07C8F30895F999FECF92BD81BDF89A06
:102E3000992780B50895A6E1B0E044E050E00C94F5
:102E40004117262FF999FECF92BD81BDF89A0197BF
:102E500000B4021639F01FBA20BD0FB6F894FA9AE2
:102E6000F99A0FBE08950396272F0E9422170E94F9
:102E70002117252F0E942217242F0C942217DC01E2
:102E8000CB01FC01F999FECF06C0F2BDE1BDF89A75
:102E9000319600B40D9241505040B8F70895F8941F
:022EA000FFCF62
:102EA200040003183C0000C8421810FE0F941003DF
:102EB2001113105B1026242020002D2D2E2D002012
:102EC2004C002D2D2D2D2D2D2D2D2D2D2D2D2D2D3E
:102ED200004B4D285329002122202020004B4D2F4A
:102EE20048002020530024252620002D2800292DCB
:102EF20000204B4D004C2F313030004C2F48002326
:102F02002020004C2F2F4D202D20004C2F2F4B0026
:102F120035303A200035353A200034303A2000343A
:042F2200313A200020
:00000001FF
