:10000000E9C004C15CC101C100C1FFC0FEC0FDC0A8
:100010003AC416C8FAC0F9C0F8C0F7C0F6C0F5C0B7
:10002000F4C0F3C0F2C007634236B79BD8A71A39B1
:10003000685618AEBAAB558C1D3CB7CC5763BD6D36
:10004000EDFD753EF6177231BF000000803F0800DD
:100050000000BE922449123EABAAAA2ABECDCCCC47
:100060004C3E00000080BEABAAAAAA3E00000000E1
:10007000BF000000803F0000000000084178D3BBB3
:100080004387D1133D190E3CC3BD4282AD2B3E6860
:10009000EC8276BED98FE1A93E4C80EFFFBE01C451
:1000A000FF7F3F00000000000000000000FFC1D5FE
:1000B000C1FE0C020000005C222A221D3EC1C9C9FB
:1000C0003E0808080808492A1C080000050300002B
:1000D000001C2241000041221C0000000205020811
:1000E000083E0808005030000008080808080060B2
:1000F00060000020100804023E5149453E00427F46
:10010000400042615149462141454B311814127F4C
:100110001027454545393C4A4949300171090503D5
:100120003649494936064949291E0036360000003D
:10013000563600000814224100141414141400410F
:100140002214080201510906324979413E7E1111FB
:10015000117E7F494949363E414141227F4141223A
:100160001C7F494949417F090909013E4149497AB2
:100170007F0808087F00417F41002040413F017F08
:10018000081422417F404040407F020C027F7F04E0
:1001900008107F3E4141413E7F090909063E415119
:1001A000215E7F09192946464949493101017F01EC
:1001B000013F4040403F1F2040201F3F4038403F0C
:1001C0006314081463070870080761514945430028
:1001D0000000000011241FBECFE5D4E0DEBFCDBF7C
:1001E00010E0A0E6B0E0E0EFFEE102C005900D9265
:1001F000A03DB107D9F723E0A0EDB0E001C01D920A
:10020000AE30B207E1F764D771CEFACE1F920F92EB
:100210000FB60F9211242F933F934F935F936F93D9
:100220007F938F939F93AF93BF93EF93FF93CF935E
:10023000DF9300D000D0CDB7DEB78091DA00909187
:10024000DB0001969093DB008093DA00209165003B
:100250003091660040916700509168008091FB00EA
:100260009091FC00A091FD00B091FE0089839A83DB
:10027000AB83BC83BC01CD0146DA462F572FBC01AE
:100280004093FB005093FC006093FD007093FE00D0
:100290000F900F900F900F90DF91CF91FF91EF9102
:1002A000BF91AF919F918F917F916F915F914F918E
:1002B0003F912F910F900FBE0F901F9018951F9296
:1002C0000F920FB60F9211242F933F934F935F938A
:1002D0006F937F938F939F93AF93BF93EF93FF930E
:1002E000839918C08CD6462F572F5093D500409332
:1002F000D400FF91EF91BF91AF919F918F917F912A
:100300006F915F914F913F912F910F900FBE0F9082
:100310001F90189574D6462F572F5093D7004093AF
:10032000D6008091D6009091D7002091D4003091D2
:10033000D5004091D8005091D900840F951F821BA1
:10034000930B9093D9008093D800939AD2CFCF92F9
:10035000DF92EF92FF92CF93DF9300D000D0CDB722
:10036000DEB78091E000C090F700D090F800E090F8
:10037000F900F090FA00282F30E050E040E02983A7
:100380003A834B835C83CA01B901C0DA9B01AC019B
:1003900060E070E080E89FE31EDAA70196016983C0
:1003A0007A838B839C8369817A818B819C81ABD991
:1003B000462F572FBC014093F7005093F8006093ED
:1003C000F9007093FA008091FF0090910001A091D4
:1003D0000101B091020189839A83AB83BC83209190
:1003E000F7003091F8004091F9005091FA00BC01FB
:1003F000CD01F1D969837A838B839C8369817A816A
:100400008B819C8155DA6093DF000F900F900F90E5
:100410000F90DF91CF91FF90EF90DF90CF900895F4
:10042000CF92DF92EF92FF92CF93DF9300D000D074
:10043000CDB7DEB78091DA009091DB00C090650007
:10044000D0906600E0906700F09068009C0150E05A
:1004500040E029833A834B835C83CA01B90154DAB3
:10046000A701960169837A838B839C8369817A8152
:100470008B819C81FFDA20E030E041E655E469831E
:100480007A838B839C8369817A818B819C81F2DA68
:1004900069837A838B839C8369817A818B819C8138
:1004A00007DA6093E0000F900F900F900F90DF91AC
:1004B000CF91FF90EF90DF90CF900895CF92DF9291
:1004C000EF92FF92CF93DF9300D000D00F92CDB781
:1004D000DEB78091D8009091D9009C0150E040E0B7
:1004E00029833A834B835C83CA01B9010DDA20E08A
:1004F00030E04AE754E469837A838B839C83698183
:100500007A818B819C8167D9462F572FBC014093FC
:10051000E3005093E4006093E5007093E60080915F
:10052000E000863008F438C18091E3009091E40047
:10053000A091E500B091E60089839A83AB83BC83E8
:1005400020916100309162004091630050916400FD
:100550009091E0009D8369817A818B819C818ADA08
:1005600020E030E048EC52E469837A838B839C83FB
:1005700069817A818B819C817DDA20E030E041E6DF
:1005800055E469837A838B839C8369817A818B812B
:100590009C8170DA20E030E040E850E469837A839F
:1005A0008B839C8369817A818B819C8163DA6B0167
:1005B0007C013D81232F30E050E040E029833A83E5
:1005C0004B835C83CA01B901A1D99B01AC01C982EB
:1005D000DA82EB82FC8269817A818B819C81FBD8F3
:1005E000462F572FBC014093F3005093F4006093C3
:1005F000F5007093F6008091F3009091F400A091C3
:10060000F500B091F60089839A83AB83BC8320E028
:1006100030E0A901BC01CD0129DA18160CF064C044
:100620002091F3003091F4004091F5005091F600D4
:1006300029833A834B835C8320E030E048EC52E42A
:1006400069817A818B819C81C2D887FF4DC02091BE
:10065000F3003091F4004091F5005091F600C09005
:10066000E700D090E800E090E900F090EA0060E058
:1006700070E080E89FE3AFD8A701960169837A8391
:100680008B839C8369817A818B819C813CD8462FA6
:10069000572FBC014093E7005093E8006093E900B6
:1006A0007093EA008091FF0090910001A0910101F8
:1006B000B091020189839A83AB83BC832091E700C8
:1006C0003091E8004091E9005091EA00BC01CD0171
:1006D00082D8462F572FBC014093EF005093F00073
:1006E0006093F1007093F2008091E3009091E40038
:1006F000A091E500B091E60089839A83AB83BC8327
:10070000209161003091620040916300509164003B
:10071000C090EB00D090EC00E090ED00F090EE0087
:10072000BC01CD01A7D920E030E040E850E4698366
:100730007A838B839C8369817A818B819C819AD90E
:10074000A701960169837A838B839C8369817A816F
:100750008B819C81D8D7462F572FBC014093EB004B
:100760005093EC006093ED007093EE00369A36994A
:10077000FECF84B195B16FE070E09DD76093DE004D
:100780000F900F900F900F900F90DF91CF91FF90EF
:10079000EF90DF90CF9008952091E3003091E40036
:1007A0004091E5005091E60029833A834B835C83B6
:1007B000209161003091620040916300509164008B
:1007C00069817A818B819C8155D920E030E041E6B6
:1007D00055E469837A838B839C8369817A818B81D9
:1007E0009C8148D920E030E040E850E469837A8376
:1007F0008B839C8369817A818B819C813BD9462F35
:10080000572FBC014093F3005093F4006093F50020
:100810007093F60069CFF8944091FB005091FC0072
:100820006091FD007091FE0084E090E047DB409114
:10083000EF005091F0006091F1007091F20080E0C3
:1008400090E03CDB4091EB005091EC006091ED00BA
:100850007091EE0088E090E031DB6091DF0080E194
:1008600090E01BDB4091FF0050910001609101017D
:10087000709102018CE090E021DB1092E100109277
:10088000E200789408951F920F920FB60F921124F0
:10089000CF92DF92EF92FF922F933F934F935F930C
:1008A0006F937F938F939F93AF93BF93EF93FF9338
:1008B000CF93DF9300D000D0CDB7DEB78091DC00BE
:1008C0009091DD0001969093DD008093DC00809193
:1008D000D8009091D9008032934058F48091DA008A
:1008E0009091DB00892B29F48091E200813009F49A
:1008F00092DF8091E1008E3248F08091E00081111A
:1009000005C08091E200813009F485DF8091DC0030
:100910009091DD00049708F48BC082DDCFDD8091DB
:10092000F3009091F400A091F500B091F600898356
:100930009A83AB83BC8320E030E040E85FE3BC01F6
:10094000CD0194D818161CF481E08093E2008091C8
:10095000E000863008F45BC08091DE00C090EF00BC
:10096000D090F000E090F100F090F200282F30E0FD
:1009700050E040E029833A834B835C83CA01B9018C
:10098000C5D7A701960169837A838B839C8369818C
:100990007A818B819C811FD720E030E048EC52E4C3
:1009A00069837A838B839C8369817A818B819C8123
:1009B00061D869837A838B839C8369817A818B81F7
:1009C0009C8176D7462F572F5093D1004093D0006B
:1009D0008091FF0090910001A0910101B09102016E
:1009E00089839A83AB83BC8320E030E040E85FE3F7
:1009F000BC01CD0188D6462F572FBC014093FF0084
:100A0000509300016093010170930201A0DC80917A
:100A1000E1008F5F8093E1001092DB001092DA001A
:100A20001092D9001092D8001092DD001092DC00D4
:100A30008EEE95E89DBD8CBD0F900F900F900F909E
:100A4000DF91CF91FF91EF91BF91AF919F918F91E6
:100A50007F916F915F914F913F912F91FF90EF9018
:100A6000DF90CF900F900FBE0F901F901895CF93EF
:100A7000DF9300D000D0CDB7DEB784E090E008DA95
:100A8000462F572FBC0149835A836B837C839A017D
:100A9000AC01B9019ED8882321F019821A821B82E9
:100AA0001C8289819A81AB81BC818093FB009093E9
:100AB000FC00A093FD00B093FE0080E090E0E8D938
:100AC000462F572FBC0149835A836B837C839A013D
:100AD000AC01B9017ED8882321F019821A821B82C9
:100AE0001C8289819A81AB81BC818093EF009093B5
:100AF000F000A093F100B093F20088E090E0C8D934
:100B0000462F572FBC0149835A836B837C839A01FC
:100B1000AC01B9015ED8882321F019821A821B82A8
:100B20001C8289819A81AB81BC818093EB00909378
:100B3000EC00A093ED00B093EE0080E190E0A0D92E
:100B40008F3F09F480E08093DF008CE090E0A0D933
:100B5000462F572FBC0149835A836B837C839A01AC
:100B6000AC01B90136D8882321F019821A821B8280
:100B70001C8289819A81AB81BC818093FF00909314
:100B80000001A0930101B09302010F900F900F900C
:100B90000F90DF91CF910895C4986623A9F0C39A6E
:100BA00027E030E090E0AC01022E02C05595479559
:100BB0000A94E2F740FF0AC0C29AC19AC198215034
:100BC000310988F7C49A0895C398EACFC298F5CF3F
:100BD00060E0E2CF80E8FCDF80E4FADF1092FB0205
:100BE0001092FC02E3E0F1E088EF91E0DF019C016C
:100BF0001D9221503040E1F70895811102C084E236
:100C0000E7CF80E2FDCF962F969596959695E82FA3
:100C1000F0E084E5989FE00DF11D1124ED5FFE4F9B
:100C20002081677081E090E001C0880F6A95EAF743
:100C3000442319F0822B8083089580958223FBCF73
:100C4000BF92CF92DF92EF92FF920F931F93CF93B9
:100C5000DF93C62F25E0629F8001112497E0699FF2
:100C600070011124082E000C990B8097289F6001B9
:100C7000299FD00C1124D0E0D017110609F04CC0E8
:100C80008091FB028F5F9C2F990F990F9C0F890F0A
:100C90008093FB02843558F08091FC021092FB0295
:100CA0008F5F97E0C99F800D11248093FC02809193
:100CB000FC02803320F01092FB021092FC02DF91C4
:100CC000CF911F910F91FF90EF90DF90CF90BF9049
:100CD00008958D2F6C2FE3D4F601E80FF11DE85530
:100CE000FF4FE4913B0D2D0FF0E08B2DD8D402C0C7
:100CF000F595E7958A95E2F741E0E0FF40E0632F44
:100D0000822F81DFB3943091FC022091FB02BE144C
:100D10001F04F9F6DF5FB0CFB12CF5CF1F93CF934F
:100D2000DF93162FEC018991811104C0DF91CF91DF
:100D30001F910895612F84DFF6CF8093FB026093AB
:100D4000FC020895CF93DF93BC9ABD9ABB9ABA9ADE
:100D5000B99AC59AC49A8FE19EE40197F1F700C051
:100D60000000C5989FE725EB81E09150204080402E
:100D7000E1F700C00000C59AC49881E229DF83E151
:100D800027DF86E025DF82EC23DF80E221DF89E0B8
:100D90001FDF80E81DDF80E41BDFC8EFD1E061E0EA
:100DA00080E0FADE2197D9F788E012DF8CE0DF914E
:100DB000CF910ECFCF93DF9380E80ADF80E408DF86
:100DC000C3E0D1E061E08991E7DE82E0CB3FD80764
:100DD000C9F7DF91CF910895CF93DF939B01FC0179
:100DE000DC01A60FB71F90E080E021503109821787
:100DF00093071CF0DF91CF91089541915E91EF012F
:100E0000219758834C930196F0CFAF92BF92CF9227
:100E1000DF92EF92FF920F931F93CF93DF937B01AB
:100E20005A01FB01D0E0C0E02AE030E0009759F51C
:100E300085010C1B1D0B6801AC16BD0614F4D12CEA
:100E4000C12CA60160E370E0C7018C0F9D1FDED7A7
:100E5000AC16BD0614F410E000E00C0F1D1FCC0D05
:100E6000DD1DCE0DDF1DB801C701B6DF1882C80138
:100E7000DF91CF911F910F91FF90EF90DF90CF9076
:100E8000BF90AF9008952196B90129D4805D8193D8
:100E9000CB01CCCF2F923F924F925F926F927F9275
:100EA0008F929F92AF92BF92CF92DF92EF92FF927A
:100EB0000F931F93CF93DF9300D000D000D0CDB716
:100EC000DEB71B012C015A01890169833A828B83A9
:100ED0005C8269817A818B819C81E5D46B0150E0D1
:100EE00040E0B501C60191DF8D839E830115110598
:100EF00009F46CC0ED81FE81EA0DFB1D8EE280835A
:100F0000C801012E000CAA0BBB0B89839A83AB830B
:100F1000BC83BC01CD01FAD49B01AC0160E070E060
:100F200080E291E40AD63B014C01C601DD0CAA0B1C
:100F3000BB0B89839A83AB83BC83BC01CD01E6D410
:100F40009B01AC0129823A824B825C8269817A8161
:100F50008B819C81D7D3AD81BE811196AA0DBB1D1B
:100F6000BE83AD839B01AC0169827A828B829C82B5
:100F700069817A818B819C817DD569837A838B831A
:100F80009C8369817A818B819C818DD4362F272F18
:100F9000A8016D817E81832F922F26960FB6F8943B
:100FA000DEBF0FBECDBFDF91CF911F910F91FF909C
:100FB000EF90DF90CF90BF90AF909F908F907F90F9
:100FC0006F905F904F903F902F901FCF26960FB657
:100FD000F894DEBF0FBECDBFDF91CF911F910F916F
:100FE000FF90EF90DF90CF90BF90AF909F908F9049
:100FF0007F906F905F904F903F902F900895CF9388
:10100000DF9300D000D0CDB7DEB78FB7F894209132
:10101000050330910603409107035091080329838B
:101020003A834B835C838FBF789469817A818B810B
:101030009C810F900F900F900F90DF91CF910895AA
:101040001F921FB61F9211242F933F938F939F934C
:10105000AF93BF938091050390910603A09107037E
:10106000B091080330910D0326E0230F2D3750F582
:101070000296A11DB11D20930D038093050390934B
:101080000603A0930703B09308038091090390918E
:101090000A03A0910B03B0910C030196A11DB11D91
:1010A0008093090390930A03A0930B03B0930C035E
:1010B000BF91AF919F918F913F912F911F901FBE34
:1010C0001F90189529E8230F0396A11DB11DD3CFBA
:1010D000CDB7DEB7AA970FB6F894DEBF0FBECDBF6F
:1010E00084B38D7C84BB86E886B985EC87B981B3EF
:1010F000837781BB8CE882BB86E085BF80EC8BBFA9
:101100001FBC83E08EBD2EEE35E83DBD2CBD83BFF8
:1011100012BE85E089BFABDCE0916900F0916A0006
:1011200009957894A12CB12CE0907500F090760090
:1011300000917300109174008090790090907A0073
:101140009E012F5F3F4F6901140140917100509142
:1011500072005AA749A734018091770090917800D6
:101160009EA38DA3A0916B00B0916C00B8A7AFA314
:1011700087991AC0A11018C0BEE0BB1598F0B394AF
:101180008B2D806882BB809160008F5F80936000B0
:1011900080916000843018F0E1E0E0936000AA24C0
:1011A000A3940AC0B12CECCF879B06C0AA2021F0E3
:1011B00082B3805882BBA12C80916000823009F4F8
:1011C000C6C0833009F437C161E0813009F04CC2F8
:1011D000F701099561E08BE790E0F80109958091AE
:1011E000D0009091D1004AE0BE01675E7F4F15D6D6
:1011F00061E0F801099561E081E4F701099561E09A
:1012000081E890E0F801099569E081E0F70109952E
:1012100061E085E890E0F80109952091F3003091B4
:10122000F4004091F5005091F60029A33AA34BA396
:101230005CA321E030E0A60169A17AA18BA19CA169
:10124000F301099561E181E0F70109952091F3002F
:101250003091F4004091F5005091F60029A33AA393
:101260004BA35CA320E030E046EC52E469A17AA1F4
:101270008BA19CA1FBD326011816ACF08091F30042
:101280009091F400A091F500B091F60089A39AA383
:10129000ABA3BCA320E030E0A901BC01CD0197D2F3
:1012A00018160CF44EC062E084E990E0F80109954C
:1012B00066E186E3F70109958091E00061E0863000
:1012C00008F442C089E990E0F801099560E281E004
:1012D000F701099561E085E890E0F801099568E279
:1012E00085E0F701099561E083EA90E0F80109954E
:1012F0002091EF003091F0004091F1005091F20008
:1013000029A33AA34BA35CA321E030E0A20169A189
:101310007AA18BA19CA1F301099561E0C201F801BA
:10132000099568E286E3F701099561E089E990E0B3
:10133000F8010995EDA1FEA10995EFA1F8A5099580
:1013400017CF62E0C601B2CF8FE990E0BDCF8091A8
:10135000E000282F30E050E040E029A33AA34BA35F
:101360005CA3CA01B901D0D222E030E0A60169A392
:101370007AA38BA39CA369A17AA18BA19CA1F40160
:10138000099567E086E0F70109958091E0008111F9
:1013900031C062E081E990E0F80109956BE088E3F3
:1013A000F701099561E087EA90E0F801099560E2AC
:1013B00081E0F701099561E085E890E0F801099581
:1013C00068E285E0F701099561E083EA90E0F801C1
:1013D00009958091DF00811124C061E081E990E0EE
:1013E000F801099568E288E3F701099561E087EA69
:1013F00090E09ECF8091E000811109C08091E000D3
:10140000882329F062E08DE990E0F8010995809148
:10141000E0004AE0BE01675E7F4F90E0FED462E0EC
:10142000BBCF8091DF004AE0BE01675E7F4F90E056
:10143000F4D461E0D5CF2091EB003091EC004091E5
:10144000ED005091EE0029A33AA34BA35CA322E048
:1014500030E0A60169A17AA18BA19CA1F1010995B7
:1014600061E081E0F701099561E08CEA90E0F80124
:1014700009952091EB003091EC004091ED005091E6
:10148000EE0029A33AA34BA35CA320E030E0A9011E
:1014900069A17AA18BA19CA19AD1260118160CF4FE
:1014A0007AC061E084E990E0F801099561E081E4A7
:1014B000F701099561E082EB90E0F801099569E098
:1014C00081E0F701099561E085E890E0F801099570
:1014D0002091FB003091FC004091FD005091FE00F6
:1014E00029A33AA34BA35CA321E030E0A20169A1A8
:1014F0007AA18BA19CA1F101099561E181E0F7013D
:1015000009952091FB003091FC004091FD00509125
:10151000FE0029A33AA34BA35CA320E030E0A9017D
:1015200069A17AA18BA19CA152D118160CF469C0B3
:1015300062E081E990E0F801099566E186E4F7014F
:10154000099561E082E890E0F801099560E281E0A8
:10155000F701099561E085E890E0F801099568E2F6
:1015600085E0F701099561E085EB90E0F8010995C8
:101570008091DE004AE0BE01675E7F4F90E04DD46F
:1015800061E0F801099568E286E4F701099561E0F8
:1015900083EB90E0CDCE2091EB003091EC004091B8
:1015A000ED005091EE0029A33AA34BA35CA320E0E9
:1015B00030E040E85FE369A17AA18BA19CA107D14B
:1015C00087FF1CC08091EB009091EC00A091ED0092
:1015D000B091EE0089A39AA3ABA3BCA320E030E0B6
:1015E000A901BC01CD0142D2181644F461E08DE995
:1015F00090E0F801099561E0C60156CF61E0C201B3
:1016000053CF2091FB003091FC004091FD005091A0
:10161000FE0029A33AA34BA35CA320E030E0A9017C
:1016200069A17AA18BA19CA121D21816D4F4809132
:10163000FB009091FC00A091FD00B091FE0089A3F9
:101640009AA3ABA3BCA320E030E040E85FE3BC0179
:10165000CD01BDD087FF05C062E080E3E9A5FAA512
:10166000099562E0C20167CF81E0F701099561E069
:101670008BEB90E0F801099569E081E0F7010995AD
:1016800061E088EC90E0F8010995809160004AE003
:10169000BE01675E7F4F90E0C0D361E049CE991BE9
:1016A00079E004C0991F961708F0961B881F7A9559
:1016B000C9F780950895AA1BBB1B51E107C0AA1F5B
:1016C000BB1FA617B70710F0A61BB70B881F991FE3
:1016D0005A95A9F780959095BC01CD01089597FB87
:1016E000072E16F4009406D077FD08D0E4DF07FC3F
:1016F00005D03EF4909581959F4F08957095619522
:101700007F4F08955058BB27AA270ED075C166D1C8
:1017100030F06BD120F031F49F3F11F41EF45BC127
:101720000EF4E095E7FB51C1E92F77D180F3BA17AA
:10173000620773078407950718F071F49EF58FC14F
:101740000EF4E0950B2EBA2FA02D0B01B9019001DC
:101750000C01CA01A0011124FF27591B99F0593F20
:1017600050F4503E68F11A16F040A22F232F342F68
:101770004427585FF3CF469537952795A795F040B6
:101780005395C9F77EF41F16BA0B620B730B840BCB
:10179000BAF09150A1F0FF0FBB1F661F771F881F83
:1017A000C2F70EC0BA0F621F731F841F48F48795DB
:1017B00077956795B795F7959E3F08F0B3CF9395CA
:1017C000880F08F09927EE0F979587950895D9D03F
:1017D00008F481E008950CD00FC107D140F0FED08D
:1017E00030F021F45F3F19F0F0C0511139C1F3C05E
:1017F00014D198F39923C9F35523B1F3951B550BD5
:10180000BB27AA2762177307840738F09F5F5F4FD3
:10181000220F331F441FAA1FA9F333D00E2E3AF014
:10182000E0E830D091505040E695001CCAF729D02E
:10183000FE2F27D0660F771F881FBB1F261737077D
:101840004807AB07B0E809F0BB0B802DBF01FF27AD
:1018500093585F4F2AF09E3F510568F0B6C000C113
:101860005F3FECF3983EDCF3869577956795B795E7
:10187000F7959F5FC9F7880F911D9695879597F902
:101880000895E1E0660F771F881FBB1F621773077B
:101890008407BA0720F0621B730B840BBA0BEE1F90
:1018A00088F7E095089504D06894B111D9C00895DF
:1018B000BCD088F09F5790F0B92F9927B751A0F06E
:1018C000D1F0660F771F881F991F1AF0BA95C9F7D4
:1018D00012C0B13081F0C3D0B1E00895C0C0672F0D
:1018E000782F8827B85F39F0B93FCCF38695779584
:1018F0006795B395D9F73EF490958095709561956D
:101900007F4F8F4F9F4F0895E89409C097FB3EF497
:1019100090958095709561957F4F8F4F9F4F99233C
:10192000A9F0F92F96E9BB279395F69587957795BA
:101930006795B795F111F8CFFAF4BB0F11F460FF7A
:101940001BC06F5F7F4F8F4F9F4F16C0882311F0D2
:1019500096E911C0772321F09EE8872F762F05C0E6
:10196000662371F096E8862F70E060E02AF09A9581
:10197000660F771F881FDAF7880F9695879597F976
:101980000895990F0008550FAA0BE0E8FEEF161610
:101990001706E807F907C0F012161306E407F50763
:1019A00098F0621B730B840B950B39F40A2661F0D7
:1019B000232B242B252B21F408950A2609F4A1407A
:1019C000A6958FEF811D811D089597F99F6780E887
:1019D00070E060E008959FEF80EC089500240A9481
:1019E0001616170618060906089500240A941216FA
:1019F0001306140605060895092E0394000C11F42D
:101A0000882352F0BB0F40F4BF2B11F460FF04C0D9
:101A10006F5F7F4F8F4F9F4F089557FD9058440F32
:101A2000551F59F05F3F71F04795880F97FB991F3D
:101A300061F09F3F79F087950895121613061406FA
:101A4000551FF2CF4695F1DF08C016161706180687
:101A5000991FF1CF86957105610508940895E89462
:101A6000BB2766277727CB0197F908958ADF08F40B
:101A70008FEF08950BD0C0CFB1DF28F0B6DF18F09C
:101A8000952309F0A2CFA7CF1124EACFC6DFA0F398
:101A9000959FD1F3950F50E0551F629FF001729F03
:101AA000BB27F00DB11D639FAA27F00DB11DAA1F22
:101AB000649F6627B00DA11D661F829F2227B00D6F
:101AC000A11D621F739FB00DA11D621F839FA00DFA
:101AD000611D221F749F3327A00D611D231F849F4A
:101AE000600D211D822F762F6A2F11249F575040A1
:101AF0008AF0E1F088234AF0EE0FFF1FBB1F661F3C
:101B0000771F881F91505040A9F79E3F510570F0F4
:101B10005CCFA6CF5F3FECF3983EDCF386957795DC
:101B20006795B795F795E7959F5FC1F7FE2B880FEF
:101B3000911D9695879597F90895FA01EE0FFF1F6D
:101B400030962105310599F16115710561F48038F0
:101B5000BFE39B0749F168949038810561F08038B4
:101B6000BFEF9B0741F0992342F5FF3FE1053105A7
:101B7000210511F1E8940894E795D901AA2329F4E5
:101B8000AB2FBE2FF85FD0F310C0FF5F70F4A695A7
:101B9000E0F7F73950F019F0FF3A38F49F779F9348
:101BA0000CD00F9007FC905808953EF014CF60E0E1
:101BB00070E080E89FE308954FE79F775F934F932E
:101BC0003F932F93A2D02F913F914F915F9152DF7E
:101BD00009C0D7DE880B990B089519F40EF0F5CEE5
:101BE0003ECFF9CE22DFC8F39638C0F707F80F9240
:101BF000E8942BE33AEA48EB5FE74ADF0F920F9253
:101C00000F924DB75EB70F92C0D0E6E2F0E016D06B
:101C10004F915F91EF91FF91E595EE1FFF1F49F006
:101C2000FE57E0684427EE0F441FFA95E1F741950F
:101C3000550B32D00F9007FE26C00895DF93CF9347
:101C40001F930F93FF92EF92DF927B018C016894B8
:101C500005C0DA2EEF011ADFFE01E894A591259167
:101C6000359145915591AEF3EF015EDDFE0197018F
:101C7000A801DA9479F7DF90EF90FF900F911F9110
:101C8000CF91DF9108959B01AC0160E070E080E8A6
:101C90009FE3A1CD9ACEACC0C8DEE8F39923D9F377
:101CA000940F511DBBF39150504094F059F088238C
:101CB00032F0660F771F881F91505040C1F79E3F4A
:101CC000510544F7880F911D9695879597F90895CA
:101CD0005F3FACF0983E9CF0BB2786957795679563
:101CE000B79508F4B1609395C1F7BB0F58F711F49D
:101CF00060FFE8CF6F5F7F4F8F4F9F4FE3CFB0CE36
:101D00000EF076C068CE689460CE8FDEC8F399235B
:101D1000D1F3C6F3DF93CF931F930F93FF92C92F95
:101D2000DD2788232AF02197660F771F881FDAF7AF
:101D300020E030E040E85FEB9FE3883920F0803E10
:101D400030F021968F77DFDCEEE4F0E003C0DBDCDF
:101D5000EBE7F0E073DF8B01BE01EC01FB2E6F5768
:101D600071097595771F880B990BD0DD28E132E753
:101D700041E35FE38BDEAF2D9801AE01FF900F9141
:101D80001F91CF91DF91D0DC37CEFA01DC01AA0F91
:101D9000BB1F9B01AC01BF5728F4222733274427E0
:101DA00050781FC0B75188F4AB2F00244695379563
:101DB0002795011CA395D2F3002069F0220F331F51
:101DC000441FB395DAF30DD09DCC61307105A0E8C6
:101DD0008A07B94630F49B01AC016627772788272C
:101DE0009078309621F02083318342835383089585
:101DF0009F3F31F0915020F4879577956795B7957F
:101E0000880F911D9695879597F90895DC0101C07B
:101E10006D9341505040E0F70895BB274A3031F4AC
:101E2000992322F4BDE2909581959F4F01C0BB2775
:101E3000FB015527AA27880F991FAA1FA41710F086
:101E4000A41B83955051B9F7A05DAA3308F0A95D92
:101E5000A193009779F7B111B1931192CB0100C012
:101E6000DC01FC01672F71917723E1F7329704C001
:101E70007C916D9370836291AE17BF07C8F308958C
:101E8000E199FECF9FBB8EBBE09A99278DB3089551
:101E9000A6E1B0E044E050E01BC0262FE199FECF60
:101EA0009FBB8EBBE09A01970DB2021631F02DBB9D
:101EB0000FB6F894E29AE19A0FBE08950396272F81
:101EC000EDDFEBDF252FEADF242FE8CFDC01CB01AC
:101ED000FC01E199FECF06C0FFBBEEBBE09A319654
:101EE0000DB20D9241505040B8F70895F894FFCFCD
:101EF0000169884F3BB4168F38A206EA05FD050339
:101F00000620068E069D06DA064A0724252620208E
:101F100000204B4D002D2D2D2D2D2D2D2D2D2D2D1A
:101F20002D2D2D002D2D2E2D004C2F313030004C1D
:101F30002F4800232020004B4D2F48002526242029
:101F40002000204C002122202020004D4F4445201D
:101F50004E4F5420534554004D4F44453A20000005
:00000001FF
