:10000000E9C004C165C101C100C1FFC0FEC0FDC09F
:1000100090C45EC8FAC0F9C0F8C0F7C0F6C0F5C019
:10002000F4C0F3C0F2C007634236B79BD8A71A39B1
:10003000685618AEBAAB558C1D3CB7CC5763BD6D36
:10004000EDFD753EF6177231BF000000803F0800DD
:100050000000BE922449123EABAAAA2ABECDCCCC47
:100060004C3E00000080BEABAAAAAA3E00000000E1
:10007000BF000000803F0000000000084178D3BBB3
:100080004387D1133D190E3CC3BD4282AD2B3E6860
:10009000EC8276BED98FE1A93E4C80EFFFBE01C451
:1000A000FF7F3F0000000000000000000000005F34
:1000B00000000007000700147F147F14242A7F2A01
:1000C00012231308646236495522500005030000CC
:1000D000001C2241000041221C0000000205020811
:1000E000083E0808005030000008080808080060B2
:1000F00060000020100804023E5149453E00427F46
:10010000400042615149462141454B311814127F4C
:100110001027454545393C4A4949300171090503D5
:100120003649494936064949291E0036360000003D
:10013000563600000814224100141414141400410F
:100140002214080201510906324979413E7E1111FB
:10015000117E7F494949363E414141227F4141223A
:100160001C7F494949417F090909013E4149497AB2
:100170007F0808087F00417F41002040413F017F08
:10018000081422417F404040407F020C027F7F04E0
:1001900008107F3E4141413E7F090909063E415119
:1001A000215E7F09192946464949493101017F01EC
:1001B000013F4040403F1F2040201F3F4038403F0C
:1001C0006314081463070870080761514945430028
:1001D0000000000011241FBECFE5D4E0DEBFCDBF7C
:1001E00011E0A0E6B0E0EAE2FFE102C005900D9266
:1001F000AC30B107D9F723E0ACE0B1E001C01D920B
:10020000A735B207E1F7ACD78ECEFACE1F920F9288
:100210000FB60F9211242F933F934F935F936F93D9
:100220007F938F939F93AF93BF93EF93FF93CF935E
:10023000DF9300D000D0CDB7DEB780912001909140
:100240002101019690932101809320012091690062
:1002500030916A0040916B0050916C008091480190
:1002600090914901A0914A01B0914B0189839A83F1
:10027000AB83BC83BC01CD015ADA462F572FBC019A
:10028000409348015093490160934A0170934B0198
:1002900080911E0190911F01019690931F01809300
:1002A0001E010F900F900F900F90DF91CF91FF9153
:1002B000EF91BF91AF919F918F917F916F915F91DE
:1002C0004F913F912F910F900FBE0F901F90189557
:1002D0001F920F920FB60F9211242F933F934F93BB
:1002E0005F936F937F938F939F93AF93BF93EF939E
:1002F000FF93839918C0CBD6462F572F50931901DF
:1003000040931801FF91EF91BF91AF919F918F9111
:100310007F916F915F914F913F912F910F900FBE01
:100320000F901F901895B3D6462F572F50931B014F
:1003300040931A0180911A0190911B01209118019C
:100340003091190140911C0150911D01840F951F9E
:10035000821B930B90931D0180931C0180911A01C5
:1003600090911B01209118013091190140911601C3
:1003700050911701840F951F821B930B90931701C7
:1003800080931601939ABECF90912A018091270104
:10039000891720F480912A01809327010895CF9234
:1003A000DF92EF92FF92CF93DF9300D000D0CDB7D2
:1003B000DEB780912A01C0900C01D0900D01E09031
:1003C0000E01F0900F01282F30E050E040E029832B
:1003D0003A834B835C83CA01B901ACDA9B01AC015F
:1003E00060E070E080E89FE30ADAA7019601698384
:1003F0007A838B839C8369817A818B819C8197D955
:10040000462F572FBC0140930C0150930D01609370
:100410000E0170930F018091100190911101A09134
:100420001201B091130189839A83AB83BC8320911D
:100430000C0130910D0140910E0150910F01BC0152
:10044000CD01DDD969837A838B839C8369817A812D
:100450008B819C8141DA609328010F900F900F905F
:100460000F90DF91CF91FF90EF90DF90CF900895A4
:10047000CF92DF92EF92FF92CF93DF9300D000D024
:10048000CDB7DEB78091200190912101C090690025
:10049000D0906A00E0906B00F0906C009C0150E0FE
:1004A00040E029833A834B835C83CA01B90140DA77
:1004B000A701960169837A838B839C8369817A8102
:1004C0008B819C81EBDA20E030E041E655E46983E2
:1004D0007A838B839C8369817A818B819C81DEDA2C
:1004E00069837A838B839C8369817A818B819C81E8
:1004F000F3D960932A010F900F900F900F90DF9126
:10050000CF91FF90EF90DF90CF900895CF92DF9240
:10051000EF92FF92CF93DF9300D000D00F92CDB730
:10052000DEB780911C0190911D019C0150E040E0DC
:1005300029833A834B835C83CA01B901F9D920E04E
:1005400030E04AE754E469837A838B839C83698132
:100550007A818B819C8153D9462F572FBC014093C0
:100560004001509341016093420170934301809197
:100570002A01863008F447C18091400190914101E1
:10058000A0914201B091430189839A83AB83BC83DC
:10059000209165003091660040916700509168009D
:1005A00090912A019D8369817A818B819C8176DA81
:1005B00020E030E041E655E469837A838B839C83B5
:1005C00069817A818B819C8169DA20E030E040E8A2
:1005D00050E469837A838B839C8369817A818B81E0
:1005E0009C815CDA20E030E048EC52E469837A8355
:1005F0008B839C8369817A818B819C814FDA6B012B
:100600007C013D81232F30E050E040E029833A8394
:100610004B835C83CA01B9018DD99B01AC01C982AE
:10062000DA82EB82FC8269817A818B819C81E7D8B6
:10063000462F572FBC0140933801509339016093E6
:100640003A0170933B018091380190913901A0915A
:100650003A01B0913B0189839A83AB83BC8320E04C
:1006600030E0A901BC01CD0115DA18160CF04FC01D
:10067000209138013091390140913A0150913B016C
:10068000C0902C01D0902D01E0902E01F0902F0110
:1006900060E070E080E89FE3B2D8A701960169832B
:1006A0007A838B839C8369817A818B819C813FD8FB
:1006B000462F572FBC0140932C0150932D0160937E
:1006C0002E0170932F012091100130911101409162
:1006D00012015091130129833A834B835C8320914B
:1006E0002C0130912D0140912E0150912F016981F3
:1006F0007A818B819C8183D8462F572FBC014093F0
:100700003001509331016093320170933301209195
:1007100040013091410140914201509143012983B0
:100720003A834B835C832091650030916600409151
:10073000670050916800C0903C01D0903D01E0906E
:100740003E01F0903F0169817A818B819C81A6D91D
:1007500020E030E040E850E469837A838B839C8317
:1007600069817A818B819C8199D9A70196016983DE
:100770007A838B839C8369817A818B819C81D7D793
:10078000462F572FBC0140933C0150933D0160938D
:100790003E0170933F018091610090916200A091B1
:1007A0006300B091640089839A83AB83BC8320E0AB
:1007B00030E0A901BC01CD016DD91816C4F4209117
:1007C0003C0130913D0140913E0150913F0160E07C
:1007D00070E088E892E4AAD7462F572FBC014093D7
:1007E00061005093620060936300709364000F9007
:1007F0000F900F900F900F90DF91CF91FF90EF909F
:10080000DF90CF9008958091400190914101A09197
:100810004201B091430189839A83AB83BC832091C9
:100820006500309166004091670050916800BC01FE
:10083000CD0134D920E030E041E655E469837A8384
:100840008B839C8369817A818B819C8127D920E06D
:1008500030E040E850E469837A838B839C8369812C
:100860007A818B819C811AD9462F572FBC014093E6
:1008700038015093390160933A0170933B0147CF9F
:10088000CF93DF9300D000D0CDB7DEB7F89440917E
:1008900048015091490160914A0170914B0184E0F7
:1008A00090E025DB4091300150913101609132019F
:1008B0007091330180E090E01ADB40913C0150914F
:1008C0003D0160913E0170913F0188E090E00FDBB7
:1008D000609127018DE090E0F9DA609128018CE0C9
:1008E00090E0F4DA8091100190911101A091120131
:1008F000B091130189839A83AB83BC83BC01CD0182
:10090000EBD7AB01BC0180E190E0F1DA609114011A
:10091000709115018EE090E0F2DA109225011092AC
:100920002B0178940F900F900F900F90DF91CF9143
:1009300008951F920F920FB60F9211242F933F9399
:100940004F935F936F937F938F939F93AF93BF93D7
:10095000EF93FF93CF93DF9300D000D0CDB7DEB7F6
:10096000809122019091230101969093230180931D
:10097000220180911601909117018032934058F422
:1009800080911E0190911F01892B29F480912B01E8
:10099000813009F475DF809125018E3248F0809115
:1009A0002A01811105C080912B01813009F468DF93
:1009B000109217011092160110921F0110921E0141
:1009C0008091220190912301049708F473C050DDB7
:1009D0009DDD8091380190913901A0913A01B0914B
:1009E0003B0189839A83AB83BC8320E030E040E8FD
:1009F0005FE3BC01CD014ED818161CF481E0809352
:100A00002B0180912A01863000F180911001909194
:100A10001101A0911201B091130189839A83AB83D4
:100A2000BC8320E030E040E85FE3BC01CD017FD62D
:100A3000462F572FBC014093100150931101609332
:100A4000120170931301ABDC9FDC809125018F5F55
:100A500080932501109221011092200110921D0116
:100A600010921C01109223011092220180913801F2
:100A700090913901A0913A01B0913B0180933401EA
:100A800090933501A0933601B093370180914801CE
:100A900090914901A0914A01B0914B01809344018A
:100AA00090934501A0934601B093470180912A019C
:100AB000809329018EEE95E89DBD8CBD0F900F901F
:100AC0000F900F90DF91CF91FF91EF91BF91AF9178
:100AD0009F918F917F916F915F914F913F912F9156
:100AE0000F900FBE0F901F901895CF93DF9300D0FB
:100AF00000D0CDB7DEB784E090E0DED9462F572F87
:100B0000BC0149835A836B837C839A01AC01B90190
:100B100074D8882321F019821A821B821C82898151
:100B20009A81AB81BC818093480190934901A09345
:100B30004A01B0934B0180E090E0BED9462F572F79
:100B4000BC0149835A836B837C839A01AC01B90150
:100B500054D8882321F019821A821B821C82898131
:100B60009A81AB81BC818093300190933101A09335
:100B70003201B093330188E090E09ED9462F572F81
:100B8000BC0149835A836B837C839A01AC01B90110
:100B900034D8882321F019821A821B821C82898111
:100BA0009A81AB81BC8180933C0190933D01A093DD
:100BB0003E01B0933F018DE090E076D9809327010C
:100BC0008CE090E071D98093280180E190E074D9A5
:100BD000AFD6462F572FBC0149835A836B837C8342
:100BE0009A01AC01B90109D8882321F019821A822F
:100BF0001B821C8289819A81AB81BC818093100108
:100C000090931101A0931201B09313018EE090E034
:100C100058D990931501809314010F900F900F9065
:100C20000F90DF91CF910895C4986623A9F0C39ADD
:100C300027E030E090E0AC01022E02C055954795C8
:100C40000A94E2F740FF0AC0C29AC19AC1982150A3
:100C5000310988F7C49A0895C398EACFC298F5CFAE
:100C600060E0E2CF80E8FCDF80E4FADF109244032A
:100C700010924503ECE4F1E088EF91E0DF019C0184
:100C80001D9221503040E1F70895811102C084E2A5
:100C9000E7CF80E2FDCF962F969596959695E82F13
:100CA000F0E084E5989FE00DF11D1124E45BFE4F18
:100CB0002081677081E090E001C0880F6A95EAF7B3
:100CC000442319F0822B8083089580958223FBCFE3
:100CD000BF92CF92DF92EF92FF920F931F93CF9329
:100CE000DF93C62F25E0629F8001112497E0699F62
:100CF00070011124082E000C990B8097289F600129
:100D0000299FD00C1124D0E0D017110609F04CC057
:100D1000809144038F5F9C2F990F990F9C0F890F2F
:100D200080934403843558F0809145031092440326
:100D30008F5F97E0C99F800D1124809345038091B8
:100D40004503803320F01092440310924503DF9155
:100D5000CF911F910F91FF90EF90DF90CF90BF90B8
:100D600008958D2F6C2FAFD4F601E80FF11DE855D3
:100D7000FF4FE4913B0D2D0FF0E08B2DA4D402C06A
:100D8000F595E7958A95E2F741E0E0FF40E0632FB3
:100D9000822F81DFB3943091450320914403BE1428
:100DA0001F04F9F6DF5FB0CFB12CF5CF1F93CF93BF
:100DB000DF93162FEC018991811104C0DF91CF914F
:100DC0001F910895612F84DFF6CF809344036093D1
:100DD00045030895CF93DF93BC9ABD9ABB9ABA9A04
:100DE000B99AC59AC49A8FE19EE40197F1F700C0C1
:100DF0000000C5989FE725EB81E09150204080409E
:100E0000E1F700C00000C59AC49881E229DF83E1C0
:100E100027DF86E025DF82EC23DF80E221DF89E027
:100E20001FDF80E81DDF80E41BDFC8EFD1E061E059
:100E300080E0FADE2197D9F788E012DF8CE0DF91BD
:100E4000CF910ECFCF93DF9380E80ADF80E408DFF5
:100E5000CCE4D1E061E08991E7DE83E0C434D807D7
:100E6000C9F7DF91CF910895CF93DF939B01FC01E8
:100E7000DC01A60FB71F90E080E0215031098217F6
:100E800093071CF0DF91CF91089541915E91EF019E
:100E9000219758834C930196F0CFAF92BF92CF9297
:100EA000DF92EF92FF920F931F93CF93DF937B011B
:100EB0005A01FB01D0E0C0E02AE030E0009759F58C
:100EC00085010C1B1D0B6801AC16BD0614F4D12C5A
:100ED000C12CA60160E370E0C7018C0F9D1FAAD74B
:100EE000AC16BD0614F410E000E00C0F1D1FCC0D75
:100EF000DD1DCE0DDF1DB801C701B6DF1882C801A8
:100F0000DF91CF911F910F91FF90EF90DF90CF90E5
:100F1000BF90AF9008952196B901E1D3805D819390
:100F2000CB01CCCF2F923F924F925F926F927F92E4
:100F30008F929F92AF92BF92CF92DF92EF92FF92E9
:100F40000F931F93CF93DF9300D000D000D0CDB785
:100F5000DEB71B012C015A01890169833A828B8318
:100F60005C8269817A818B819C81B1D46B0150E074
:100F700040E0B501C60191DF8D839E830115110507
:100F800009F46CC0ED81FE81EA0DFB1D8EE28083C9
:100F9000C801012E000CAA0BBB0B89839A83AB837B
:100FA000BC83BC01CD01C6D49B01AC0160E070E004
:100FB00080E291E4D6D53B014C01C601DD0CAA0BC1
:100FC000BB0B89839A83AB83BC83BC01CD01B2D4B4
:100FD0009B01AC0129823A824B825C8269817A81D1
:100FE0008B819C81A3D3AD81BE811196AA0DBB1DBF
:100FF000BE83AD839B01AC0169827A828B829C8225
:1010000069817A818B819C8149D569837A838B83BD
:101010009C8369817A818B819C8159D4362F272FBB
:10102000A8016D817E81832F922F26960FB6F894AA
:10103000DEBF0FBECDBFDF91CF911F910F91FF900B
:10104000EF90DF90CF90BF90AF909F908F907F9068
:101050006F905F904F903F902F901FCF26960FB6C6
:10106000F894DEBF0FBECDBFDF91CF911F910F91DE
:10107000FF90EF90DF90CF90BF90AF909F908F90B8
:101080007F906F905F904F903F902F900895CF93F7
:10109000DF9300D000D0CDB7DEB78FB7F8942091A2
:1010A0004E0330914F0340915003509151032983D7
:1010B0003A834B835C838FBF789469817A818B817B
:1010C0009C810F900F900F900F90DF91CF9108951A
:1010D0001F921FB61F9211242F933F938F939F93BC
:1010E000AF93BF9380914E0390914F03A091500313
:1010F000B09151033091560326E0230F2D3750F560
:101100000296A11DB11D2093560380934E03909328
:101110004F03A0935003B0935103809152039091D9
:101120005303A0915403B09155030196A11DB11D25
:101130008093520390935303A0935403B0935503A9
:10114000BF91AF919F918F913F912F911F901FBEA3
:101150001F90189529E8230F0396A11DB11DD3CF29
:10116000CDB7DEB7AC970FB6F894DEBF0FBECDBFDC
:1011700081B3837781BB8CE882BB86E085BF80EC3E
:101180008BBF1FBC83E08EBD2EEE35E83DBD2CBD70
:1011900083BF12BE85E089BFE0916D00F0916E00C3
:1011A00009957894A12CB12CE0907900F0907A0008
:1011B000009177001091780080907D0090907E00E3
:1011C0009E012F5F3F4F690198A68FA29AA689A61C
:1011D0009CA68BA6340140917B0050917C005EA3BD
:1011E0004DA320906F003090700087991AC0A11015
:1011F00018C05EE05B1598F0B3948B2D806882BBBD
:10120000809160008F5F80936000809160008730E4
:1012100018F081E080936000AA24A3940AC0B12C46
:10122000ECCF879B06C0AA2021F082B3805882BBF6
:10123000A12C80916000843009F49DC128F5823092
:1012400009F4EBC0833009F446C1813009F471C060
:1012500061E081E0F701099561E088EF90E0F80135
:10126000099569E081E0F701099561E085E091E089
:10127000F8010995809160004AE0BE01675E7F4FEA
:1012800090E0DFD561E0BBC0853009F49CC18630B9
:10129000F9F6209144013091450140914601509169
:1012A000470129A33AA34BA35CA322E030E0A601A7
:1012B00069A17AA18BA19CA1EFA1F8A5099567E08E
:1012C00081E0F70109952091440130914501409159
:1012D00046015091470129A33AA34BA35CA320E008
:1012E00030E0A90169A17AA18BA19CA184D262E01E
:1012F00018160CF4E6C185EB90E0F80109956BE057
:1013000088E4F701099561E083EE90E0F801099522
:101310006EE182E1F701099561E086EE90E0F80167
:10132000099567E282E1F701099561E08FEE90E0AF
:1013300066C02091340130913501409136015091C1
:10134000370129A33AA34BA35CA321E030E0A60117
:1013500069A17AA18BA19CA1F301099567E081E0C5
:10136000F701099520913401309135014091360102
:101370005091370129A33AA34BA35CA320E030E0AE
:1013800046EC52E469A17AA18BA19CA183D31816E3
:10139000A4F08091340190913501A0913601B09173
:1013A000370189A39AA3ABA3BCA320E030E0A90135
:1013B000BC01CD0120D2181654F162E08FE790E015
:1013C000F80109956BE086E3F701099580912A0100
:1013D00061E08430F8F084E890E0F80109956EE16E
:1013E00086E0F701099561E08EE890E0F801099543
:1013F00067E283E0F701099561E08BE990E0F8018D
:101400000995EDA1FEA10995F1010995EECE62E0E5
:10141000C601D6CF8AE890E0E0CF2091300130912C
:101420003101409132015091330129A33AA34BA3DA
:101430005CA321E030E0A60169A17AA18BA19CA167
:10144000E9A5FAA5099567E081E0F70109952091E2
:10145000300130913101409132015091330129A383
:101460003AA34BA35CA320E030E046EC52E469A130
:101470007AA18BA19CA10ED31816A4F08091300103
:1014800090913101A0913201B091330189A39AA3C7
:10149000ABA3BCA320E030E0A901BC01CD01ABD1DE
:1014A0001816B4F062E08FE790E0F80109956BE060
:1014B00086E3F701099561E084E890E0F801099579
:1014C0006EE186E0F701099561E088EA90E08ECF51
:1014D00062E0C601EACF80912901282F30E050E078
:1014E00040E029A33AA34BA35CA3CA01B90120D2CF
:1014F00022E030E0A60169A37AA38BA39CA369A193
:101500007AA18BA19CA1EBA5FCA5099567E086E0DB
:10151000F701099580912901811116C062E085EBE0
:1015200090E0F80109956BE086E3F701099561E029
:1015300088EB90E0F80109956EE184E0F7010995E8
:1015400061E08DEB90E05BCF80912901811109C0B2
:1015500080912901882329F062E088E890E0F80171
:101560000995809129014AE0BE01675E7F4F90E0B6
:1015700068D462E0D6CF67E086E0F70109958091F4
:101580002801811116C062E085EB90E0F801099511
:101590006BE086E3F701099561E088EB90E0F801E4
:1015A00009956EE184E0F701099561E08BEC90E02C
:1015B00026CF809128014AE0BE01675E7F4F90E010
:1015C00040D462E0E3CF20913C0130913D01409155
:1015D0003E0150913F0129A33AA34BA35CA322E013
:1015E00030E0A60169A17AA18BA19CA1F401099523
:1015F00067E081E0F701099520913C0130913D01C0
:1016000040913E0150913F0129A33AA34BA35CA313
:1016100020E030E0A90169A17AA18BA19CA1EBD0C7
:101620005C2C4D2C1816B4F062E08FE790E0F801C6
:1016300009956BE088E4F701099561E081EE90E09F
:10164000F80109956EE18FE0F701099561E089EDF8
:1016500090E0D5CE20913C0130913D0140913E017A
:1016600050913F0129A33AA34BA35CA320E030E0B3
:1016700040E85FE369A17AA18BA19CA1BCD087FF60
:101680001CC080913C0190913D01A0913E01B09120
:101690003F0189A39AA3ABA3BCA320E030E0A9013A
:1016A000BC01CD01F7D1181644F462E088E890E05F
:1016B000F801099562E0C601BACF62E0852D942D4C
:1016C000B6CFC6011ACE991B79E004C0991F9617B0
:1016D00008F0961B881F7A95C9F78095089597FBA7
:1016E000072E16F4009406D077FD08D00BD007FC27
:1016F00005D03EF4909581959F4F08957095619522
:101700007F4F0895AA1BBB1B51E107C0AA1FBB1F37
:10171000A617B70710F0A61BB70B881F991F5A957D
:10172000A9F780959095BC01CD0108955058BB272D
:10173000AA270ED075C166D130F06BD120F031F4FC
:101740009F3F11F41EF45BC10EF4E095E7FB51C11D
:10175000E92F77D180F3BA176207730784079507DB
:1017600018F071F49EF58FC10EF4E0950B2EBA2F90
:10177000A02D0B01B90190010C01CA01A001112497
:10178000FF27591B99F0593F50F4503E68F11A1643
:10179000F040A22F232F342F4427585FF3CF4695D4
:1017A00037952795A795F0405395C9F77EF41F16F6
:1017B000BA0B620B730B840BBAF09150A1F0FF0FC0
:1017C000BB1F661F771F881FC2F70EC0BA0F621FAC
:1017D000731F841F48F4879577956795B795F7959C
:1017E0009E3F08F0B3CF9395880F08F09927EE0F2E
:1017F000979587950895D9D008F481E008950CD085
:101800000FC107D140F0FED030F021F45F3F19F056
:10181000F0C0511139C1F3C014D198F39923C9F321
:101820005523B1F3951B550BBB27AA2762177307E6
:10183000840738F09F5F5F4F220F331F441FAA1F9A
:10184000A9F333D00E2E3AF0E0E830D0915050405A
:10185000E695001CCAF729D0FE2F27D0660F771F08
:10186000881FBB1F261737074807AB07B0E809F0EA
:10187000BB0B802DBF01FF2793585F4F2AF09E3F7F
:10188000510568F0B6C000C15F3FECF3983EDCF351
:10189000869577956795B795F7959F5FC9F7880FF8
:1018A000911D9695879597F90895E1E0660F771F4A
:1018B000881FBB1F621773078407BA0720F0621BDB
:1018C000730B840BBA0BEE1F88F7E095089504D0D4
:1018D0006894B111D9C00895BCD088F09F5790F09A
:1018E000B92F9927B751A0F0D1F0660F771F881F45
:1018F000991F1AF0BA95C9F712C0B13081F0C3D060
:10190000B1E00895C0C0672F782F8827B85F39F0FD
:10191000B93FCCF3869577956795B395D9F73EF4A3
:1019200090958095709561957F4F8F4F9F4F08954B
:10193000E89409C097FB3EF4909580957095619569
:101940007F4F8F4F9F4F9923A9F0F92F96E9BB271F
:101950009395F695879577956795B795F111F8CF9B
:10196000FAF4BB0F11F460FF1BC06F5F7F4F8F4F06
:101970009F4F16C0882311F096E911C0772321F0FC
:101980009EE8872F762F05C0662371F096E8862F94
:1019900070E060E02AF09A95660F771F881FDAF7EB
:1019A000880F9695879597F90895990F0008550F18
:1019B000AA0BE0E8FEEF16161706E807F907C0F0D5
:1019C00012161306E407F50798F0621B730B840BDD
:1019D000950B39F40A2661F0232B242B252B21F4B7
:1019E00008950A2609F4A140A6958FEF811D811D57
:1019F000089597F99F6780E870E060E008959FEF91
:101A000080EC089500240A94161617061806090695
:101A1000089500240A941216130614060506089564
:101A2000092E0394000C11F4882352F0BB0F40F4EC
:101A3000BF2B11F460FF04C06F5F7F4F8F4F9F4F2C
:101A4000089557FD9058440F551F59F05F3F71F0AE
:101A50004795880F97FB991F61F09F3F79F0879515
:101A60000895121613061406551FF2CF4695F1DF9E
:101A700008C0161617061806991FF1CF869571052E
:101A8000610508940895E894BB2766277727CB0162
:101A900097F908958ADF08F48FEF08950BD0C0CF2F
:101AA000B1DF28F0B6DF18F0952309F0A2CFA7CF59
:101AB0001124EACFC6DFA0F3959FD1F3950F50E034
:101AC000551F629FF001729FBB27F00DB11D639FF0
:101AD000AA27F00DB11DAA1F649F6627B00DA11D96
:101AE000661F829F2227B00DA11D621F739FB00D3C
:101AF000A11D621F839FA00D611D221F749F3327AC
:101B0000A00D611D231F849F600D211D822F762F44
:101B10006A2F11249F5750408AF0E1F088234AF041
:101B2000EE0FFF1FBB1F661F771F881F915050408D
:101B3000A9F79E3F510570F05CCFA6CF5F3FECF355
:101B4000983EDCF3869577956795B795F795E79579
:101B50009F5FC1F7FE2B880F911D9695879597F98A
:101B60000895FA01EE0FFF1F30962105310599F116
:101B70006115710561F48038BFE39B0749F16894F2
:101B80009038810561F08038BFEF9B0741F09923C1
:101B900042F5FF3FE1053105210511F1E894089474
:101BA000E795D901AA2329F4AB2FBE2FF85FD0F314
:101BB00010C0FF5F70F4A695E0F7F73950F019F008
:101BC000FF3A38F49F779F930CD00F9007FC905802
:101BD00008953EF014CF60E070E080E89FE3089540
:101BE0004FE79F775F934F933F932F93A2D02F910F
:101BF0003F914F915F9152DF09C0D7DE880B990B5F
:101C0000089519F40EF0F5CE3ECFF9CE22DFC8F3D9
:101C10009638C0F707F80F92E8942BE33AEA48EBBE
:101C20005FE74ADF0F920F920F924DB75EB70F92A8
:101C3000C0D0E6E2F0E016D04F915F91EF91FF91B6
:101C4000E595EE1FFF1F49F0FE57E0684427EE0FB1
:101C5000441FFA95E1F74195550B32D00F9007FEDE
:101C600026C00895DF93CF931F930F93FF92EF92B7
:101C7000DF927B018C01689405C0DA2EEF011ADF38
:101C8000FE01E894A5912591359145915591AEF3CA
:101C9000EF015EDDFE019701A801DA9479F7DF908C
:101CA000EF90FF900F911F91CF91DF9108959B01CD
:101CB000AC0160E070E080E89FE3A1CD9ACEACC0BB
:101CC000C8DEE8F39923D9F3940F511DBBF391506B
:101CD000504094F059F0882332F0660F771F881F28
:101CE00091505040C1F79E3F510544F7880F911D18
:101CF0009695879597F908955F3FACF0983E9CF0D4
:101D0000BB27869577956795B79508F4B16093954D
:101D1000C1F7BB0F58F711F460FFE8CF6F5F7F4F3B
:101D20008F4F9F4FE3CFB0CE0EF076C068CE689451
:101D300060CE8FDEC8F39923D1F3C6F3DF93CF9340
:101D40001F930F93FF92C92FDD2788232AF0219735
:101D5000660F771F881FDAF720E030E040E85FEB7E
:101D60009FE3883920F0803E30F021968F77DFDCCA
:101D7000EEE4F0E003C0DBDCEBE7F0E073DF8B01C7
:101D8000BE01EC01FB2E6F5771097595771F880B0B
:101D9000990BD0DD28E132E741E35FE38BDEAF2D25
:101DA0009801AE01FF900F911F91CF91DF91D0DC90
:101DB00037CEFA01DC01AA0FBB1F9B01AC01BF5754
:101DC00028F422273327442750781FC0B75188F4BE
:101DD000AB2F0024469537952795011CA395D2F388
:101DE000002069F0220F331F441FB395DAF30DD0A2
:101DF0009DCC61307105A0E88A07B94630F49B019B
:101E0000AC016627772788279078309621F02083C9
:101E100031834283538308959F3F31F0915020F4E2
:101E2000879577956795B795880F911D96958795B6
:101E300097F90895DC0101C06D9341505040E0F7DF
:101E40000895BB274A3031F4992322F4BDE29095DE
:101E500081959F4F01C0BB27FB015527AA27880FFB
:101E6000991FAA1FA41710F0A41B83955051B9F70E
:101E7000A05DAA3308F0A95DA193009779F7B1118D
:101E8000B1931192CB0100C0DC01FC01672F71916D
:101E90007723E1F7329704C07C916D937083629150
:101EA000AE17BF07C8F30895E199FECF9FBB8EBB65
:101EB000E09A99278DB30895A6E1B0E044E050E0A0
:101EC00024C0A8E1B0E042E050E01FC0262FE19915
:101ED000FECF9FBB8EBBE09A01970DB2021631F088
:101EE0002DBB0FB6F894E29AE19A0FBE08950396BF
:101EF000272FEDDFEBDF252FEADF242FE8CF019638
:101F0000272FE5DFE3CFDC01CB01FC01E199FECF18
:101F100006C0FFBBEEBBE09A31960DB20D92415068
:0A1F20005040B8F70895F894FFCF81
:101F2A00010000884269884F3BB4168F38EA0632AE
:101F3A000645064B066806D606E506220792072DD1
:101F4A002D2E2D004C2F313030004C2F4800494E99
:101F5A005354414E54204655454C0020434F4E534E
:101F6A00554D5054494F4E00415645524147452020
:101F7A004655454C002D2D004B4D2F4800435552D8
:101F8A0052454E542053504545440041564552410E
:101F9A00474520535045454400555345442046552E
:101FAA00454C004B4D0054524156454C4544004463
:101FBA00495354414E4345004D4F4445204E4F54DA
:0C1FCA0020534554004D4F44453A200080
:00000001FF
