:10000000C6C024C88BC8DEC0DDC0DCC0DBC0DAC01F
:100010001CC51ECBD7C0D6C0D5C0D4C0D3C0D2C09B
:10002000D1C0D0C0CFC007634236B79BD8A71A391A
:10003000685618AEBAAB558C1D3CB7CC5763BD6D36
:10004000EDFD753EF6177231BF000000803F0800DD
:100050000000BE922449123EABAAAA2ABECDCCCC47
:100060004C3E00000080BEABAAAAAA3E00000000E1
:10007000BF000000803F0000000000084178D3BBB3
:100080004387D1133D190E3CC3BD4282AD2B3E6860
:10009000EC8276BED98FE1A93E4C80EFFFBE01C451
:1000A000FF7F3F00000000000000000000FFC1D5FE
:1000B000C1FE0C020000005C222A221D3EC1C9C9FB
:1000C0003E0808080808492A1C080000050300002B
:1000D000001C2241000041221C0000000205020811
:1000E000083E0808005030000008080808080060B2
:1000F00060000020100804023E5149453E00427F46
:10010000400042615149462141454B311814127F4C
:100110001027454545393C4A4949300171090503D5
:100120003649494936064949291E000000000000A9
:1001300000000000000000000000000000000000BF
:10014000000000000000000000000000007E11110F
:10015000117E7F494949363E414141227F4141223A
:100160001C7F494949417F090909013E4149497AB2
:100170007F0808087F00417F41002040413F017F08
:10018000081422417F404040407F020C027F11242E
:100190001FBECFE5D4E0DEBFCDBF10E0A0E6B0E0EB
:1001A000E8EAFFE102C005900D92A83BB107D9F73C
:1001B00023E0A8EBB0E001C01D92A030B207E1F748
:1001C0003AD0F0CE1DCFF8944091E9005091EA006A
:1001D0006091EB007091EC0084E090E0CBDE409108
:1001E000DD005091DE006091DF007091E00080E062
:1001F00090E0C0DE4091D9005091DA006091DB00C0
:100200007091DC0088E090E0B5DE6091C60084E18A
:1002100090E09FDE4091ED005091EE006091EF0084
:100220007091F0008CE090E0A5DE1092CB0010926F
:10023000CC0078940895CDB7DEB764970FB6F894E4
:10024000DEBF0FBECDBF84B38D7C84BB86E886B98C
:1002500085EC87B981B3837781BB8CE882BB86E06C
:1002600085BF80EC8BBF1FBC83E08EBD2EEE35E8D2
:100270003DBD2CBD83BF12BE85E089BF80E190E00B
:1002800063DE6093F1007093F2008093F30090932B
:10029000F40084E090E058DE462F572FBC01498BD4
:1002A0005A8B6B8B7C8B9A01AC01B901BFDC882324
:1002B00021F0198A1A8A1B8A1C8A29893A894B8952
:1002C0005C892093E9003093EA004093EB0050935F
:1002D000EC0080E090E038DE462F572FBC01498BC0
:1002E0005A8B6B8B7C8B9A01AC01B9019FDC882304
:1002F00021F0198A1A8A1B8A1C8A89899A89AB89F2
:10030000BC898093DD009093DE00A093DF00B09362
:10031000E00088E090E018DE462F572FBC01498BA3
:100320005A8B6B8B7C8B9A01AC01B9017FDC8823E3
:1003300021F0198A1A8A1B8A1C8A29893A894B89D1
:100340005C892093D9003093DA004093DB0050930E
:10035000DC0084E190E0F0DD8F3F09F480E08093E1
:10036000C6008CE090E0F0DD462F572FBC01498B92
:100370005A8B6B8B7C8B9A01AC01B90157DC8823BB
:1003800021F0198A1A8A1B8A1C8A89899A89AB8961
:10039000BC898093ED009093EE00A093EF00B093A2
:1003A000F000E0916000F091610009957894C12C13
:1003B00093E0D92EE0906C00F0906D0000916A00FF
:1003C00010916B00609068007090690080906E00E2
:1003D00090906F00A0906200B090630087990EC16A
:1003E000C1100CC19FE892BBDA94CC24C394D11005
:1003F00002C083E0D82E2091D5003091D6004091E4
:10040000D7005091D800298B3A8B4B8B5C8B20E026
:1004100030E0A90169897A898B899C8905DA1816E7
:100420003CF1369A3699FECF84B195B19C0150E0EB
:1004300040E0298B3A8B4B8B5C8BCA01B90191DA76
:1004400020E030E040E751E4698B7A8B8B8B9C8B0A
:1004500069897A898B899C89EBD9462F572FBC01F2
:100460004093D5005093D6006093D7007093D80086
:100470008091C900811170C232E0D31609F4CFC057
:1004800043E0D41241C161E081E0F701099561E0E8
:1004900080E790E0F80109958091B8009091B9004B
:1004A0004AE0BE01675F7F4FE5DC61E0F801099536
:1004B00061E081E4F701099561E086E790E0F801E9
:1004C000099569E081E0F701099561E08AE790E02C
:1004D000F80109952091E1003091E2004091E3009C
:1004E0005091E400298B3A8B4B8B5C8B21E030E000
:1004F000AE014F5F5F4F69897A898B899C89D2D71A
:1005000061E181E0F70109952091E1003091E2007D
:100510004091E3005091E400298B3A8B4B8B5C8B2C
:1005200020E030E046EC52E469897A898B899C8925
:10053000CADA1816ACF08091E1009091E200A09127
:10054000E300B091E400898B9A8BAB8BBC8B20E0ED
:1005500030E0A901BC01CD0167D918160CF458C0D0
:1005600062E089E890E0F801099566E186E3F70129
:1005700009958091C70061E0863008F44DC08EE88F
:1005800090E0F801099560E281E0F701099561E0EA
:100590008AE790E0F801099568E285E0F70109959E
:1005A00061E088E990E0F80109952091DD00309143
:1005B000DE004091DF005091E000298B3A8B4B8B9D
:1005C0005C8B21E030E0AE014F5F5F4F69897A8933
:1005D0008B899C8967D761E0CE010196F801099566
:1005E00068E286E3F701099561E08EE890E0F801A2
:1005F0000995F4010995F5010995F0CE879BFBCE8D
:10060000CC2009F4F8CE82B3805882BBC12CF3CE43
:1006100062E0CE010196A7CF84E990E0B2CF80914D
:10062000C700282F30E050E040E0298B3A8B4B8BFD
:100630005C8BCA01B90195D922E030E0AE014F5F71
:100640005F4F698B7A8B8B8B9C8B69897A898B89BD
:100650009C8928D767E086E0F70109958091C7005B
:10066000811131C062E086E890E0F80109956BE005
:1006700088E3F701099561E08CE990E0F8010995BC
:1006800060E281E0F701099561E08AE790E0F80116
:10069000099568E285E0F701099561E088E990E055
:1006A000F80109958091C600811124C061E086E8B7
:1006B00090E0F801099568E288E3F701099561E0A7
:1006C0008CE990E094CF8091C700811109C080919E
:1006D000C700882329F062E082E990E0F8010995DB
:1006E0008091C7004AE0BE01675F7F4F90E0C2DBA8
:1006F00062E0BBCF8091C6004AE0BE01675F7F4FDA
:1007000090E0B8DB61E0D5CF2091D9003091DA00DC
:100710004091DB005091DC00298B3A8B4B8B5C8B3A
:1007200022E030E0AE014F5F5F4F69897A898B89A3
:100730009C89B8D661E081E0F701099561E081EA22
:1007400090E0F80109952091D9003091DA004091AC
:10075000DB005091DC00298B3A8B4B8B5C8B20E0CB
:1007600030E0A90169897A898B899C895DD818163E
:100770000CF48BC061E089E890E0F801099561E034
:1007800081E4F701099561E087EA90E0F8010995B5
:1007900069E081E0F701099561E08AE790E0F801FE
:1007A00009952091E9003091EA004091EB005091C9
:1007B000EC00298B3A8B4B8B5C8B21E030E0AE0157
:1007C0004F5F5F4F69897A898B899C896BD661E11C
:1007D00081E0F70109952091E9003091EA0040910C
:1007E000EB005091EC00298B3A8B4B8B5C8B20E01B
:1007F00030E0A90169897A898B899C8915D81816F6
:100800000CF477C062E086E890E0F801099566E1B3
:1008100086E4F701099561E087E790E0F801099522
:100820002091D5003091D6004091D7005091D8004A
:10083000298B3A8B4B8B5C8B30E020E0AE014F5F15
:100840005F4F69897A898B899C892CD660E281E027
:10085000F701099561E08AE790E0F801099568E2FF
:1008600085E0F701099561E08AEA90E0F8010995D1
:1008700061E0CE010196F801099568E286E4F7018E
:10088000099561E088EA90E0B2CE2091D9003091DC
:10089000DA004091DB005091DC00298B3A8B4B8BC6
:1008A0005C8B20E030E040E85FE369897A898B89DE
:1008B0009C89BAD787FF19C08091D9009091DA003E
:1008C000A091DB00B091DC00898B9A8BAB8BBC8B49
:1008D00020E030E0A901BC01CD01F5D818162CF4B8
:1008E00061E082E990E0F801099561E0CE010196AE
:1008F00044CF2091E9003091EA004091EB00509103
:10090000EC00298B3A8B4B8B5C8B20E030E0A9010B
:1009100069897A898B899C89D6D81816CCF48091FC
:10092000E9009091EA00A091EB00B091EC00898B76
:100930009A8BAB8BBC8B20E030E040E85FE3BC01DE
:10094000CD0172D787FF04C062E080E3F30109950F
:1009500062E0CE01019659CFF3E0DF1250C0F89467
:100960002091C80030E0AFEFBFEFD9D6698B7A8B0A
:100970008B8B9C8BF8D71B012C018091C20090912E
:10098000C3009C0150E040E0298B3A8B4B8B5C8B81
:10099000CA01B901E6D79101A201698B7A8B8B8BD1
:1009A0009C8B69897A898B899C89DAD69B01AC01F9
:1009B00060E070E080E291E43BD71B012C01AB01C9
:1009C000BC0180E190E0D6DA61E080EB90E0F801D4
:1009D000099569E080E0F701099528E030E0AE0173
:1009E0004F5F5F4F298A3A8A4B8A5C8A69897A8984
:1009F0008B899C8957D561E0CE010196F8CD78941A
:100A00008091C2009091C3009C0150E040E0298B8E
:100A10003A8B4B8B5C8B2AE0AE01475F5F4F698955
:100A20007A898B899C8930DA61E0F801099569E05F
:100A300080E0F70109958091C8004AE0BE01675F38
:100A40007F4F90E017DA61E0D2CD1F920F920FB680
:100A50000F921124BF92CF92DF92EF92FF920F93E9
:100A60001F932F933F934F935F936F937F938F9336
:100A70009F93AF93BF93EF93FF93CF93DF93CDB744
:100A8000DEB72A97DEBFCDBF8091C4009091C5002C
:100A900001969093C5008093C4008091C00090910E
:100AA000C1008032934058F48091C2009091C300FD
:100AB000892B29F48091CC00813009F484DB80916A
:100AC000CB008E3248F08091C700811105C0809123
:100AD000CC00813009F477DB8799A8C28091CA00E5
:100AE0008F5F8093CA008091CA008C3038F080916B
:100AF000C900811103C081E08093C9008091C400C6
:100B00009091C500049708F46DC28091C200909145
:100B1000C3009C0150E040E029833A834B835C830F
:100B2000CA01B9011ED72091F1003091F200409125
:100B3000F3005091F40069837A838B839C836981ED
:100B40007A818B819C81C3D720E030E041E655E477
:100B500069837A838B839C8369817A818B819C8171
:100B6000B6D769837A838B839C8369817A818B81F1
:100B70009C81CBD66093C7008091CD009091CE0030
:100B8000A091CF00B091D00089839A83AB83BC83BE
:100B900029E638E84FE45BE3BC01CD0198D720E0BB
:100BA00030E041E656E469837A838B839C836981D4
:100BB0007A818B819C818BD7462F572FBC014D8327
:100BC0005E836F8378872091CD003091CE00409175
:100BD000CF005091D00029833A834B835C8329E670
:100BE00038E84FE45BE369817A818B819C816FD720
:100BF00020E030E040E850E469837A838B839C8373
:100C000069817A818B819C8162D78B018A879987E0
:100C10008091C0009091C1009C0150E040E0298388
:100C20003A834B835C83CA01B9019BD620E030E054
:100C30004AE754E469837A838B839C8369817A8150
:100C40008B819C81F5D5462F572FBC014093CD0059
:100C50005093CE006093CF007093D0008091C70076
:100C6000863008F4E6C1B090C70020E030E048ECE0
:100C700052E46D817E818F81988529D76B017C013B
:100C80008B2D90E0B0E0A0E089839A83AB83BC8396
:100C9000BC01CD0168D69B01AC01C982DA82EB822E
:100CA000FC8269817A818B819C81C2D5462F572F26
:100CB000BC014093E1005093E2006093E300709325
:100CC000E4002091E1003091E2004091E300509176
:100CD000E40029833A834B835C8320E030E0A90160
:100CE00069817A818B819C81EED618160CF064C0E4
:100CF0008091E1009091E200A091E300B091E400C6
:100D000089839A83AB83BC8320E030E048EC52E4D3
:100D1000BC01CD0189D587FF4FC02091E100309102
:100D2000E2004091E3005091E400C090D100D090E7
:100D3000D200E090D300F090D40060E070E080E852
:100D40009FE376D5A701960169837A838B839C8381
:100D500069817A818B819C8103D5462F572FBC01F5
:100D60004093D1005093D2006093D3007093D4008D
:100D70002091ED003091EE004091EF005091F00095
:100D800029833A834B835C832091D1003091D20038
:100D90004091D3005091D40069817A818B819C81EC
:100DA00047D5462F572FBC014093DD005093DE00FE
:100DB0006093DF007093E0002091D9003091DA0059
:100DC0004091DB005091DC0009831A839A859B8354
:100DD000A985AC8369817A818B819C81C1D4462F9E
:100DE000572FBC014093D9005093DA006093DB0089
:100DF0007093DC002091D5003091D6004091D7004F
:100E00005091D80029833A834B835C8398014A85AB
:100E1000598569817A818B819C81A1D4462F572F76
:100E2000BC014093D5005093D6006093D7007093D7
:100E3000D8008091E1009091E200A091E300B09190
:100E4000E40089839A83AB83BC8320E030E040E8F0
:100E50005FE3BC01CD0137D618161CF481E0809306
:100E6000CC008091C700863008F4A7C02091D5003F
:100E70003091D6004091D7005091D80029833A8311
:100E80004B835C832091DD003091DE004091DF00D8
:100E90005091E00069817A818B819C81C9D420E0E6
:100EA00030E048EC52E469837A838B839C836981C8
:100EB0007A818B819C810BD669837A838B839C8317
:100EC00069817A818B819C8120D5462F572F509341
:100ED000B9004093B8008091ED009091EE00A09190
:100EE000EF00B091F00089839A83AB83BC8320E04C
:100EF00030E040E85FE3BC01CD0132D4462F572FEC
:100F0000BC014093ED005093EE006093EF007093AE
:100F1000F0008091C700C090E500D090E600E0901E
:100F2000E700F090E800282F30E050E040E029830F
:100F30003A834B835C83CA01B90115D59B01AC018F
:100F400060E070E080E89FE373D4A70196016983B5
:100F50007A838B839C8369817A818B819C8100D485
:100F6000462F572FBC014093E5005093E600609355
:100F7000E7007093E8008091ED009091EE00A09161
:100F8000EF00B091F00089839A83AB83BC832091FA
:100F9000E5003091E6004091E7005091E800BC0187
:100FA000CD0146D469837A838B839C8369817A815E
:100FB0008B819C81AAD46093C6008091CB008F5F07
:100FC0008093CB008091C900811104C01092C300AE
:100FD0001092C2001092C1001092C0001092C50081
:100FE0001092C4008EEE95E89DBD8CBD2A960FB67A
:100FF000F894DEBF0FBECDBFDF91CF91FF91EF918F
:10100000BF91AF919F918F917F916F915F914F9120
:101010003F912F911F910F91FF90EF90DF90CF9014
:10102000BF900F900FBE0F901F9018951092CA009E
:1010300065CD8D819E81AF81B8858093E1009093CD
:10104000E200A093E300B093E400B6CE1F920F92AB
:101050000FB60F9211242F933F934F935F936F938B
:101060007F938F939F93AF93BF93EF93FF93CF9310
:10107000DF9300D000D0CDB7DEB78091C200909151
:10108000C30001969093C3008093C2008091C90071
:10109000882359F08091C2009091C300019629F4F1
:1010A0008091C8008F5F8093C8008091E900909183
:1010B000EA00A091EB00B091EC0089839A83AB83A6
:1010C000BC832091F1003091F2004091F3005091E7
:1010D000F400BC01CD0144D3462F572FBC014093EF
:1010E000E9005093EA006093EB007093EC000F90DE
:1010F0000F900F900F90DF91CF91FF91EF91BF91E3
:10110000AF919F918F917F916F915F914F913F919F
:101110002F910F900FBE0F901F9018951F920F9256
:101120000FB60F9211242F933F934F935F936F93BA
:101130007F938F939F93AF93BF93EF93FF93839985
:1011400018C065D2462F572F5093BD004093BC0066
:10115000FF91EF91BF91AF919F918F917F916F918F
:101160005F914F913F912F910F900FBE0F901F9065
:1011700018954DD2462F572F5093BF004093BE0075
:101180008091BE009091BF002091BC003091BD00C5
:101190004091C0005091C100840F951F821B930B9A
:1011A0009093C1008093C000939AD2CFC4986623D5
:1011B000A9F0C39A27E030E090E0AC01022E02C013
:1011C000559547950A94E2F740FF0AC0C29AC19A22
:1011D000C1982150310988F7C49A0895C398EACF7D
:1011E000C298F5CF60E0E2CF80E8FCDF80E4FADF70
:1011F0001092ED021092EE02E5EFF0E088EF91E040
:10120000DF019C011D9221503040E1F708958111CA
:1012100002C084E2E7CF80E2FDCF962F96959695A7
:101220009695E82FF0E084E5989FE00DF11D1124DC
:10123000EB50FF4F2081677081E090E001C0880F84
:101240006A95EAF7442319F0822B808308958095EC
:101250008223FBCFBF92CF92DF92EF92FF920F9348
:101260001F93CF93DF93C62F25E0629F8001112447
:1012700097E0699F700111248052990B289F6001AB
:10128000299FD00C1124D0E0D017110609F04CC0D2
:101290008091ED028F5F9C2F990F990F9C0F890F02
:1012A0008093ED02843558F08091EE021092ED02A9
:1012B0008F5F97E0C99F800D11248093EE0280918B
:1012C000EE02803320F01092ED021092EE02DF91D8
:1012D000CF911F910F91FF90EF90DF90CF90BF9033
:1012E00008958D2F6C2FFCD1F601E80FF11DE85504
:1012F000FF4FE4913B0D2D0FF0E08B2DF1D102C09B
:10130000F595E7958A95E2F741E0E0FF40E0632F2D
:10131000822F83DFB3943091EE022091ED02BE1450
:101320001F04F9F6DF5FB0CFB12CF5CF1F93CF9339
:10133000DF93162FEC018991811104C0DF91CF91C9
:101340001F910895612F86DFF6CF8093ED026093A1
:10135000EE020895CF93DF93BC9ABD9ABB9ABA9AD6
:10136000B99AC59AC49A8FE19EE40197F1F700C03B
:101370000000C5989FE725EB81E091502040804018
:10138000E1F700C00000C59AC49881E22BDF83E139
:1013900029DF86E027DF82EC25DF80E223DF89E09A
:1013A00021DF80E81FDF80E41DDFC8EFD1E061E0CE
:1013B00080E0FCDE2197D9F788E014DF8CE0DF9134
:1013C000CF9110CFCF93DF9380E80CDF80E40ADF6A
:1013D000C5EFD0E061E08991E9DE82E0CD3ED8073B
:1013E000C9F7DF91CF910895CF93DF939B01FC0163
:1013F000DC01A60FB71F90E080E021503109821771
:1014000093071CF0DF91CF91089541915E91EF0118
:10141000219758834C930196F0CFAF92BF92CF9211
:10142000DF92EF92FF920F931F93CF93DF937B0195
:101430005A01FB01D0E0C0E02AE030E0009759F506
:1014400085010C1B1D0B6801AC16BD0614F4D12CD4
:10145000C12CA60160E370E0C7018C0F9D1F03D56E
:10146000AC16BD0614F410E000E00C0F1D1FCC0DEF
:10147000DD1DCE0DDF1DB801C701B6DF1882C80122
:10148000DF91CF911F910F91FF90EF90DF90CF9060
:10149000BF90AF9008952196B9012ED1805D8193C0
:1014A000CB01CCCF2F923F924F925F926F927F925F
:1014B0008F929F92AF92BF92CF92DF92EF92FF9264
:1014C0000F931F93CF93DF9300D000D000D0CDB700
:1014D000DEB71B012C015A01890169833A828B8393
:1014E0005C8269817A818B819C810AD26B0150E098
:1014F00040E0B501C60191DF8D839E830115110582
:1015000009F46CC0ED81FE81EA0DFB1D8EE2808343
:10151000C801012E000CAA0BBB0B89839A83AB83F5
:10152000BC83BC01CD011FD29B01AC0160E070E027
:1015300080E291E42FD33B014C01C601DD0CAA0BE4
:10154000BB0B89839A83AB83BC83BC01CD010BD2D7
:101550009B01AC0129823A824B825C8269817A814B
:101560008B819C81FCD0AD81BE811196AA0DBB1DE3
:10157000BE83AD839B01AC0169827A828B829C829F
:1015800069817A818B819C81A2D269837A838B83E2
:101590009C8369817A818B819C81B2D1362F272FE0
:1015A000A8016D817E81832F922F26960FB6F89425
:1015B000DEBF0FBECDBFDF91CF911F910F91FF9086
:1015C000EF90DF90CF90BF90AF909F908F907F90E3
:1015D0006F905F904F903F902F901FCF26960FB641
:1015E000F894DEBF0FBECDBFDF91CF911F910F9159
:1015F000FF90EF90DF90CF90BF90AF909F908F9033
:101600007F906F905F904F903F902F900895CF9371
:10161000DF9300D000D0CDB7DEB78FB7F89420911C
:10162000F7023091F8024091F9025091FA022983B1
:101630003A834B835C838FBF789469817A818B81F5
:101640009C810F900F900F900F90DF91CF91089594
:101650001F921FB61F9211242F933F938F939F9336
:10166000AF93BF938091F7029091F802A091F90295
:10167000B091FA023091FF0226E0230F2D3750F58A
:101680000296A11DB11D2093FF028093F702909353
:10169000F802A093F902B093FA028091FB029091B4
:1016A000FC02A091FD02B091FE020196A11DB11DA8
:1016B0008093FB029093FC02A093FD02B093FE0284
:1016C000BF91AF919F918F913F912F911F901FBE1E
:1016D0001F90189529E8230F0396A11DB11DD3CFA4
:1016E000991B79E004C0991F961708F0961B881F74
:1016F0007A95C9F78095089597FB072E16F4009404
:1017000006D077FD08D017D007FC05D03EF49095A1
:1017100081959F4F0895709561957F4F0895A29F81
:10172000B001B39FC001A39F01D0B29F700D811D76
:101730001124911D0895AA1BBB1B51E107C0AA1FCC
:10174000BB1FA617B70710F0A61BB70B881F991F62
:101750005A95A9F780959095BC01CD0108955058F0
:10176000BB27AA270ED075C166D130F06BD120F00F
:1017700031F49F3F11F41EF45BC10EF4E095E7FBDA
:1017800051C1E92F77D180F3BA1762077307840735
:10179000950718F071F49EF58FC10EF4E0950B2EAD
:1017A000BA2FA02D0B01B90190010C01CA01A001B3
:1017B0001124FF27591B99F0593F50F4503E68F10E
:1017C0001A16F040A22F232F342F4427585FF3CF4F
:1017D000469537952795A795F0405395C9F77EF420
:1017E0001F16BA0B620B730B840BBAF09150A1F069
:1017F000FF0FBB1F661F771F881FC2F70EC0BA0FEF
:10180000621F731F841F48F4879577956795B79576
:10181000F7959E3F08F0B3CF9395880F08F099276E
:10182000EE0F979587950895D9D008F481E0089533
:101830000CD00FC107D140F0FED030F021F45F3F53
:1018400019F0F0C0511139C1F3C014D198F39923A4
:10185000C9F35523B1F3951B550BBB27AA27621774
:101860007307840738F09F5F5F4F220F331F441FB9
:10187000AA1FA9F333D00E2E3AF0E0E830D09150F1
:101880005040E695001CCAF729D0FE2F27D0660FDE
:10189000771F881FBB1F261737074807AB07B0E81D
:1018A00009F0BB0B802DBF01FF2793585F4F2AF033
:1018B0009E3F510568F0B6C000C15F3FECF3983E13
:1018C000DCF3869577956795B795F7959F5FC9F790
:1018D000880F911D9695879597F90895E1E0660F19
:1018E000771F881FBB1F621773078407BA0720F092
:1018F000621B730B840BBA0BEE1F88F7E0950895FB
:1019000004D06894B111D9C00895BCD088F09F5715
:1019100090F0B92F9927B751A0F0D1F0660F771F3B
:10192000881F991F1AF0BA95C9F712C0B13081F01B
:10193000C3D0B1E00895C0C0672F782F8827B85F63
:1019400039F0B93FCCF3869577956795B395D9F77C
:101950003EF490958095709561957F4F8F4F9F4F86
:101960000895E89409C097FB3EF490958095709592
:1019700061957F4F8F4F9F4F9923A9F0F92F96E9DB
:10198000BB279395F695879577956795B795F11150
:10199000F8CFFAF4BB0F11F460FF1BC06F5F7F4FED
:1019A0008F4F9F4F16C0882311F096E911C07723FF
:1019B00021F09EE8872F762F05C0662371F096E808
:1019C000862F70E060E02AF09A95660F771F881FD7
:1019D000DAF7880F9695879597F90895990F00087B
:1019E000550FAA0BE0E8FEEF16161706E807F907F1
:1019F000C0F012161306E407F50798F0621B730B8C
:101A0000840B950B39F40A2661F0232B242B252B0C
:101A100021F408950A2609F4A140A6958FEF811DAF
:101A2000811D089597F99F6780E870E060E0089550
:101A30009FEF80EC089500240A94161617061806E6
:101A40000906089500240A941216130614060506C2
:101A50000895092E0394000C11F4882352F0BB0F53
:101A600040F4BF2B11F460FF04C06F5F7F4F8F4FB6
:101A70009F4F089557FD9058440F551F59F05F3FF1
:101A800071F04795880F97FB991F61F09F3F79F0A0
:101A900087950895121613061406551FF2CF469522
:101AA000F1DF08C0161617061806991FF1CF8695A4
:101AB0007105610508940895E894BB276627772788
:101AC000CB0197F908958ADF08F48FEF08950BD0C2
:101AD000C0CFB1DF28F0B6DF18F0952309F0A2CF10
:101AE000A7CF1124EACFC6DFA0F3959FD1F3950FBE
:101AF00050E0551F629FF001729FBB27F00DB11D92
:101B0000639FAA27F00DB11DAA1F649F6627B00D21
:101B1000A11D661F829F2227B00DA11D621F739F0A
:101B2000B00DA11D621F839FA00D611D221F749F18
:101B30003327A00D611D231F849F600D211D822F5F
:101B4000762F6A2F11249F5750408AF0E1F08823A6
:101B50004AF0EE0FFF1FBB1F661F771F881F9150B3
:101B60005040A9F79E3F510570F05CCFA6CF5F3F74
:101B7000ECF3983EDCF3869577956795B795F795E6
:101B8000E7959F5FC1F7FE2B880F911D969587956E
:101B900097F90895FA01EE0FFF1F309621053105E0
:101BA00099F16115710561F48038BFE39B0749F134
:101BB00068949038810561F08038BFEF9B0741F051
:101BC000992342F5FF3FE1053105210511F1E89424
:101BD0000894E795D901AA2329F4AB2FBE2FF85F0B
:101BE000D0F310C0FF5F70F4A695E0F7F73950F01E
:101BF00019F0FF3A38F49F779F930CD00F9007FCB1
:101C0000905808953EF014CF60E070E080E89FE3C4
:101C100008954FE79F775F934F933F932F93A2D001
:101C20002F913F914F915F9152DF09C0D7DE880B12
:101C3000990B089519F40EF0F5CE3ECFF9CE22DFC0
:101C4000C8F39638C0F707F80F92E8942BE33AEA06
:101C500048EB5FE74ADF0F920F920F924DB75EB7E6
:101C60000F92C0D0E6E2F0E016D04F915F91EF9175
:101C7000FF91E595EE1FFF1F49F0FE57E0684427EE
:101C8000EE0F441FFA95E1F74195550B32D00F90B6
:101C900007FE26C00895DF93CF931F930F93FF9203
:101CA000EF92DF927B018C01689405C0DA2EEF0180
:101CB0001ADFFE01E894A591259135914591559142
:101CC000AEF3EF015EDDFE019701A801DA9479F72A
:101CD000DF90EF90FF900F911F91CF91DF910895CA
:101CE0009B01AC0160E070E080E89FE3A1CD9ACE5B
:101CF000ACC0C8DEE8F39923D9F3940F511DBBF3B0
:101D00009150504094F059F0882332F0660F771FBD
:101D1000881F91505040C1F79E3F510544F7880FEE
:101D2000911D9695879597F908955F3FACF0983E81
:101D30009CF0BB27869577956795B79508F4B160B9
:101D40009395C1F7BB0F58F711F460FFE8CF6F5FB1
:101D50007F4F8F4F9F4FE3CFB0CE0EF076C068CE4F
:101D6000689460CE8FDEC8F39923D1F3C6F3DF9376
:101D7000CF931F930F93FF92C92FDD2788232AF05B
:101D80002197660F771F881FDAF720E030E040E8E0
:101D90005FEB9FE3883920F0803E30F021968F770B
:101DA000DFDCEEE4F0E003C0DBDCEBE7F0E073DF68
:101DB0008B01BE01EC01FB2E6F5771097595771FE2
:101DC000880B990BD0DD28E132E741E35FE38BDE3E
:101DD000AF2D9801AE01FF900F911F91CF91DF9130
:101DE000D0DC37CEFA01DC01AA0FBB1F9B01AC018E
:101DF000BF5728F422273327442750781FC0B751F4
:101E000088F4AB2F0024469537952795011CA395A0
:101E1000D2F3002069F0220F331F441FB395DAF389
:101E20000DD09DCC61307105A0E88A07B94630F429
:101E30009B01AC016627772788279078309621F0A0
:101E4000208331834283538308959F3F31F0915023
:101E500020F4879577956795B795880F911D96958E
:101E6000879597F90895DC0101C06D93415050406A
:101E7000E0F70895BB274A3031F4992322F4BDE2FC
:101E8000909581959F4F30C0BB272A3051F49923FC
:101E900042F4BDE290958095709561957F4F8F4F8C
:101EA0009F4F01C0BB27FA01A62F6217710581055C
:101EB0009105330B30FB66F0AA27660F771F881F4A
:101EC000991FAA1FA21710F0A21B63953850A9F7FB
:101ED000A05DAA3308F0A95DA19336F7B111B193C3
:101EE0001082CA0119C0BB27FB015527AA27880FFA
:101EF000991FAA1FA41710F0A41B83955051B9F77E
:101F0000A05DAA3308F0A95DA193009779F7B111FC
:101F1000B1931192CB0100C0DC01FC01672F7191DC
:101F20007723E1F7329704C07C916D9370836291BF
:101F3000AE17BF07C8F30895E199FECF9FBB8EBBD4
:101F4000E09A99278DB30895A6E1B0E044E050E00F
:101F50001BC0262FE199FECF9FBB8EBBE09A019755
:101F60000DB2021631F02DBB0FB6F894E29AE19A49
:101F70000FBE08950396272FEDDFEBDF252FEADF55
:101F8000242FE8CFDC01CB01FC01E199FECF06C094
:101F9000FFBBEEBBE09A31960DB20D92415050401E
:081FA000B8F70895F894FFCF93
:101FA800AA09F40807090D092A099609A509E209E9
:101FB800242526202000204B4D002D2D2D2D2D2DA4
:101FC8002D2D2D2D2D2D2D2D002D2D2E2D004C2F71
:101FD800313030004C2F4800232020004B4D2F4833
:101FE80000252624202000204C002122202020002B
:081FF8004C2F2F32313337006A
:00000001FF
