:10000000E9C00FC872C801C100C1FFC0FEC0FDC079
:10001000E9C405CBFAC0F9C0F8C0F7C0F6C0F5C016
:10002000F4C0F3C0F2C007634236B79BD8A71A39B1
:10003000685618AEBAAB558C1D3CB7CC5763BD6D36
:10004000EDFD753EF6177231BF000000803F0800DD
:100050000000BE922449123EABAAAA2ABECDCCCC47
:100060004C3E00000080BEABAAAAAA3E00000000E1
:10007000BF000000803F0000000000084178D3BBB3
:100080004387D1133D190E3CC3BD4282AD2B3E6860
:10009000EC8276BED98FE1A93E4C80EFFFBE01C451
:1000A000FF7F3F00000000000000000000FFC1D5FE
:1000B000C1FE0C020000005C222A221D3EC1C9C9FB
:1000C0003E0808080808492A1C080000050300002B
:1000D000001C2241000041221C0000000205020811
:1000E000083E0808005030000008080808080060B2
:1000F00060000020100804023E5149453E00427F46
:10010000400042615149462141454B311814127F4C
:100110001027454545393C4A4949300171090503D5
:100120003649494936064949291E000000000000A9
:1001300000000000000000000000000000000000BF
:10014000000000000000000000000000007E11110F
:10015000117E7F494949363E414141227F4141223A
:100160001C7F494949417F090909013E4149497AB2
:100170007F0808087F00417F41002040413F017F08
:10018000081422417F404040407F020C027F7F04E0
:1001900008107F3E4141413E7F090909063E415119
:1001A000215E7F09192946464949493101017F01EC
:1001B000013F4040403F1F2040201F3F4038403F0C
:1001C0006314081463070870080761514945430028
:1001D0000000000011241FBECFE5D4E0DEBFCDBF7C
:1001E00010E0A0E6B0E0E6E7FFE102C005900D9266
:1001F000A03CB107D9F723E0A0ECB0E001C01D920C
:10020000A130B207E1F73AD0B4CEFACEF8944091DB
:10021000EE005091EF006091F0007091F10084E0E9
:1002200090E08FDE4091E2005091E3006091E400A5
:100230007091E50080E090E084DE4091DE00509116
:10024000DF006091E0007091E10088E090E079DEED
:100250006091CF0084E190E063DE4091F200509124
:10026000F3006091F4007091F5008CE090E069DE9D
:100270001092D4001092D50078940895CDB7DEB7CF
:1002800066970FB6F894DEBF0FBECDBF84B38D7CEA
:1002900084BB86E886B985EC87B981B3837781BB57
:1002A0008CE882BB86E085BF80EC8BBF1FBC83E0FF
:1002B0008EBD2EEE35E83DBD2CBD83BF12BE85E060
:1002C00089BF84E090E027DE462F572FBC01498B81
:1002D0005A8B6B8B7C8B9A01AC01B9018EDC882325
:1002E00021F0198A1A8A1B8A1C8A29893A894B8922
:1002F0005C892093EE003093EF004093F000509320
:10030000F10080E090E007DE462F572FBC01498BBB
:100310005A8B6B8B7C8B9A01AC01B9016EDC882304
:1003200021F0198A1A8A1B8A1C8A89899A89AB89C1
:10033000BC898093E2009093E300A093E400B09323
:10034000E50088E090E0E7DD462F572FBC01498BA0
:100350005A8B6B8B7C8B9A01AC01B9014EDC8823E4
:1003600021F0198A1A8A1B8A1C8A29893A894B89A1
:100370005C892093DE003093DF004093E0005093CF
:10038000E10084E190E0BFDD8F3F09F480E08093DD
:10039000CF008CE090E0BFDD462F572FBC01498B8A
:1003A0005A8B6B8B7C8B9A01AC01B90126DC8823BC
:1003B00021F0198A1A8A1B8A1C8A89899A89AB8931
:1003C000BC898093F2009093F300A093F400B09363
:1003D000F500E0916000F091610009957894C12CDE
:1003E00093E0D92E00916A0010916B00A0906C00F0
:1003F000B0906D0075016090680070906900809009
:100400006E0090906F00A0916200B0916300BE8B6F
:10041000AD8B8799D2C0C110D0C0BFE8B2BBDA940F
:10042000CC24C394D11002C083E0D82E8091D20096
:10043000811161C2E2E0DE1609F4D0C0F3E0DF1200
:1004400042C161E081E0F701099561E080E790E059
:10045000F80109958091C0009091C1004AE0BE0169
:10046000675F7F4FEEDC61E0F801099561E081E4B0
:10047000F701099561E086E790E0F801099569E0E8
:1004800081E0F701099561E08AE790E0F8010995BC
:100490002091E6003091E7004091E8005091E9009A
:1004A000298B3A8B4B8B5C8B21E030E0AE014F5FA8
:1004B0005F4F69897A898B899C89DBD761E181E00B
:1004C000F70109952091E6003091E7004091E8009E
:1004D0005091E900298B3A8B4B8B5C8B20E030E00C
:1004E00046EC52E469897A898B899C89D3DA18169B
:1004F000ACF08091E6009091E700A091E800B09107
:10050000E900898B9A8BAB8BBC8B20E030E0A90192
:10051000BC01CD0170D918160CF459C062E089E80D
:1005200090E0F801099566E186E3F701099580916D
:10053000D00061E0863008F44EC08EE890E0F8010B
:10054000099560E281E0F701099561E08AE790E0B2
:10055000F801099568E285E0F701099561E088E90D
:1005600090E0F80109952091E2003091E30040917C
:10057000E4005091E500298B3A8B4B8B5C8B21E09A
:1005800030E0AE014F5F5F4F69897A898B899C8922
:1005900070D761E0CE010196F801099568E286E323
:1005A000F701099561E08EE890E0F8010995F40102
:1005B0000995ED89FE8909952CCF879B37CFCC20F3
:1005C00009F434CF82B3805882BBC12C2FCF62E0B4
:1005D000CE010196A6CF84E990E0B1CF8091D00002
:1005E000282F30E050E040E0298B3A8B4B8B5C8B1E
:1005F000CA01B9019DD922E030E0AE014F5F5F4FE3
:10060000698B7A8B8B8B9C8B69897A898B899C8986
:1006100030D767E086E0F70109958091D00081111D
:1006200031C062E086E890E0F80109956BE088E36C
:10063000F701099561E08CE990E0F801099560E225
:1006400081E0F701099561E08AE790E0F8010995FA
:1006500068E285E0F701099561E088E990E0F8013A
:1006600009958091CF00811124C061E086E890E077
:10067000F801099568E288E3F701099561E08CE9E2
:1006800090E093CF8091D000811109C08091D0007B
:10069000882329F062E082E990E0F80109958091D1
:1006A000D0004AE0BE01675F7F4F90E0CADB62E0A6
:1006B000BBCF8091CF004AE0BE01675F7F4F90E0E3
:1006C000C0DB61E0D5CF2091DE003091DF004091AA
:1006D000E0005091E100298B3A8B4B8B5C8B22E040
:1006E00030E0AE014F5F5F4F69897A898B899C89C1
:1006F000C0D661E081E0F701099561E081EA90E010
:10070000F80109952091DE003091DF004091E00072
:100710005091E100298B3A8B4B8B5C8B20E030E0D1
:10072000A90169897A898B899C8965D818160CF486
:100730007BC061E089E890E0F801099561E081E41F
:10074000F701099561E087EA90E0F801099569E011
:1007500081E0F701099561E08AE790E0F8010995E9
:100760002091EE003091EF004091F0005091F100A7
:10077000298B3A8B4B8B5C8B21E030E0AE014F5FD5
:100780005F4F69897A898B899C8973D661E181E0A1
:10079000F70109952091EE003091EF004091F000B3
:1007A0005091F100298B3A8B4B8B5C8B20E030E031
:1007B000A90169897A898B899C891DD818160CF43E
:1007C00067C062E086E890E0F801099566E186E49A
:1007D000F701099561E087E790E0F801099560E28B
:1007E00081E0F701099561E08AE790E0F801099559
:1007F00068E285E0F701099561E08AEA90E0F80196
:1008000009958091CE004AE0BE01675F7F4F90E07E
:1008100018DB61E0F801099568E286E4F7010995C3
:1008200061E088EA90E0C1CE2091DE003091DF00E7
:100830004091E0005091E100298B3A8B4B8B5C8B0F
:1008400020E030E040E85FE369897A898B899C8900
:10085000D2D787FF19C08091DE009091DF00A09170
:10086000E000B091E100898B9A8BAB8BBC8B20E0D0
:1008700030E0A901BC01CD010DD918162CF461E0BE
:1008800082E990E0F801099561E0CE01019654CF2C
:100890002091EE003091EF004091F0005091F10076
:1008A000298B3A8B4B8B5C8B20E030E0A901698966
:1008B0007A898B899C89EED81816CCF48091EE0049
:1008C0009091EF00A091F000B091F100898B9A8B8C
:1008D000AB8BBC8B20E030E040E85FE3BC01CD0196
:1008E0008AD787FF04C062E080E3F301099562E0E4
:1008F000CE01019669CFF3E0DF124EC0F89420914B
:10090000D10030E0AFEFBFEF05D7698B7A8B8B8BCF
:100910009C8B10D82B01382E292E8091CA009091E3
:10092000CB009C0150E040E0298B3A8B4B8B5C8BD9
:10093000CA01B901FDD79201432D522D698B7A8BE3
:100940008B8B9C8B69897A898B899C89F0D69B01DA
:10095000AC0160E070E080E291E451D71B012C0112
:10096000AB01BC0180E190E0ECDA61E080EB90E06B
:10097000F801099528E030E0AE014F5F5F4F298A0A
:100980003A8A4B8A5C8A69897A898B899C8971D574
:1009900061E0CE01019609CE78948091CA009091D1
:1009A000CB009C0150E040E0298B3A8B4B8B5C8B59
:1009B0002AE0AE01475F5F4F69897A898B899C89FC
:1009C0004ADA61E0F801099569E080E0F5010995EE
:1009D0008091D1004AE0BE01675F7F4F90E031DA3D
:1009E00061E0E3CD1F920F920FB60F921124CF92C8
:1009F000DF92EF92FF922F933F934F935F936F930A
:100A00007F938F939F93AF93BF93EF93FF93CF9376
:100A1000DF93CDB7DEB72597DEBFCDBF8091CC0089
:100A20009091CD0001969093CD008093CC00809161
:100A3000C8009091C9008032934058F48091CA0058
:100A40009091CB00892B29F48091D500813009F455
:100A5000DDDB8091D4008E3248F08091D00081118E
:100A600005C08091D500813009F4D0DB87999BC205
:100A70008091D3008F5F8093D3008091D3008C301E
:100A800038F08091D200811103C081E08093D200C0
:100A90008091CC009091CD00049708F464C28091BD
:100AA000CA009091CB009C0150E040E029833A833A
:100AB0004B835C83CA01B9013BD724EB36E14FE895
:100AC00058E369837A838B839C8369817A818B81E4
:100AD0009C81E4D720E030E041E655E469837A83E5
:100AE0008B839C8369817A818B819C81D7D7698331
:100AF0007A838B839C8369817A818B819C81ECD6FC
:100B00006093D0008091C8009091C9009C0150E092
:100B100040E029833A834B835C83CA01B90108D73B
:100B200020E030E04AE754E469837A838B839C8336
:100B300069817A818B819C8162D6462F572FBC01B7
:100B40004093D6005093D7006093D8007093D9009B
:100B50008091D000863008F429C28091D60090910F
:100B6000D700A091D800B091D90089839A83AB8334
:100B7000BC839091D0009D8329E638E84FE45BE385
:100B800069817A818B819C8189D720E030E048ECB3
:100B900052E469837A838B839C8369817A818B8118
:100BA0009C817CD720E030E041E655E469837A837C
:100BB0008B839C8369817A818B819C816FD720E0B4
:100BC00030E040E850E469837A838B839C836981B9
:100BD0007A818B819C8162D76B017C013D81232FBF
:100BE00030E050E040E029833A834B835C83CA01C4
:100BF000B901A0D69B01AC01C982DA82EB82FC82EA
:100C000069817A818B819C81FAD5462F572FBC014F
:100C10004093E6005093E7006093E8007093E9008A
:100C20008091E6009091E700A091E800B091E90082
:100C300089839A83AB83BC8320E030E0A901BC01A7
:100C4000CD0128D718160CF064C02091E600309131
:100C5000E7004091E8005091E90029833A834B83F3
:100C60005C8320E030E048EC52E469817A818B813A
:100C70009C81C1D587FF4DC02091E6003091E700EF
:100C80004091E8005091E900C090DA00D090DB007C
:100C9000E090DC00F090DD0060E070E080E89FE331
:100CA000AED5A701960169837A838B839C83698182
:100CB0007A818B819C813BD5462F572FBC01409375
:100CC000DA005093DB006093DC007093DD008091CC
:100CD000F2009091F300A091F400B091F5008983A7
:100CE0009A83AB83BC832091DA003091DB00409182
:100CF000DC005091DD00BC01CD0181D5462F572F7E
:100D0000BC014093E2005093E3006093E4007093D1
:100D1000E5008091D6009091D700A091D800B091C5
:100D2000D90089839A83AB83BC83C090DE00D090C6
:100D3000DF00E090E000F090E10029E638E84FE4C1
:100D40005BE3BC01CD01AAD620E030E040E850E4EE
:100D500069837A838B839C8369817A818B819C816F
:100D60009DD6A701960169837A838B839C836981D1
:100D70007A818B819C81DBD4462F572FBC01409315
:100D8000DE005093DF006093E0007093E100369A3C
:100D90003699FECF84B195B16FE070E094D4609342
:100DA000CE002091E6003091E7004091E80050919C
:100DB000E90029833A834B835C8320E030E040E8FC
:100DC0005FE369817A818B819C8164D618161CF45B
:100DD00081E08093D5008091D000863008F4AEC0C9
:100DE0008091CE00C090E200D090E300E090E4005B
:100DF000F090E500282F30E050E040E029833A836E
:100E00004B835C83CA01B90195D5A701960169831B
:100E10007A838B839C8369817A818B819C81EFD4D7
:100E200020E030E048EC52E469837A838B839C8332
:100E300069817A818B819C8131D669837A838B83A6
:100E40009C8369817A818B819C8146D5462F572F5F
:100E50005093C1004093C0008091F2009091F30044
:100E6000A091F400B091F50089839A83AB83BC8391
:100E700020E030E040E85FE3BC01CD0158D4462FCC
:100E8000572FBC014093F2005093F3006093F4009D
:100E90007093F5008091D000C090EA00D090EB00F4
:100EA000E090EC00F090ED00282F30E050E040E0C2
:100EB00029833A834B835C83CA01B9013BD59B01EB
:100EC000AC0160E070E080E89FE399D4A70196014F
:100ED00069837A838B839C8369817A818B819C81EE
:100EE00026D4462F572FBC014093EA005093EB00C5
:100EF0006093EC007093ED008091F2009091F3000C
:100F0000A091F400B091F50089839A83AB83BC83F0
:100F10002091EA003091EB004091EC005091ED00FF
:100F2000BC01CD016CD469837A838B839C836981F6
:100F30007A818B819C81D0D46093CF008091D40042
:100F40008F5F8093D4008091D200811104C01092F1
:100F5000CB001092CA001092C9001092C8001092E3
:100F6000CD001092CC008EEE95E89DBD8CBD0F900B
:100F70000F900F900F900F90DF91CF91FF91EF9115
:100F8000BF91AF919F918F917F916F915F914F91A1
:100F90003F912F91FF90EF90DF90CF900F900FBE79
:100FA0000F901F9018951092D30072CD2091D6000B
:100FB0003091D7004091D8005091D90029833A83CD
:100FC0004B835C8329E638E84FE45BE369817A81EF
:100FD0008B819C8163D520E030E041E655E4698354
:100FE0007A838B839C8369817A818B819C8156D59E
:100FF00020E030E040E850E469837A838B839C836F
:1010000069817A818B819C8149D5462F572FBC01FC
:101010004093E6005093E7006093E8007093E90086
:1010200078CE1F920F920FB60F9211242F933F93F9
:101030004F935F936F937F938F939F93AF93BF93E0
:10104000EF93FF93CF93DF9300D000D0CDB7DEB7FF
:101050008091CA009091CB0001969093CB00809331
:10106000CA008091D200882359F08091CA009091E3
:10107000CB00019629F48091D1008F5F8093D1003D
:101080008091EE009091EF00A091F000B091F100FE
:1010900089839A83AB83BC8324EB36E14FE858E322
:1010A000BC01CD0144D3462F572FBC014093EE0025
:1010B0005093EF006093F0007093F1000F900F9049
:1010C0000F900F90DF91CF91FF91EF91BF91AF9172
:1010D0009F918F917F916F915F914F913F912F9150
:1010E0000F900FBE0F901F9018951F920F920FB682
:1010F0000F9211242F933F934F935F936F937F939E
:101100008F939F93AF93BF93EF93FF93839918C0EF
:1011100065D2462F572F5093C5004093C400FF91CE
:10112000EF91BF91AF919F918F917F916F915F915F
:101130004F913F912F910F900FBE0F901F901895D8
:101140004DD2462F572F5093C7004093C600809131
:10115000C6009091C7002091C4003091C500409115
:10116000C8005091C900840F951F821B930B909368
:10117000C9008093C800939AD2CFC4986623A9F07F
:10118000C39A27E030E090E0AC01022E02C05595F2
:1011900047950A94E2F740FF0AC0C29AC19AC198E3
:1011A0002150310988F7C49A0895C398EACFC298AC
:1011B000F5CF60E0E2CF80E8FCDF80E4FADF109258
:1011C000EE021092EF02E6EFF0E088EF91E0DF012F
:1011D0009C011D9221503040E1F70895811102C019
:1011E00084E2E7CF80E2FDCF962F9695969596956F
:1011F000E82FF0E084E5989FE00DF11D1124EA50FE
:10120000FF4F2081677081E090E001C0880F6A95F0
:10121000EAF7442319F0822B808308958095822376
:10122000FBCFBF92CF92DF92EF92FF920F931F936B
:10123000CF93DF93C62F25E0629F8001112497E0B2
:10124000699F700111248052990B289F6001299F8A
:10125000D00C1124D0E0D017110609F04CC08091B9
:10126000EE028F5F9C2F990F990F9C0F890F80932F
:10127000EE02843558F08091EF021092EE028F5FFB
:1012800097E0C99F800D11248093EF028091EF02B7
:10129000803320F01092EE021092EF02DF91CF9196
:1012A0001F910F91FF90EF90DF90CF90BF90089526
:1012B0008D2F6C2FFCD1F601E80FF11DE855FF4F83
:1012C000E4913B0D2D0FF0E08B2DF1D102C0F5958F
:1012D000E7958A95E2F741E0E0FF40E0632F822F37
:1012E00083DFB3943091EF022091EE02BE141F040D
:1012F000F9F6DF5FB0CFB12CF5CF1F93CF93DF931B
:10130000162FEC018991811104C0DF91CF911F91BB
:101310000895612F86DFF6CF8093EE026093EF028F
:101320000895CF93DF93BC9ABD9ABB9ABA9AB99AA3
:10133000C59AC49A8FE19EE40197F1F700C00000BE
:10134000C5989FE725EB81E0915020408040E1F770
:1013500000C00000C59AC49881E22BDF83E129DF39
:1013600086E027DF82EC25DF80E223DF89E021DFD2
:1013700080E81FDF80E41DDFC8EFD1E061E080E09E
:10138000FCDE2197D9F788E014DF8CE0DF91CF9164
:1013900010CFCF93DF9380E80CDF80E40ADFC6EF45
:1013A000D0E061E08991E9DE82E0CE3ED807C9F75E
:1013B000DF91CF910895CF93DF939B01FC01DC0176
:1013C000A60FB71F90E080E02150310982179307E4
:1013D0001CF0DF91CF91089541915E91EF0121972B
:1013E00058834C930196F0CFAF92BF92CF92DF9289
:1013F000EF92FF920F931F93CF93DF937B015A01DC
:10140000FB01D0E0C0E02AE030E0009759F585010B
:101410000C1B1D0B6801AC16BD0614F4D12CC12C9D
:10142000A60160E370E0C7018C0F9D1F03D5AC16C9
:10143000BD0614F410E000E00C0F1D1FCC0DDD1DE7
:10144000CE0DDF1DB801C701B6DF1882C801DF91DC
:10145000CF911F910F91FF90EF90DF90CF90BF90B1
:10146000AF9008952196B90142D1805D8193CB015F
:10147000CCCF2F923F924F925F926F927F928F923A
:101480009F92AF92BF92CF92DF92EF92FF920F9313
:101490001F93CF93DF9300D000D000D0CDB7DEB73D
:1014A0001B012C015A01890169833A828B835C827A
:1014B00069817A818B819C810AD26B0150E040E086
:1014C000B501C60191DF8D839E830115110509F4D5
:1014D0006CC0ED81FE81EA0DFB1D8EE28083C801A8
:1014E000012E000CAA0BBB0B89839A83AB83BC83B0
:1014F000BC01CD011FD29B01AC0160E070E080E235
:1015000091E42FD33B014C01C601DD0CAA0BBB0BB0
:1015100089839A83AB83BC83BC01CD010BD29B0131
:10152000AC0129823A824B825C8269817A818B810B
:101530009C81FCD0AD81BE811196AA0DBB1DBE83DE
:10154000AD839B01AC0169827A828B829C82698126
:101550007A818B819C81A2D269837A838B839C83DD
:1015600069817A818B819C81B2D1362F272FA80186
:101570006D817E81832F922F26960FB6F894DEBF61
:101580000FBECDBFDF91CF911F910F91FF90EF90D4
:10159000DF90CF90BF90AF909F908F907F906F9093
:1015A0005F904F903F902F901FCF26960FB6F894E4
:1015B000DEBF0FBECDBFDF91CF911F910F91FF9086
:1015C000EF90DF90CF90BF90AF909F908F907F90E3
:1015D0006F905F904F903F902F900895CF93DF933F
:1015E00000D000D0CDB7DEB78FB7F8942091F802C5
:1015F0003091F9024091FA025091FB0229833A831B
:101600004B835C838FBF789469817A818B819C81C5
:101610000F900F900F900F90DF91CF9108951F9230
:101620001FB61F9211242F933F938F939F93AF93D5
:10163000BF938091F8029091F902A091FA02B091C3
:10164000FB023091000326E0230F2D3750F5029660
:10165000A11DB11D209300038093F8029093F9021D
:10166000A093FA02B093FB028091FC029091FD02DC
:10167000A091FE02B091FF020196A11DB11D8093C1
:10168000FC029093FD02A093FE02B093FF02BF9173
:10169000AF919F918F913F912F911F901FBE1F90EF
:1016A000189529E8230F0396A11DB11DD3CF991BCF
:1016B00079E004C0991F961708F0961B881F7A9549
:1016C000C9F780950895AA1BBB1B51E107C0AA1F4B
:1016D000BB1FA617B70710F0A61BB70B881F991FD3
:1016E0005A95A9F780959095BC01CD01089597FB77
:1016F000072E16F4009406D077FD08D0E4DF07FC2F
:1017000005D03EF4909581959F4F08957095619511
:101710007F4F0895A29FB001B39FC001A39F01D046
:10172000B29F700D811D1124911D08955058BB2743
:10173000AA270ED075C166D130F06BD120F031F4FC
:101740009F3F11F41EF45BC10EF4E095E7FB51C11D
:10175000E92F77D180F3BA176207730784079507DB
:1017600018F071F49EF58FC10EF4E0950B2EBA2F90
:10177000A02D0B01B90190010C01CA01A001112497
:10178000FF27591B99F0593F50F4503E68F11A1643
:10179000F040A22F232F342F4427585FF3CF4695D4
:1017A00037952795A795F0405395C9F77EF41F16F6
:1017B000BA0B620B730B840BBAF09150A1F0FF0FC0
:1017C000BB1F661F771F881FC2F70EC0BA0F621FAC
:1017D000731F841F48F4879577956795B795F7959C
:1017E0009E3F08F0B3CF9395880F08F09927EE0F2E
:1017F000979587950895D9D008F481E008950CD085
:101800000FC107D140F0FED030F021F45F3F19F056
:10181000F0C0511139C1F3C014D198F39923C9F321
:101820005523B1F3951B550BBB27AA2762177307E6
:10183000840738F09F5F5F4F220F331F441FAA1F9A
:10184000A9F333D00E2E3AF0E0E830D0915050405A
:10185000E695001CCAF729D0FE2F27D0660F771F08
:10186000881FBB1F261737074807AB07B0E809F0EA
:10187000BB0B802DBF01FF2793585F4F2AF09E3F7F
:10188000510568F0B6C000C15F3FECF3983EDCF351
:10189000869577956795B795F7959F5FC9F7880FF8
:1018A000911D9695879597F90895E1E0660F771F4A
:1018B000881FBB1F621773078407BA0720F0621BDB
:1018C000730B840BBA0BEE1F88F7E095089504D0D4
:1018D0006894B111D9C00895BCD088F09F5790F09A
:1018E000B92F9927B751A0F0D1F0660F771F881F45
:1018F000991F1AF0BA95C9F712C0B13081F0C3D060
:10190000B1E00895C0C0672F782F8827B85F39F0FD
:10191000B93FCCF3869577956795B395D9F73EF4A3
:1019200090958095709561957F4F8F4F9F4F08954B
:10193000E89409C097FB3EF4909580957095619569
:101940007F4F8F4F9F4F9923A9F0F92F96E9BB271F
:101950009395F695879577956795B795F111F8CF9B
:10196000FAF4BB0F11F460FF1BC06F5F7F4F8F4F06
:101970009F4F16C0882311F096E911C0772321F0FC
:101980009EE8872F762F05C0662371F096E8862F94
:1019900070E060E02AF09A95660F771F881FDAF7EB
:1019A000880F9695879597F90895990F0008550F18
:1019B000AA0BE0E8FEEF16161706E807F907C0F0D5
:1019C00012161306E407F50798F0621B730B840BDD
:1019D000950B39F40A2661F0232B242B252B21F4B7
:1019E00008950A2609F4A140A6958FEF811D811D57
:1019F000089597F99F6780E870E060E008959FEF91
:101A000080EC089500240A94161617061806090695
:101A1000089500240A941216130614060506089564
:101A2000092E0394000C11F4882352F0BB0F40F4EC
:101A3000BF2B11F460FF04C06F5F7F4F8F4F9F4F2C
:101A4000089557FD9058440F551F59F05F3F71F0AE
:101A50004795880F97FB991F61F09F3F79F0879515
:101A60000895121613061406551FF2CF4695F1DF9E
:101A700008C0161617061806991FF1CF869571052E
:101A8000610508940895E894BB2766277727CB0162
:101A900097F908958ADF08F48FEF08950BD0C0CF2F
:101AA000B1DF28F0B6DF18F0952309F0A2CFA7CF59
:101AB0001124EACFC6DFA0F3959FD1F3950F50E034
:101AC000551F629FF001729FBB27F00DB11D639FF0
:101AD000AA27F00DB11DAA1F649F6627B00DA11D96
:101AE000661F829F2227B00DA11D621F739FB00D3C
:101AF000A11D621F839FA00D611D221F749F3327AC
:101B0000A00D611D231F849F600D211D822F762F44
:101B10006A2F11249F5750408AF0E1F088234AF041
:101B2000EE0FFF1FBB1F661F771F881F915050408D
:101B3000A9F79E3F510570F05CCFA6CF5F3FECF355
:101B4000983EDCF3869577956795B795F795E79579
:101B50009F5FC1F7FE2B880F911D9695879597F98A
:101B60000895FA01EE0FFF1F30962105310599F116
:101B70006115710561F48038BFE39B0749F16894F2
:101B80009038810561F08038BFEF9B0741F09923C1
:101B900042F5FF3FE1053105210511F1E894089474
:101BA000E795D901AA2329F4AB2FBE2FF85FD0F314
:101BB00010C0FF5F70F4A695E0F7F73950F019F008
:101BC000FF3A38F49F779F930CD00F9007FC905802
:101BD00008953EF014CF60E070E080E89FE3089540
:101BE0004FE79F775F934F933F932F93A2D02F910F
:101BF0003F914F915F9152DF09C0D7DE880B990B5F
:101C0000089519F40EF0F5CE3ECFF9CE22DFC8F3D9
:101C10009638C0F707F80F92E8942BE33AEA48EBBE
:101C20005FE74ADF0F920F920F924DB75EB70F92A8
:101C3000C0D0E6E2F0E016D04F915F91EF91FF91B6
:101C4000E595EE1FFF1F49F0FE57E0684427EE0FB1
:101C5000441FFA95E1F74195550B32D00F9007FEDE
:101C600026C00895DF93CF931F930F93FF92EF92B7
:101C7000DF927B018C01689405C0DA2EEF011ADF38
:101C8000FE01E894A5912591359145915591AEF3CA
:101C9000EF015EDDFE019701A801DA9479F7DF908C
:101CA000EF90FF900F911F91CF91DF9108959B01CD
:101CB000AC0160E070E080E89FE3A1CD9ACEACC0BB
:101CC000C8DEE8F39923D9F3940F511DBBF391506B
:101CD000504094F059F0882332F0660F771F881F28
:101CE00091505040C1F79E3F510544F7880F911D18
:101CF0009695879597F908955F3FACF0983E9CF0D4
:101D0000BB27869577956795B79508F4B16093954D
:101D1000C1F7BB0F58F711F460FFE8CF6F5F7F4F3B
:101D20008F4F9F4FE3CFB0CE0EF076C068CE689451
:101D300060CE8FDEC8F39923D1F3C6F3DF93CF9340
:101D40001F930F93FF92C92FDD2788232AF0219735
:101D5000660F771F881FDAF720E030E040E85FEB7E
:101D60009FE3883920F0803E30F021968F77DFDCCA
:101D7000EEE4F0E003C0DBDCEBE7F0E073DF8B01C7
:101D8000BE01EC01FB2E6F5771097595771F880B0B
:101D9000990BD0DD28E132E741E35FE38BDEAF2D25
:101DA0009801AE01FF900F911F91CF91DF91D0DC90
:101DB00037CEFA01DC01AA0FBB1F9B01AC01BF5754
:101DC00028F422273327442750781FC0B75188F4BE
:101DD000AB2F0024469537952795011CA395D2F388
:101DE000002069F0220F331F441FB395DAF30DD0A2
:101DF0009DCC61307105A0E88A07B94630F49B019B
:101E0000AC016627772788279078309621F02083C9
:101E100031834283538308959F3F31F0915020F4E2
:101E2000879577956795B795880F911D96958795B6
:101E300097F90895DC0101C06D9341505040E0F7DF
:101E40000895BB274A3031F4992322F4BDE29095DE
:101E500081959F4F30C0BB272A3051F4992342F41B
:101E6000BDE290958095709561957F4F8F4F9F4F04
:101E700001C0BB27FA01A62F6217710581059105E4
:101E8000330B30FB66F0AA27660F771F881F991F58
:101E9000AA1FA21710F0A21B63953850A9F7A05DE6
:101EA000AA3308F0A95DA19336F7B111B19310825E
:101EB000CA0119C0BB27FB015527AA27880F991F04
:101EC000AA1FA41710F0A41B83955051B9F7A05D69
:101ED000AA3308F0A95DA193009779F7B111B193E6
:101EE0001192CB0100C0DC01FC01672F71917723B7
:101EF000E1F7329704C07C916D9370836291AE17C5
:101F0000BF07C8F30895E199FECF9FBB8EBBE09A4F
:101F100099278DB30895A6E1B0E044E050E01BC0DE
:101F2000262FE199FECF9FBB8EBBE09A01970DB2A1
:101F3000021631F02DBB0FB6F894E29AE19A0FBE6B
:101F400008950396272FEDDFEBDF252FEADF242FFF
:101F5000E8CFDC01CB01FC01E199FECF06C0FFBB5D
:101F6000EEBBE09A31960DB20D9241505040B8F759
:061F70000895F894FFCF74
:101F76009109DB08EE08F40811097D098C09C909E5
:101F8600242526202000204B4D002D2D2D2D2D2DD6
:101F96002D2D2D2D2D2D2D2D002D2D2E2D004C2FA3
:101FA600313030004C2F4800232020004B4D2F4865
:101FB60000252624202000204C002122202020005D
:101FC6005245535441525420444556494345000016
:00000001FF
