:10000000E9C004C165C101C100C1FFC0FEC0FDC09F
:100010007BC4ABC8FAC0F9C0F8C0F7C0F6C0F5C0E1
:10002000F4C0F3C0F2C007634236B79BD8A71A39B1
:10003000685618AEBAAB558C1D3CB7CC5763BD6D36
:10004000EDFD753EF6177231BF000000803F0800DD
:100050000000BE922449123EABAAAA2ABECDCCCC47
:100060004C3E00000080BEABAAAAAA3E00000000E1
:10007000BF000000803F0000000000084178D3BBB3
:100080004387D1133D190E3CC3BD4282AD2B3E6860
:10009000EC8276BED98FE1A93E4C80EFFFBE01C451
:1000A000FF7F3F0000000000000000000000005F34
:1000B00000000007000700147F147F14242A7F2A01
:1000C00012231308646236495522500005030000CC
:1000D000001C2241000041221C0000000205020811
:1000E000083E0808005030000008080808080060B2
:1000F00060000020100804023E5149453E00427F46
:10010000400042615149462141454B311814127F4C
:100110001027454545393C4A4949300171090503D5
:100120003649494936064949291E0036360000003D
:10013000563600000814224100141414141400410F
:100140002214080201510906324979413E7E1111FB
:10015000117E7F494949363E414141227F4141223A
:100160001C7F494949417F090909013E4149497AB2
:100170007F0808087F00417F41002040413F017F08
:10018000081422417F404040407F020C027F7F04E0
:1001900008107F3E4141413E7F090909063E415119
:1001A000215E7F09192946464949493101017F01EC
:1001B000013F4040403F1F2040201F3F4038403F0C
:1001C0006314081463070870080761514945430028
:1001D0000000000011241FBECFE5D4E0DEBFCDBF7C
:1001E00011E0A0E6B0E0E6EAFEE102C005900D9263
:1001F000A030B107D9F723E0A0E0B1E001C01D9223
:10020000AB35B207E1F7F9D74CCEFACE1F920F9279
:100210000FB60F9211242F933F934F935F936F93D9
:100220007F938F939F93AF93BF93EF93FF93CF935E
:10023000DF9300D000D0CDB7DEB780911C01909144
:100240001D01019690931D0180931C01209169006E
:1002500030916A0040916B0050916C0080914C018C
:1002600090914D01A0914E01B0914F0189839A83E5
:10027000AB83BC83BC01CD0118DA462F572FBC01DC
:1002800040934C0150934D0160934E0170934F0188
:1002900080911A0190911B01019690931B0180930C
:1002A0001A010F900F900F900F90DF91CF91FF9157
:1002B000EF91BF91AF919F918F917F916F915F91DE
:1002C0004F913F912F910F900FBE0F901F90189557
:1002D0001F920F920FB60F9211242F933F934F93BB
:1002E0005F936F937F938F939F93AF93BF93EF939E
:1002F000FF93839918C018D7462F572F5093150195
:1003000040931401FF91EF91BF91AF919F918F9115
:100310007F916F915F914F913F912F910F900FBE01
:100320000F901F90189500D7462F572F5093170105
:1003300040931601809116019091170120911401AC
:10034000309115014091180150911901840F951FAA
:10035000821B930B909319018093180180911601D1
:1003600090911701209114013091150140911201D3
:1003700050911301840F951F821B930B90931301CF
:1003800080931201939ABECF909126018091230110
:10039000891720F480912601809323010895CF923C
:1003A000DF92EF92FF92CF93DF9300D000D0CDB7D2
:1003B000DEB780912601C0900001D0900101E0904D
:1003C0000201F0900301282F30E050E040E0298343
:1003D0003A834B835C83CA01B9016ADA9B01AC01A1
:1003E00060E070E080E89FE3C8D9A70196016983C7
:1003F0007A838B839C8369817A818B819C8155D997
:10040000462F572FBC014093000150930101609388
:100410000201709303018091040190910501A09164
:100420000601B091070189839A83AB83BC83209135
:100430000001309101014091020150910301BC0182
:10044000CD019BD969837A838B839C8369817A816F
:100450008B819C81FFD9609324010F900F900F90A6
:100460000F90DF91CF91FF90EF90DF90CF900895A4
:10047000CF92DF92EF92FF92CF93DF9300D000D024
:10048000CDB7DEB780911C0190911D01C09069002D
:10049000D0906A00E0906B00F0906C009C0150E0FE
:1004A00040E029833A834B835C83CA01B901FED9BA
:1004B000A701960169837A838B839C8369817A8102
:1004C0008B819C81A9DA20E030E041E655E4698324
:1004D0007A838B839C8369817A818B819C819CDA6E
:1004E00069837A838B839C8369817A818B819C81E8
:1004F000B1D9609326010F900F900F900F90DF916C
:10050000CF91FF90EF90DF90CF900895CF92DF9240
:10051000EF92FF92CF93DF9300D000D00F92CDB730
:10052000DEB780911801909119019C0150E040E0E4
:1005300029833A834B835C83CA01B901B7D920E090
:1005400030E04AE754E469837A838B839C83698132
:100550007A818B819C8111D9462F572FBC01409302
:100560004401509345016093460170934701809187
:100570002601863008F447C18091440190914501DD
:10058000A0914601B091470189839A83AB83BC83D4
:10059000209165003091660040916700509168009D
:1005A000909126019D8369817A818B819C8134DAC7
:1005B00020E030E041E655E469837A838B839C83B5
:1005C00069817A818B819C8127DA20E030E040E8E4
:1005D00050E469837A838B839C8369817A818B81E0
:1005E0009C811ADA20E030E048EC52E469837A8397
:1005F0008B839C8369817A818B819C810DDA6B016D
:100600007C013D81232F30E050E040E029833A8394
:100610004B835C83CA01B9014BD99B01AC01C982F0
:10062000DA82EB82FC8269817A818B819C81A5D8F8
:10063000462F572FBC0140933C0150933D016093DE
:100640003E0170933F0180913C0190913D01A0914A
:100650003E01B0913F0189839A83AB83BC8320E044
:1006600030E0A901BC01CD01D3D918160CF04FC060
:1006700020913C0130913D0140913E0150913F015C
:10068000C0903001D0903101E0903201F090330100
:1006900060E070E080E89FE370D8A701960169836D
:1006A0007A838B839C8369817A818B819C81FDD73E
:1006B000462F572FBC014093300150933101609376
:1006C0003201709333012091040130910501409172
:1006D00006015091070129833A834B835C83209163
:1006E00030013091310140913201509133016981E3
:1006F0007A818B819C8141D8462F572FBC01409332
:100700003401509335016093360170933701209185
:1007100044013091450140914601509147012983A0
:100720003A834B835C832091650030916600409151
:10073000670050916800C0904001D0904101E09066
:100740004201F090430169817A818B819C8164D957
:1007500020E030E040E850E469837A838B839C8317
:1007600069817A818B819C8157D9A7019601698320
:100770007A838B839C8369817A818B819C8195D7D5
:10078000462F572FBC014093400150934101609385
:100790004201709343018091610090916200A091A9
:1007A0006300B091640089839A83AB83BC8320E0AB
:1007B00030E0A901BC01CD012BD91816C4F4209159
:1007C000400130914101409142015091430160E06C
:1007D00070E088E892E468D7462F572FBC01409319
:1007E00061005093620060936300709364000F9007
:1007F0000F900F900F900F90DF91CF91FF90EF909F
:10080000DF90CF9008958091440190914501A0918F
:100810004601B091470189839A83AB83BC832091C1
:100820006500309166004091670050916800BC01FE
:10083000CD01F2D820E030E041E655E469837A83C7
:100840008B839C8369817A818B819C81E5D820E0B0
:1008500030E040E850E469837A838B839C8369812C
:100860007A818B819C81D8D8462F572FBC01409329
:100870003C0150933D0160933E0170933F0147CF8F
:10088000F89440914C0150914D0160914E0170914E
:100890004F0184E090E0E9DA409134015091350154
:1008A000609136017091370180E090E0DEDA40918E
:1008B000400150914101609142017091430188E0F3
:1008C00090E0D3DA6091230181E190E0BDDA60919C
:1008D000240180E190E0B8DA4091040150910501D3
:1008E00060910601709107018CE090E0BEDA6091A2
:1008F00010017091110182E190E0BFDA10922101A4
:1009000010922701789408951F920F920FB60F92BC
:1009100011242F933F934F935F936F937F938F9304
:100920009F93AF93BF93EF93FF93CF93DF93CDB795
:10093000DEB72897DEBFCDBF80911E0190911F01C9
:10094000019690931F0180931E0180911201909156
:1009500013018032934058F480911A0190911B0149
:10096000892B29F480912701813009F489DF809156
:1009700021018E3248F080912601811105C08091BD
:100980002701813009F47CDF1092130110921201CB
:1009900010921B0110921A0180911E0190911F016B
:1009A000049708F4D0C064DDB1DDF894BDD3462FC0
:1009B000572F8091080190910901481B590B5093C2
:1009C0000B0140930A018091280190912901A09187
:1009D0002A01B0912B0189839A83AB83BC838091D8
:1009E0000A0190910B019C0150E040E02D833E8371
:1009F0004F835887CA01B90159D79B01AC0169815E
:100A00007A818B819C81B9D620E030E64AE657E4B2
:100A100069837A838B839C8369817A818B819C81B2
:100A2000FBD769837A838B839C8369817A818B81ED
:100A30009C8110D7462F572F50930F0140930E01E2
:100A400073D3462F572F50930901409308011092FA
:100A500028011092290110922A0110922B017894FA
:100A600080913C0190913D01A0913E01B0913F01E8
:100A700089839A83AB83BC8320E030E040E85FE366
:100A8000BC01CD01C5D718161CF481E08093270165
:100A900080912601863010F12091040130910501EA
:100AA000409106015091070129833A834B835C836F
:100AB00020E030E040E85FE369817A818B819C81AE
:100AC000F4D5462F572FBC014093040150930501E4
:100AD000609306017093070162DC56DC809121016E
:100AE0008F5F8093210110921D0110921C011092C2
:100AF00019011092180110921F0110921E0180918D
:100B00003C0190913D01A0913E01B0913F01809345
:100B1000380190933901A0933A01B0933B01809141
:100B20004C0190914D01A0914E01B0914F018093E5
:100B3000480190934901A0934A01B0934B018091E1
:100B40002601809325018EEE95E89DBD8CBD2896EB
:100B50000FB6F894DEBF0FBECDBFDF91CF91FF91EE
:100B6000EF91BF91AF919F918F917F916F915F9125
:100B70004F913F912F910F900FBE0F901F9018959E
:100B8000CF93DF9300D000D0CDB7DEB784E090E004
:100B900051D9462F572FBC0149835A836B837C83DD
:100BA0009A01AC01B901E7D7882321F019821A8292
:100BB0001B821C8289819A81AB81BC8180934C010C
:100BC00090934D01A0934E01B0934F0180E090E0CF
:100BD00031D9462F572FBC0149835A836B837C83BD
:100BE0009A01AC01B901C7D7882321F019821A8272
:100BF0001B821C8289819A81AB81BC8180933401E4
:100C000090933501A0933601B093370188E090E0CE
:100C100011D9462F572FBC0149835A836B837C839C
:100C20009A01AC01B901A7D7882321F019821A8251
:100C30001B821C8289819A81AB81BC818093400197
:100C400090934101A0934201B093430181E190E070
:100C5000E9D88093230180E190E0E4D88F3F09F444
:100C600080E0809324018CE090E0E4D8462F572F59
:100C7000BC0149835A836B837C839A01AC01B9011F
:100C80007AD7882321F019821A821B821C828981DB
:100C90009A81AB81BC818093040190930501A0935C
:100CA0000601B093070182E190E0C9D89093110149
:100CB000809310010F900F900F900F90DF91CF91C4
:100CC0000895C4986623A9F0C39A27E030E090E025
:100CD000AC01022E02C0559547950A94E2F740FFF9
:100CE0000AC0C29AC19AC1982150310988F7C49AA2
:100CF0000895C398EACFC298F5CF60E0E2CF80E8CC
:100D0000FCDF80E4FADF1092480310924903E0E52B
:100D1000F1E088EF91E0DF019C011D92215030400D
:100D2000E1F70895811102C084E2E7CF80E2FDCFB0
:100D3000962F969596959695E82FF0E084E5989FE6
:100D4000E00DF11D1124E05BFE4F2081677081E012
:100D500090E001C0880F6A95EAF7442319F0822BCE
:100D60008083089580958223FBCFBF92CF92DF923C
:100D7000EF92FF920F931F93CF93DF93C62F25E03F
:100D8000629F8001112497E0699F70011124082E51
:100D9000000C990B8097289F6001299FD00C11248B
:100DA000D0E0D017110609F04CC0809148038F5F46
:100DB0009C2F990F990F9C0F890F809348038435BE
:100DC00058F080914903109248038F5F97E0C99FC4
:100DD000800D11248093490380914903803320F0D2
:100DE0001092480310924903DF91CF911F910F9108
:100DF000FF90EF90DF90CF90BF9008958D2F6C2FD4
:100E000020D4F601E80FF11DE855FF4FE4913B0DAA
:100E10002D0FF0E08B2D15D402C0F595E7958A953E
:100E2000E2F741E0E0FF40E0632F822F81DFB394DF
:100E30003091490320914803BE141F04F9F6DF5F87
:100E4000B0CFB12CF5CF1F93CF93DF93162FEC01CA
:100E50008991811104C0DF91CF911F910895612F75
:100E600084DFF6CF80934803609349030895CF93BE
:100E7000DF93BC9ABD9ABB9ABA9AB99AC59AC49A9A
:100E80008FE19EE40197F1F700C00000C5989FE74D
:100E900025EB81E0915020408040E1F700C0000048
:100EA000C59AC49881E229DF83E127DF86E025DF48
:100EB00082EC23DF80E221DF89E01FDF80E81DDF95
:100EC00080E41BDFC8EFD1E061E080E0FADE21972B
:100ED000D9F788E012DF8CE0DF91CF910ECFCF936E
:100EE000DF9380E80ADF80E408DFC0E5D1E061E05D
:100EF0008991E7DE83E0C834D807C9F7DF91CF9145
:100F00000895CF93DF939B01FC01DC01A60FB71F6F
:100F100090E080E021503109821793071CF0DF91A7
:100F2000CF91089541915E91EF01219758834C93A1
:100F30000196F0CFAF92BF92CF92DF92EF92FF92E5
:100F40000F931F93CF93DF937B015A01FB01D0E0F6
:100F5000C0E02AE030E0009759F585010C1B1D0B1D
:100F60006801AC16BD0614F4D12CC12CA60160E3B7
:100F700070E0C7018C0F9D1F1BD7AC16BD0614F483
:100F800010E000E00C0F1D1FCC0DDD1DCE0DDF1D90
:100F9000B801C701B6DF1882C801DF91CF911F9158
:100FA0000F91FF90EF90DF90CF90BF90AF9008959A
:100FB0002196B90152D3805D8193CB01CCCF2F9282
:100FC0003F924F925F926F927F928F929F92AF92D9
:100FD000BF92CF92DF92EF92FF920F931F93CF9326
:100FE000DF9300D000D000D0CDB7DEB71B012C01BD
:100FF0005A01890169833A828B835C8269817A8193
:101000008B819C8122D46B0150E040E0B501C60188
:1010100091DF8D839E830115110509F46CC0ED816C
:10102000FE81EA0DFB1D8EE28083C801012E000CBB
:10103000AA0BBB0B89839A83AB83BC83BC01CD0114
:1010400037D49B01AC0160E070E080E291E447D5C9
:101050003B014C01C601DD0CAA0BBB0B89839A83B3
:10106000AB83BC83BC01CD0123D49B01AC0129829D
:101070003A824B825C8269817A818B819C8114D314
:10108000AD81BE811196AA0DBB1DBE83AD839B01B0
:10109000AC0169827A828B829C8269817A818B81A0
:1010A0009C81BAD469837A838B839C8369817A819A
:1010B0008B819C81CAD3362F272FA8016D817E8119
:1010C000832F922F26960FB6F894DEBF0FBECDBFAA
:1010D000DF91CF911F910F91FF90EF90DF90CF9014
:1010E000BF90AF909F908F907F906F905F904F9048
:1010F0003F902F901FCF26960FB6F894DEBF0FBEFD
:10110000CDBFDF91CF911F910F91FF90EF90DF90B6
:10111000CF90BF90AF909F908F907F906F905F9097
:101120004F903F902F900895CF93DF9300D000D041
:10113000CDB7DEB78FB7F8942091520330915303A7
:10114000409154035091550329833A834B835C8328
:101150008FBF789469817A818B819C810F900F90E9
:101160000F900F90DF91CF9108951F921FB61F929D
:1011700011242F933F938F939F93AF93BF938091AD
:10118000520390915303A0915403B09155033091B1
:101190005A0326E0230F2D3750F50296A11DB11DED
:1011A00020935A038093520390935303A0935403C4
:1011B000B09355038091560390915703A091580323
:1011C000B09159030196A11DB11D809356039093D0
:1011D0005703A0935803B0935903BF91AF919F91C8
:1011E0008F913F912F911F901FBE1F90189529E856
:1011F000230F0396A11DB11DD3CFCDB7DEB7A697A0
:101200000FB6F894DEBF0FBECDBF81B3837781BB2D
:1012100086E085BF80EC8BBF1FBC83E08EBD2EEEC9
:1012200035E83DBD2CBD83BF12BE85E089BFA8DC7B
:10123000E0916D00F0916E0009957894212C312C8D
:10124000E0907900F0907A0000917700109178009A
:10125000C0907D00D0907E0036015601460140903E
:101260007B0050907C0020916F00309170003EA375
:101270002DA387991AC0211018C03EE0331598F0AD
:101280003394832D806882BB809160008F5F809350
:10129000600080916000873018F041E0409360006A
:1012A000222423940AC0312CECCF879B06C0222035
:1012B00021F082B3805882BB212C80916000833062
:1012C00009F44EC110F5813009F475C0823009F47B
:1012D000E7C061E081E0F701099561E08CEE90E004
:1012E000F801099569E081E0F701099561E089EF6E
:1012F00090E0F8010995809160004AE0BE01675EC8
:101300007F4F90E05CD561E0BCC0843009F46EC1D1
:101310008630F9F6209148013091490140914A0107
:1013200050914B0129A33AA34BA35CA322E030E0E8
:10133000AE014F5F5F4F69A17AA18BA19CA1F30120
:10134000099567E081E0F701099520914801309106
:10135000490140914A0150914B0129A33AA34BA363
:101360005CA320E030E0A90169A17AA18BA19CA136
:1013700000D262E018160CF461C185EB90E0F80130
:1013800009956BE088E4F701099561E087ED90E04D
:10139000F80109956EE182E1F701099561E08AEDB6
:1013A00090E0F801099567E282E1F701099561E0B3
:1013B00083EE90E066C08091380190913901A09150
:1013C0003A01B0913B0189A39AA3ABA3BCA321E04E
:1013D00030E0AE014F5F5F4FBC01CD01F5010995D3
:1013E00067E081E0F70109952091380130913901DA
:1013F00040913A0150913B0129A33AA34BA35CA32E
:1014000020E030E046EC52E469A17AA18BA19CA1D6
:10141000FFD21816A4F08091380190913901A09163
:101420003A01B0913B0189A39AA3ABA3BCA320E0EE
:1014300030E0A901BC01CD019CD1181654F162E045
:101440008FE790E0F80109956BE086E3F7010995D5
:101450008091260161E0863000F184E890E0F80197
:1014600009956EE186E0F701099561E08EE890E06C
:10147000F801099567E283E0F701099561E08BE9DE
:1014800090E0F8010995F2010995EDA1FEA10995F9
:10149000F0CE62E0CE010196D5CF8AE890E0DFCFB2
:1014A000209134013091350140913601509137013E
:1014B00029A33AA34BA35CA321E030E0AE014F5F28
:1014C0005F4F69A17AA18BA19CA1F401099567E006
:1014D00081E0F70109952091340130913501409167
:1014E00036015091370129A33AA34BA35CA320E016
:1014F00030E046EC52E469A17AA18BA19CA188D28C
:101500001816A4F08091340190913501A091360114
:10151000B091370189A39AA3ABA3BCA320E030E02C
:10152000A901BC01CD0125D11816B4F062E08FE706
:1015300090E0F80109956BE086E3F701099561E019
:1015400084E890E0F80109956EE186E0F7010995DD
:1015500061E088EA90E08CCF62E0CE010196E9CFAD
:1015600080912501282F30E050E040E029A33AA3E4
:101570004BA35CA3CA01B90199D122E030E0AE01CE
:101580004F5F5F4F69A37AA38BA39CA369A17AA144
:101590008BA19CA1F601099567E086E0F70109950A
:1015A00080912501811105C062E085EB90E0F80192
:1015B000099580910E0190910F014AE0BE01675E8E
:1015C0007F4FFDD362E0F80109956BE086E3F701F8
:1015D000099561E080EC90E0F80109956EE184E006
:1015E000F701099561E088EB90E04BCF67E086E07A
:1015F000F701099580912401811116C062E085EB05
:1016000090E0F80109956BE086E3F701099561E048
:1016100084EC90E0F80109956EE184E0F70109950A
:1016200061E089EC90E02DCF809124014AE0BE0179
:10163000675E7F4F90E0C3D362E0E3CFCE010196B7
:101640009ECE991B79E004C0991F961708F0961B4F
:10165000881F7A95C9F78095089597FB072E16F491
:10166000009406D077FD08D00BD007FC05D03EF4DF
:10167000909581959F4F0895709561957F4F08953E
:10168000AA1BBB1B51E107C0AA1FBB1FA617B707A8
:1016900010F0A61BB70B881F991F5A95A9F78095C4
:1016A0009095BC01CD0108955058BB27AA270ED0B4
:1016B00075C166D130F06BD120F031F49F3F11F449
:1016C0001EF45BC10EF4E095E7FB51C1E92F77D121
:1016D00080F3BA17620773078407950718F071F44F
:1016E0009EF58FC10EF4E0950B2EBA2FA02D0B01A5
:1016F000B90190010C01CA01A0011124FF27591B57
:1017000099F0593F50F4503E68F11A16F040A22F5C
:10171000232F342F4427585FF3CF469537952795CD
:10172000A795F0405395C9F77EF41F16BA0B620BCC
:10173000730B840BBAF09150A1F0FF0FBB1F661F13
:10174000771F881FC2F70EC0BA0F621F731F841F56
:1017500048F4879577956795B795F7959E3F08F07C
:10176000B3CF9395880F08F09927EE0F979587953B
:101770000895D9D008F481E008950CD00FC107D1A5
:1017800040F0FED030F021F45F3F19F0F0C051116D
:1017900039C1F3C014D198F39923C9F35523B1F398
:1017A000951B550BBB27AA2762177307840738F0D0
:1017B0009F5F5F4F220F331F441FAA1FA9F333D02F
:1017C0000E2E3AF0E0E830D091505040E695001CE3
:1017D000CAF729D0FE2F27D0660F771F881FBB1F9F
:1017E000261737074807AB07B0E809F0BB0B802D79
:1017F000BF01FF2793585F4F2AF09E3F510568F0C5
:10180000B6C000C15F3FECF3983EDCF38695779558
:101810006795B795F7959F5FC9F7880F911D9695C6
:10182000879597F90895E1E0660F771F881FBB1F22
:10183000621773078407BA0720F0621B730B840BCF
:10184000BA0BEE1F88F7E095089504D06894B111A3
:10185000D9C00895BCD088F09F5790F0B92F992730
:10186000B751A0F0D1F0660F771F881F991F1AF0AB
:10187000BA95C9F712C0B13081F0C3D0B1E0089574
:10188000C0C0672F782F8827B85F39F0B93FCCF3F5
:10189000869577956795B395D9F73EF490958095A1
:1018A000709561957F4F8F4F9F4F0895E89409C0C1
:1018B00097FB3EF490958095709561957F4F8F4F83
:1018C0009F4F9923A9F0F92F96E9BB279395F69599
:1018D000879577956795B795F111F8CFFAF4BB0F17
:1018E00011F460FF1BC06F5F7F4F8F4F9F4F16C07B
:1018F000882311F096E911C0772321F09EE8872F05
:10190000762F05C0662371F096E8862F70E060E0C0
:101910002AF09A95660F771F881FDAF7880F969539
:10192000879597F90895990F0008550FAA0BE0E8DD
:10193000FEEF16161706E807F907C0F01216130691
:10194000E407F50798F0621B730B840B950B39F4D1
:101950000A2661F0232B242B252B21F408950A2637
:1019600009F4A140A6958FEF811D811D089597F977
:101970009F6780E870E060E008959FEF80EC089535
:1019800000240A941616170618060906089500245E
:101990000A9412161306140605060895092E0394D8
:1019A000000C11F4882352F0BB0F40F4BF2B11F44C
:1019B00060FF04C06F5F7F4F8F4F9F4F089557FDAB
:1019C0009058440F551F59F05F3F71F04795880FAD
:1019D00097FB991F61F09F3F79F087950895121644
:1019E00013061406551FF2CF4695F1DF08C01616F0
:1019F00017061806991FF1CF8695710561050894A1
:101A00000895E894BB2766277727CB0197F90895B7
:101A10008ADF08F48FEF08950BD0C0CFB1DF28F034
:101A2000B6DF18F0952309F0A2CFA7CF1124EACF93
:101A3000C6DFA0F3959FD1F3950F50E0551F629F2D
:101A4000F001729FBB27F00DB11D639FAA27F00D17
:101A5000B11DAA1F649F6627B00DA11D661F829F3E
:101A60002227B00DA11D621F739FB00DA11D621F23
:101A7000839FA00D611D221F749F3327A00D611D40
:101A8000231F849F600D211D822F762F6A2F112422
:101A90009F5750408AF0E1F088234AF0EE0FFF1F75
:101AA000BB1F661F771F881F91505040A9F79E3FAC
:101AB000510570F05CCFA6CF5F3FECF3983EDCF3AE
:101AC000869577956795B795F795E7959F5FC1F7E9
:101AD000FE2B880F911D9695879597F90895FA0129
:101AE000EE0FFF1F30962105310599F16115710543
:101AF00061F48038BFE39B0749F168949038810511
:101B000061F08038BFEF9B0741F0992342F5FF3F1A
:101B1000E1053105210511F1E8940894E795D90113
:101B2000AA2329F4AB2FBE2FF85FD0F310C0FF5FBC
:101B300070F4A695E0F7F73950F019F0FF3A38F451
:101B40009F779F930CD00F9007FC905808953EF01C
:101B500014CF60E070E080E89FE308954FE79F773F
:101B60005F934F933F932F93A2D02F913F914F912B
:101B70005F9152DF09C0D7DE880B990B089519F4E5
:101B80000EF0F5CE3ECFF9CE22DFC8F39638C0F77F
:101B900007F80F92E8942BE33AEA48EB5FE74ADF55
:101BA0000F920F920F924DB75EB70F92C0D0E6E240
:101BB000F0E016D04F915F91EF91FF91E595EE1F08
:101BC000FF1F49F0FE57E0684427EE0F441FFA95C7
:101BD000E1F74195550B32D00F9007FE26C00895CE
:101BE000DF93CF931F930F93FF92EF92DF927B01CE
:101BF0008C01689405C0DA2EEF011ADFFE01E8942B
:101C0000A5912591359145915591AEF3EF015EDD9A
:101C1000FE019701A801DA9479F7DF90EF90FF9029
:101C20000F911F91CF91DF9108959B01AC0160E06E
:101C300070E080E89FE3A1CD9ACEACC0C8DEE8F3A7
:101C40009923D9F3940F511DBBF39150504094F058
:101C500059F0882332F0660F771F881F915050404B
:101C6000C1F79E3F510544F7880F911D96958795C2
:101C700097F908955F3FACF0983E9CF0BB2786959E
:101C800077956795B79508F4B1609395C1F7BB0F49
:101C900058F711F460FFE8CF6F5F7F4F8F4F9F4F72
:101CA000E3CFB0CE0EF076C068CE689460CE8FDE03
:101CB000C8F39923D1F3C6F3DF93CF931F930F9308
:101CC000FF92C92FDD2788232AF02197660F771FFF
:101CD000881FDAF720E030E040E85FEB9FE38839C7
:101CE00020F0803E30F021968F77DFDCEEE4F0E0EC
:101CF00003C0DBDCEBE7F0E073DF8B01BE01EC013E
:101D0000FB2E6F5771097595771F880B990BD0DDE6
:101D100028E132E741E35FE38BDEAF2D9801AE01AE
:101D2000FF900F911F91CF91DF91D0DC37CEFA0158
:101D3000DC01AA0FBB1F9B01AC01BF5728F422276F
:101D40003327442750781FC0B75188F4AB2F0024A5
:101D5000469537952795011CA395D2F3002069F08D
:101D6000220F331F441FB395DAF30DD09DCC6130A1
:101D70007105A0E88A07B94630F49B01AC016627DB
:101D8000772788279078309621F02083318342830B
:101D9000538308959F3F31F0915020F487957795B4
:101DA0006795B795880F911D9695879597F9089532
:101DB000DC0101C06D9341505040E0F70895BB270E
:101DC0004A3031F4992322F4BDE2909581959F4FDA
:101DD00001C0BB27FB015527AA27880F991FAA1FFF
:101DE000A41710F0A41B83955051B9F7A05DAA3336
:101DF00008F0A95DA193009779F7B111B193119201
:101E0000CB0100C0DC01FC01672F71917723E1F762
:101E1000329704C07C916D9370836291AE17BF07B7
:101E2000C8F30895E199FECF9FBB8EBBE09A992736
:101E30008DB30895A6E1B0E044E050E024C0A8E1ED
:101E4000B0E042E050E01FC0262FE199FECF9FBBDB
:101E50008EBBE09A01970DB2021631F02DBB0FB682
:101E6000F894E29AE19A0FBE08950396272FEDDFCA
:101E7000EBDF252FEADF242FE8CF0196272FE5DFC0
:101E8000E3CFDC01CB01FC01E199FECF06C0FFBB33
:101E9000EEBBE09A31960DB20D9241505040B8F72A
:061EA0000895F894FFCF45
:101EA600010000884269884F3BB4168F3837077F98
:101EB6000692069806B506230732076F07DF072D39
:101EC6002D2E2D004C2F313030004C2F4800494E1E
:101ED6005354414E54204655454C0020434F4E53D3
:101EE600554D5054494F4E004156455241474520A5
:101EF6004655454C002D2D0043555252454E542013
:101F060052504D004B4D2F480041564552414745D2
:101F1600205350454544004B4D0054524156454CC4
:101F260045440044495354414E4345004D4F4445B2
:101F3600204E4F5420534554004D4F44453A2000FF
:00000001FF
