:100000000C940B010C94360F0C94D80F0C94221006
:100010000C9428010C94E4100C9428010C942801F1
:100020000C9428010C9428010C9428010C942801AC
:100030000C9428010C94630C0C9428010C94280156
:100040000C941C140C9428010C9428010C94280185
:100050000C9428010C9428010C9428010C9428017C
:100060000C9428010C94280107634236B79BD8A74B
:100070001A39685618AEBAAB558C1D3CB7CC5763CD
:10008000BD6DEDFD753EF6177231BF000000803F7B
:1000900008000000BE922449123EABAAAA2ABECD97
:1000A000CCCC4C3E00000080BEABAAAAAA3E000009
:1000B0000000BF000000803F000000000008417801
:1000C000D3BB4387D1133D190E3CC3BD4282AD2B38
:1000D0003E68EC8276BED98FE1A93E4C80EFFFBE30
:1000E00001C4FF7F3F00000000000000000000FF8F
:1000F000C1D5C1FE0C020000005C222A221D3EC1B7
:10010000C9C93E0808080808492A1C080000050358
:100110000000001C2241000041221C0000000205DA
:100120000208083E080800503000000808080808C7
:10013000006060000020100804023E5149453E0066
:10014000427F400042615149462141454B311814DC
:10015000127F1027454545393C4A4949300171090C
:1001600005033649494936064949291E0000000061
:10017000000000000000000000000000000000007F
:100180000000000000000000000000000000007EF1
:100190001111117E7F494949363E414141227F413B
:1001A00041221C7F494949417F090909013E4149D2
:1001B000497A7F0808087F00417F41002040413F85
:1001C000017F081422417F404040407F020C027FA3
:1001D0007F0408107F3E4141413E7F090909063EE8
:1001E0004151215E7F09192946464949493101019A
:1001F0007F01013F4040403F1F2040201F3F4038CB
:10020000403F6314081463070870080761514945AB
:1002100043000000000011241FBECFEFD8E0DEBF76
:10022000CDBF11E0A0E0B1E0E4EBF2E302C0059045
:100230000D92A438B107D9F727E0A4E8B1E001C0D6
:100240001D92A43EB207E1F70E9442050C94581992
:100250000C940000CF92DF92EF92FF92CF93DF9346
:1002600000D000D0CDB7DEB780919901C090C10118
:10027000D090C201E090C301F090C401282F30E07B
:1002800040E050E029833A834B835C83CA01B90183
:100290000E9402169B01AC0160E070E080E89FE3E1
:1002A0000E945815A701960169837A838B839C83EA
:1002B00069817A818B819C810E94E714462F572F98
:1002C000BC014093C1015093C2016093C30170937C
:1002D000C4018091CD019091CE01A091CF01B09148
:1002E000D00189839A83AB83BC832091C101309173
:1002F000C2014091C3015091C401BC01CD010E94D3
:10030000581569837A838B839C8369817A818B8179
:100310009C810E94D115609398010F900F900F90CF
:100320000F90DF91CF91FF90EF90DF90CF900895E5
:10033000CF93DF9300D000D0CDB7DEB78091960188
:10034000909197019C0140E050E029833A834B83D0
:100350005C83CA01B9010E9400162091D501309139
:10036000D6014091D7015091D80169837A838B835C
:100370009C8369817A818B819C810E94BE1620E0DA
:1003800030E041E655E469837A838B839C836981FD
:100390007A818B819C810E94BE1669837A838B83CC
:1003A0009C8369817A818B819C810E94D1156093A5
:1003B00099010F900F900F900F90DF91CF910895BA
:1003C000BF92CF92DF92EF92FF920F931F93CF9342
:1003D000DF93CDB7DEB72D970FB6F894DEBF0FBE13
:1003E000CDBF20919D0130919E0140919F01509180
:1003F000A00129833A834B835C838091D101909142
:10040000D201A091D301B091D4018D839E83AF839B
:10041000B8879C01AD0169817A818B819C810E94A2
:10042000BE1620E030E041E656E469837A838B8390
:100430009C8369817A818B819C810E94BE16462FA4
:10044000572FBC0149875A876B877C8720919D0174
:1004500030919E0140919F015091A0016D817E815C
:100460008F8198850E94BE1620E030E040E850E47D
:1004700069837A838B839C8369817A818B819C8158
:100480000E94BE168B018D879D838091940190916F
:1004900095019C0140E050E029833A834B835C83C3
:1004A000CA01B9010E94001620E030E04AE754E496
:1004B00069837A838B839C8369817A818B819C8118
:1004C0000E945815462F572FBC0140939D01509311
:1004D0009E0160939F017093A001809199018630E5
:1004E00008F4FFC0B090990120E030E048EC52E4FD
:1004F00069857A858B859C850E94BE166B017C017F
:100500008B2D90E0A0E0B0E089839A83AB83BC831D
:10051000BC01CD010E9402169B01AC01C982DA82A6
:10052000EB82FC8269817A818B819C810E945815C3
:10053000462F572FBC014093B9015093BA016093E5
:10054000BB017093BC012091B9013091BA01409177
:10055000BB015091BC0129833A834B835C8320E02B
:1005600030E0A90169817A818B819C810E94B21659
:1005700018160CF068C08091B9019091BA01A09151
:10058000BB01B091BC0189839A83AB83BC8320E01B
:1005900030E048EC52E4BC01CD010E94531587FFC6
:1005A00052C02091B9013091BA014091BB015091E4
:1005B000BC01C090A901D090AA01E090AB01F090DD
:1005C000AC0160E070E080E89FE30E945815A7014D
:1005D000960169837A838B839C8369817A818B817D
:1005E0009C810E94E714462F572FBC014093A9011C
:1005F0005093AA016093AB017093AC012091CD019F
:100600003091CE014091CF015091D00129833A839E
:100610004B835C832091A9013091AA014091AB01E9
:100620005091AC0169817A818B819C810E9458151F
:10063000462F572FBC014093B5015093B6016093EC
:10064000B7017093B8012091B1013091B20140918E
:10065000B3015091B40129833A834B835C839801A1
:100660004D855D8169817A818B819C810E94E7142F
:10067000462F572FBC014093B1015093B2016093B4
:10068000B3017093B4018091AD019091AE01A0913E
:10069000AF01B091B00189839A83AB83BC83980189
:1006A0004D855D81BC01CD010E94E614462F572F78
:1006B000BC014093AD015093AE016093AF017093C4
:1006C000B0012D960FB6F894DEBF0FBECDBFDF91FF
:1006D000CF911F910F91FF90EF90DF90CF90BF903F
:1006E000089589859A85AB85BC858093B9019093DF
:1006F000BA01A093BB01B093BC01A5CFCF93DF9308
:1007000000D000D00F92CDB7DEB7F89488E190E02A
:100710000E941E196093D5017093D6018093D70172
:100720009093D80184E290E00E941E196093D10159
:100730007093D2018093D3019093D40184E090E030
:100740000E941E19462F572FBC0149835A836B8381
:100750007C83CB01BA010E94B716892B21F0198244
:100760001A821B821C8289819A81AB81BC81809311
:10077000C9019093CA01A093CB01B093CC0180E052
:1007800090E00E941E19462F572FBC0149835A83BF
:100790006B837C83CB01BA010E94B716892B21F0B1
:1007A00019821A821B821C8289819A81AB81BC8149
:1007B0008093B5019093B601A093B701B093B801AF
:1007C00088E090E00E941E19462F572FBC014983F4
:1007D0005A836B837C83CB01BA010E94B716892BA5
:1007E00021F019821A821B821C8289819A81AB8135
:1007F000BC818093B1019093B201A093B301B093F7
:10080000B4018CE090E00E941E19462F572FBC01C6
:1008100049835A836B837C83CB01BA010E94B7164C
:10082000892B21F019821A821B821C8289819A816C
:10083000AB81BC818093A1019093A201A093A301FD
:10084000B093A40180E190E00E941E19462F572F1B
:10085000BC0149835A836B837C83CB01BA010E941C
:10086000B716892B21F019821A821B821C8289817A
:100870009A81AB81BC818093A5019093A601A0933E
:10088000A701B093A80188E290E00E9416198D8319
:1008900090E0A0E0B0E089839A83AB83BC83BC0185
:1008A000CD010E94001669837A838B839C836981C2
:1008B0007A818B819C810E94B716892B19F4AD81B6
:1008C000AF3F09F41D82BD81B093980184E190E0AF
:1008D0000E941E19462F572FBC0149835A836B83F0
:1008E0007C83CB01BA010E94B716892B21F01982B3
:1008F0001A821B821C8289819A81AB81BC81809380
:10090000CD019093CE01A093CF01B093D0018CE1A3
:1009100090E00E941E19462F572FBC0149835A832D
:100920006B837C83CB01BA010E94B716892B21F01F
:1009300019821A821B821C8289819A81AB81BC81B7
:100940008093C1019093C201A093C301B093C401ED
:1009500080E290E00E941E19462F572FBC01498368
:100960005A836B837C83CB01BA010E94B716892B13
:1009700021F019821A821B821C8289819A81AB81A3
:10098000BC818093A9019093AA01A093AB01B0937D
:10099000AC018AEF90E020E931E0F9013197F1F7FD
:1009A00001970097D1F778940F900F900F900F90C8
:1009B0000F90DF91CF910895F89465EF71E789E288
:1009C00090E00E9442194091C9015091CA01609182
:1009D000CB017091CC0184E090E00E9436194091E7
:1009E000B5015091B6016091B7017091B80180E0F6
:1009F00090E00E9436194091B1015091B20160918E
:100A0000B3017091B40188E090E00E9436194091E2
:100A1000A1015091A2016091A3017091A4018CE009
:100A200090E00E9436196091980188E290E00E945F
:100A300024194091CD015091CE016091CF01709168
:100A4000D00184E190E00E9436194091C10150919B
:100A5000C2016091C3017091C4018CE190E00E94D9
:100A600036194091A9015091AA016091AB01709192
:100A7000AC0180E290E00E9436198CE3809304017F
:100A800078940895CDB7DEB7A7970FB6F894DEBF78
:100A90000FBECDBF3D9880917A00866880937A0022
:100AA00080917C00806C80937C0080917C008560CC
:100AB00080937C008AB1837F8AB98BB18C608BB9BB
:100AC00080916900826080936900809169008460F0
:100AD000809369008DB383608DBB8AB18F738AB9AF
:100AE0008BB1806C8BB92098289A809168008560C2
:100AF000809368008BB385608BBB80916B008160B5
:100B000080936B0080916D00806880936D001092DF
:100B100080008091810083608093810080916F00CC
:100B2000816080936F008CED9BE0909385008093B3
:100B3000840085B5836085BD81E080936E0016BC1E
:100B40000E947E03E0910901F0910A0109957894D1
:100B5000B12C2090110130901201C0900F01D09063
:100B600010013C8E2B8EDE8ACD8AD88ECF8A3E8EA7
:100B70002D8E7101860120910D0130910E013A8F69
:100B8000298F3DA32CA33FA32EA340911301509185
:100B9000140159A348A380910B0190910C019BA3D0
:100BA0008AA32091AD013091AE014091AF015091E7
:100BB000B001298B3A8B4B8B5C8B20E030E0A90194
:100BC00069897A898B899C890E94531518160CF4BF
:100BD00056C080917A00806480937A0080917A0078
:100BE00086FDFCCF8091780090917900892B09F4E3
:100BF00078C08091A5019091A601A091A701B09124
:100C0000A801898B9A8BAB8BBC8B20E030E0A901CB
:100C1000BC01CD010E94B21640E050E0BA011816A6
:100C200034F580917800909179004090A501509022
:100C3000A6016090A7017090A8019C0140E050E0DF
:100C4000298B3A8B4B8B5C8BCA01B9010E94001631
:100C5000A3019201698B7A8B8B8B9C8B69897A8932
:100C60008B899C890E945815462F572FBC014093B1
:100C7000AD015093AE016093AF017093B0014E99F6
:100C800083C0B1107AC08FE48BB980919C01813010
:100C900009F440C0BB24B39480919C018111C7C466
:100CA00080910201833009F44DC208F073C0813095
:100CB00009F4BDC3823009F441C361E081E0F7016A
:100CC000099561E083E691E0F801099580910201C0
:100CD0004AE0BE01675F7F4F90E00E94B01861E07C
:100CE00013C28091A1019091A201A091A301B091A2
:100CF000A401898B9A8BAB8BBC8B2091B101309175
:100D0000B2014091B3015091B401BC01CD010E94E8
:100D1000E614AACF80910201823009F0BBCF209166
:100D2000A5013091A6014091A7015091A801298BFE
:100D30003A8B4B8B5C8B20E030E040E05FE36989CD
:100D40007A898B899C890E94E714462F572FBC0112
:100D50004093A5015093A6016093A7017093A80149
:100D60004091A5015091A6016091A7017091A80141
:100D700080E190E00E9436198DCF4E9B8BCF8BB1D6
:100D800090E489278BB904C04E9B86CFB110F7CF72
:100D9000B12C82CF843009F439C1853009F08DCF70
:100DA0008091B1019091B201A091B301B091B401D1
:100DB000898B9A8BAB8BBC8B22E030E0DE011196E5
:100DC0004D01AD0169897A898B899C890E943D1307
:100DD00061E081E0F701099561E085E191E0F801CA
:100DE00009952091B1013091B2014091B301509128
:100DF000B401298B3A8B4B8B5C8B20E030E0A9014E
:100E000069897A898B899C890E945315782CA92C31
:100E100018160CF48CC061E08AE191E0F8010995A4
:100E200061E081E4F701099561E08FE191E0F8016B
:100E3000099569E081E0F701099561E082E291E0BE
:100E4000F80109952091C5013091C6014091C70173
:100E50005091C801298B3A8B4B8B5C8B21E030E0A1
:100E6000472D5A2D69897A898B899C890E943D1367
:100E700061E181E0F70109952091C5013091C6013A
:100E80004091C7015091C801298B3A8B4B8B5C8BE9
:100E900020E030E0A90169897A898B899C890E94C8
:100EA000531518160CF47CC062E08EE291E0F80154
:100EB000099566E187E3F701099561E081E391E037
:100EC000F80109952091AD013091AE014091AF013B
:100ED0005091B001298B3A8B4B8B5C8B20E030E03A
:100EE000472D5A2D69897A898B899C890E943D13E7
:100EF00060E281E0F701099561E082E291E0F801AA
:100F0000099568E285E0F701099561E087E391E0E2
:100F1000F801099561E0872D9A2DF801099568E29D
:100F200086E4F701099561E080E291E0EDC020914F
:100F3000B1013091B2014091B3015091B401298BBC
:100F40003A8B4B8B5C8B20E030E040E85FE36989B3
:100F50007A898B899C890E94531587FF1DC08091D7
:100F6000B1019091B201A091B301B091B401898B0C
:100F70009A8BAB8BBC8B20E030E0A901BC01CD018A
:100F80000E94B216181644F461E089E591E0F80178
:100F9000099561E0C40142CF61E0872D9A2D3ECFD3
:100FA0002091C5013091C6014091C7015091C801FF
:100FB000298B3A8B4B8B5C8B20E030E0A90169894F
:100FC0007A898B899C890E94B2161816DCF480916C
:100FD000C5019091C601A091C701B091C801898B4C
:100FE0009A8BAB8BBC8B20E030E040E85FE3BC0128
:100FF000CD010E94531587FF05C062E080E3ECA19C
:10100000FDA1099562E0872D9A2D51CF809199011C
:10101000282F30E040E050E0298B3A8B4B8B5C8BE3
:10102000CA01B9010E94001622E030E0AE014F5F14
:101030005F4F4A01698B7A8B8B8B9C8B69897A898C
:101040008B899C890E943D1367E086E0F701099532
:1010500080919901A92C81115AC062E08EE291E041
:10106000F80109956BE088E3F701099561E08DE3EC
:1010700091E0F801099560E281E0F701099561E0EE
:1010800082E291E0F801099568E285E0F7010995AF
:1010900061E089E391E0F80109952091BD0130916B
:1010A000BE014091BF015091C001298B3A8B4B8BFF
:1010B0005C8B21E030E0482D5A2D69897A898B8933
:1010C0009C890E943D138091BD019091BE01A09129
:1010D000BF01B091C001898B9A8BAB8BBC8B20E098
:1010E00030E0A901BC01CD010E94531561E0181642
:1010F00034F18AE191E0F801099568E288E3F701AB
:10110000099561E082E491E0F80109954EC3809170
:101110009901811109C080919901882329F062E029
:1011200089E591E0F8010995809199014AE0BE01B5
:10113000675F7F4F90E00E94B01862E091CF882DEA
:101140009A2DD9CF61E081E0F701099561E086E44D
:1011500091E0F801099580918E0190918F0161E0F5
:101160008536910508F4CCC080E2E98DFA8D0995A9
:1011700080918E0190918F014AE0BE01675F7F4FA1
:101180000E94B01861E0F801099561E081E4F7017F
:10119000099561E081E591E0F801099569E081E058
:1011A000F701099561E082E291E0F801099520914B
:1011B000B9013091BA014091BB015091BC01298B1A
:1011C0003A8B4B8B5C8B21E030E0AE014F5F5F4F81
:1011D0004A0169897A898B899C890E943D1361E162
:1011E00081E0F70109952091B9013091BA01409150
:1011F000BB015091BC01298B3A8B4B8B5C8B20E05F
:1012000030E046EC52E469897A898B899C890E9496
:10121000B216782CA92C1816B4F08091B9019091CF
:10122000BA01A091BB01B091BC01898B9A8BAB8BA9
:10123000BC8B20E030E0A901BC01CD010E94531518
:1012400018160CF472C062E08AE191E0F801099589
:1012500066E186E3F70109958091990161E08630A6
:1012600008F466C085E591E0F801099560E281E047
:10127000F701099561E082E291E0F801099568E2E1
:1012800085E0F701099561E08FE591E0F8010995A6
:101290002091B5013091B6014091B7015091B8014C
:1012A000298B3A8B4B8B5C8B21E030E0472D5A2DFC
:1012B00069897A898B899C890E943D138091B50147
:1012C0009091B601A091B701B091B801898B9A8B2A
:1012D000AB8BBC8B20E030E0A901BC01CD010E94AA
:1012E000531561E018163CF18AE191E0F801099587
:1012F00068E286E3F701099561E085E591E004CFB6
:101300008BE491E0F801099580918E0190918F0115
:101310004AE0BE01675F7F4F0E94B01861E0F801AC
:10132000099561E08EE491E02ECF62E0C4018ECF9A
:101330008BE591E099CF872D9A2DD8CF8091990197
:10134000282F30E040E050E0298B3A8B4B8B5C8BB0
:10135000CA01B9010E94001622E030E0AE014F5FE1
:101360005F4F698B7A8B8B8B9C8B69897A898B8990
:101370009C890E943D1367E086E0F7010995809102
:101380009901811131C062E08EE291E0F801099586
:101390006BE088E3F701099561E08DE391E0F801E6
:1013A000099560E281E0F701099561E082E291E050
:1013B000F801099568E285E0F701099561E08FE59C
:1013C00091E0F801099580919801811125C061E0B3
:1013D0008EE291E0F801099568E288E3F70109954A
:1013E00061E08DE391E090CE80919901811109C077
:1013F00080919901882329F062E089E591E0F80164
:101400000995809199014AE0BE01675F7F4F90E0A6
:101410000E94B01862E0BACF809198014AE0BE0104
:10142000675F7F4F90E00E94B01861E0D3CF2091BA
:10143000B1013091B2014091B3015091B401298BB7
:101440003A8B4B8B5C8B22E030E0AE014F5F5F4FFD
:101450004A0169897A898B899C890E943D1361E0E0
:1014600081E0F701099561E085E191E0F8010995D6
:101470002091B1013091B2014091B3015091B4017A
:10148000298B3A8B4B8B5C8B20E030E0A90169897A
:101490007A898B899C890E945315782CA92C18165F
:1014A0000CF456C061E08AE191E0F801099561E031
:1014B00081E4F701099561E08FE191E0F801099578
:1014C00069E081E0F701099561E082E291E0F801CD
:1014D00009952091C9013091CA014091CB015091E9
:1014E000CC01298B3A8B4B8B5C8B21E030E0472D74
:1014F0005A2D69897A898B899C890E943D1361E103
:1015000081E0F70109952091C9013091CA0140910C
:10151000CB015091CC01298B3A8B4B8B5C8B20E01B
:1015200030E0A90169897A898B899C890E945315C9
:1015300018160CF446C062E08EE291E0F8010995BD
:1015400066E186E4F701099561E082E591E0B8CCB7
:101550002091B1013091B2014091B3015091B40199
:10156000298B3A8B4B8B5C8B20E030E040E85FE3CB
:1015700069897A898B899C890E94531587FF1DC0D0
:101580008091B1019091B201A091B301B091B401E9
:10159000898B9A8BAB8BBC8B20E030E0A901BC011E
:1015A000CD010E94B216181644F461E089E591E07D
:1015B000F801099561E0C40178CF61E0872D9A2D8B
:1015C00074CF2091C9013091CA014091CB01509153
:1015D000CC01298B3A8B4B8B5C8B20E030E0A9014E
:1015E00069897A898B899C890E94B2161816DCF465
:1015F0008091C9019091CA01A091CB01B091CC0119
:10160000898B9A8BAB8BBC8B20E030E040E85FE3AA
:10161000BC01CD010E94531587FF05C062E080E345
:10162000EEA1FFA1099562E0872D9A2D87CF8091C9
:101630000201823009F4C0C0833009F407C181304F
:1016400009F0B3C0F89420919B0130E0AFEFBFEFF9
:101650000E94C314698B7A8B8B8B9C8B0E94021621
:10166000762E872E982EA92E809196019091970123
:101670009C0140E050E0298B3A8B4B8B5C8BCA017C
:10168000B9010E940016272D382D492D5A2D698B3E
:101690007A8B8B8B9C8B69897A898B899C890E9438
:1016A000E7149B01AC0160E070E080E291E40E94ED
:1016B00058156F8F472E582E692E809105019091F5
:1016C0000601A0910701B0910801898B9A8BAB8B21
:1016D000BC8B20E030E04AE754E4BC01CD010E941D
:1016E000581520E030E040E752E4698B7A8B8B8B11
:1016F0009C8B69897A898B899C890E945815762EE2
:10170000872E982EA92E4F8D542D652D762D88E18C
:1017100090E00E943619472D582D692D7A2D84E2CC
:1017200090E00E94361965EF71E789E290E00E942F
:10173000421961E08BE691E0EF89F88D099569E047
:1017400080E0ED8DFE8D099528E030E0AE014F5F21
:101750005F4FFF8DF98B4A8A5B8A6C8A69897A8927
:101760008B899C890E943D1361E0CE010196EF892F
:10177000F88D099562E180E0ED8DFE8D099528E0F8
:1017800030E0AE014F5F5F4F798A8A8A9B8AAC8ACC
:1017900069897A898B899C890E943D1361E0CE0119
:1017A0000196EF89F88D09957894E8A1F9A109953A
:1017B000EAA1FBA10995F5C9209105013091060127
:1017C0004091070150910801298B3A8B4B8B5C8B20
:1017D00021E030E0AE014F5F5F4F69897A898B89E4
:1017E0009C890E943D1361E080E0F101099561E070
:1017F00080E791E0F601099561E0CE010196F601DE
:1018000009952091A5013091A6014091A701509121
:10181000A801298B3A8B4B8B5C8B21E030E0AE0129
:101820004F5F5F4F69897A898B899C890E943D133C
:1018300069E080E0F101099561E085E791E0F6015A
:10184000099561E0CE010196F6015FCC789461E0E4
:1018500080E0EB8DFC8D099561E08AE791E0ED89F0
:10186000FE89099580919601909197019C0140E035
:1018700050E0298B3A8B4B8B5C8B2AE0AE01475FA3
:101880005F4F69897A898B899C890E94BB1861E0C6
:10189000ED89FE89099569E080E0EB8DFC8D099565
:1018A00061E08FE791E0ED89FE89099580919B01C8
:1018B0004AE0BE01675F7F4F90E00E94B01861E090
:1018C000ED89FE8922CC1F920F920FB60F92112440
:1018D0002F923F924F925F926F927F928F929F9240
:1018E000AF92BF92CF92DF92EF92FF920F931F932E
:1018F0002F933F934F935F936F937F938F939F9318
:10190000AF93BF93EF93FF93CF93DF93CDB7DEB742
:101910006097DEBFCDBF80910001909101010197DA
:10192000909301018093000180919901882349F0EF
:1019300080919901843628F480919A018F5F809379
:101940009A0180919901843638F180919A01282F6B
:1019500030E040E050E02B873C874D875E87CA012E
:10196000B9010E94001620E030E040E85EE36B879A
:101970007C878D879E876B857C858D859E850E9463
:10198000BE16462F572FBC014093BD015093BE0198
:101990006093BF017093C0018091040181110FC059
:1019A00080919401909195018032934040F4809110
:1019B000960190919701892B11F40E94DC0480918B
:1019C0000401811106C080919901811102C00E9419
:1019D000DC044E9986C080910301815080930301FD
:1019E00080919C01811146C080910301853108F0EE
:1019F00041C0809103018823E9F180910201813087
:101A0000B9F1823019F484E08093020180910301DE
:101A100081110BC080919C01811107C0809102014E
:101A2000833019F481E080939C01809100019091B2
:101A30000101049711F4559A5D98809100019091ED
:101A40000101039709F059C1AE014F5F5F4F5A0181
:101A50008AE0DA011D928A95E9F7559800E010E0D6
:101A600080E090E044244394512C20E030E045C0D5
:101A700085E0CACF80919C018111C8CF809103017C
:101A80008D3020F680910301882309F4BFCF809127
:101A90000201823019F18330A1F0813009F0B6CF14
:101AA0001092B1011092B2011092B3011092B401E0
:101AB0001092C9011092CA011092CB011092CC0170
:101AC00008C01092B5011092B6011092B7011092A1
:101AD000B8010E94DC040E947E0398CF1092980106
:101AE000F8CF88E180930301A0CF2F5F3F4F45E0FF
:101AF0004A95F1F72F3F310531F049B1407250E07E
:101B00004415550591F349B14072442E512C2F3F95
:101B1000310509F4F2C0FC0131963F018430910592
:101B20000CF0C6C0CF010832110508F49ECFE98041
:101B3000FA802B813C81CD80DE808F809884C70124
:101B4000820F931F8C0D9D1D880D991D9927498526
:101B50005A854817590709F0CBC09E2D8827820F58
:101B6000931F9C01990F440B550B2B873C874D8786
:101B70005E87CA01B9010E94021620E030E040E20F
:101B800051E46B877C878D879E876B857C858D85EF
:101B90009E850E9458151B018F87988B20E030E0AE
:101BA00048EC52E46B873C868D879E876B857C85ED
:101BB0008D859E850E94B21618167CF4C701FF0C15
:101BC000AA0BBB0B8B879C87AD87BE87BC01CD0161
:101BD0000E9402161B018F87988BC101AF85B889BF
:101BE0008093840190938501A0938601B09387012F
:101BF0009C2D882788279F77880D991D9C01990F18
:101C0000440B550B2B873C874D875E87CA01B90172
:101C10000E94021620E030E040E251E46B877C87AE
:101C20008D879E876B857C858D859E850E94581546
:101C3000462F572FBC014B875C876D877E8720E03E
:101C400030E04AEF52E46B857C858D859E850E944D
:101C5000B21618169CF4C601DD0CAA0BBB0B8B87C1
:101C60009C87AD87BE87BC01CD010E940216462F1E
:101C7000572FBC014B875C876D877E872B853C8502
:101C80004D855E85209388013093890140938A01B8
:101C900050938B01C7FE2CC0DA01C901B058809364
:101CA000880190938901A0938A01B0938B0120C091
:101CB00080FD1AC0C80143E0969587954A95E1F7E3
:101CC000880F991FF501E80FF91F40815181440FDA
:101CD000551F2131310508F041608A0D9B1DDC0143
:101CE0004D935C930F5F1F4F0832110508F01FCF13
:101CF000C3018535910509F0B8CE8091000190911E
:101D00000101892B09F083C00E9498010E94E00123
:101D100080919901811102C010929A0180919901DC
:101D2000863008F459C08091AD019091AE01A09128
:101D3000AF01B091B0018B879C87AD87BE872091A2
:101D4000B5013091B6014091B7015091B801BC0185
:101D5000CD010E94581520E030E048EC52E46B873A
:101D60007C878D879E876B857C858D859E850E946F
:101D7000BE166B877C878D879E876B857C858D855E
:101D80009E850E94D115462F572F50938F01409367
:101D90008E012091CD013091CE014091CF01509123
:101DA000D0012B873C874D875E8720E030E040E8FC
:101DB0005FE36B857C858D859E850E94E714462FA9
:101DC000572FBC014093CD015093CE016093CF01BA
:101DD0007093D0010E942A0180910401882329F088
:101DE0008091040181508093040180919C018111B4
:101DF00004C01092970110929601109295011092D2
:101E0000940184E090E090930101809300018CEDB7
:101E10009BE0909385008093840060960FB6F894C1
:101E2000DEBF0FBECDBFDF91CF91FF91EF91BF918C
:101E3000AF919F918F917F916F915F914F913F9162
:101E40002F911F910F91FF90EF90DF90CF90BF9057
:101E5000AF909F908F907F906F905F904F903F904A
:101E60002F900F900FBE0F901F9018951F920F92FA
:101E70000FB60F9211242F933F934F935F936F935D
:101E80007F938F939F93AF93BF93EF93FF93CF93E2
:101E9000DF93CDB7DEB72897DEBFCDBF8091960127
:101EA000909197010196909397018093960180916C
:101EB0009C01882359F08091960190919701019699
:101EC00029F480919B018F5F80939B018091C901D0
:101ED0009091CA01A091CB01B091CC0189839A83E2
:101EE000AB83BC838091D5019091D601A091D7019D
:101EF000B091D8018D839E83AF83B8879C01AD01DB
:101F000069817A818B819C810E94E714462F572F2B
:101F1000BC014093C9015093CA016093CB017093F7
:101F2000CC018091B9019091BA01A091BB01B0910F
:101F3000BC0189839A83AB83BC8320E030E0A90194
:101F4000BC01CD010E9453151816CCF02091C5019B
:101F50003091C6014091C7015091C8016D817E81C9
:101F60008F8198850E94E714462F572FBC0140931C
:101F7000C5015093C6016093C7017093C8012896AC
:101F80000FB6F894DEBF0FBECDBFDF91CF91FF91AA
:101F9000EF91BF91AF919F918F917F916F915F91E1
:101FA0004F913F912F910F900FBE0F901F9018955A
:101FB0001F920F920FB60F9211242F933F934F93BE
:101FC0005F936F937F938F939F93AF93BF93EF93A1
:101FD000FF934B9919C00E94FB13462F572F509324
:101FE000910140939001FF91EF91BF91AF919F912B
:101FF0008F917F916F915F914F913F912F910F90B2
:102000000FBE0F901F9018950E94FB13462F572F5D
:10201000509393014093920180919201909193018A
:10202000209190013091910140919401509195013E
:10203000840F951F821B930B9093950180939401BD
:102040005B9AD1CF1F920F920FB60F9211242F934C
:102050003F934F935F936F937F938F939F93AF9330
:10206000BF93EF93FF93CF93DF9300D000D0CDB712
:10207000DEB7189929C080919C018130E1F58091EB
:1020800002018230C1F54E9936C0809105019091D0
:102090000601A0910701B091080189839A83AB835F
:1020A000BC8320E030E040E05FE3BC01CD010E9452
:1020B000E614462F572FBC014093050150930601AB
:1020C00060930701709308010F900F900F900F908D
:1020D000DF91CF91FF91EF91BF91AF919F918F9140
:1020E0007F916F915F914F913F912F910F900FBE14
:1020F0000F901F90189580919C01813089F48091F8
:102100000201833069F44E990BC080919601909141
:102110009701845F91409093970180939601D4CF6B
:1021200080919C01811142C0809102018130F1F5C2
:102130004E993CC08091AD019091AE01A091AF014C
:10214000B091B00189839A83AB83BC8320E030E0F7
:1021500040E05FE3BC01CD010E94E614462F572FFB
:10216000BC014093AD015093AE016093AF017093F9
:10217000B0018091AD019091AE01A091AF01B091FD
:10218000B0018093A1019093A201A093A301B09309
:10219000A4014091A1015091A2016091A30170910D
:1021A000A4018CE090E00E9436198ECF809102014C
:1021B000843040F4809102018F5F8093020180930C
:1021C000020182CF81E0FBCF1F920F920FB60F92D8
:1021D00011242F933F934F935F936F937F938F932C
:1021E0009F93AF93BF93EF93FF93CF93DF9300D071
:1021F00000D0CDB7DEB74F9929C080919C018130C6
:10220000E1F5809102018230C1F54E9936C080918E
:10221000050190910601A0910701B0910801898301
:102220009A83AB83BC8320E030E040E05FE3BC01F5
:10223000CD010E94E714462F572FBC0140930501A2
:102240005093060160930701709308010F900F905F
:102250000F900F90DF91CF91FF91EF91BF91AF91D0
:102260009F918F917F916F915F914F913F912F91AE
:102270000F900FBE0F901F90189580919C01813098
:1022800089F480910201833069F44E990BC08091EA
:102290009601909197018C509E4F90939701809357
:1022A0009601D4CF80919C01811142C0809102019E
:1022B0008130F1F54E993CC08091AD019091AE0115
:1022C000A091AF01B091B00189839A83AB83BC83A5
:1022D00020E030E040E05FE3BC01CD010E94E71464
:1022E000462F572FBC014093AD015093AE01609330
:1022F000AF017093B0018091AD019091AE01A091BA
:10230000AF01B091B0018093A1019093A201A0937D
:10231000A301B093A4014091A1015091A201609149
:10232000A3017091A4018CE090E00E9436198ECF39
:1023300080910201823040F08091020181508093AF
:1023400002018093020182CF83E0FBCF2C986623A9
:10235000A9F02B9A27E030E090E0AC01022E02C0F9
:10236000559547950A94E2F740FF0AC02A9A299AA0
:1023700029982150310988F72C9A08952B98EACF93
:102380002A98F5CF60E00C94A611CF93DF93249A9E
:10239000259A239A229A219A2D9A2C9A80E49CE9D4
:1023A0000197F1F72D988CEB92E020E931E0F901EB
:1023B0003197F1F701970097D1F72D9A2C9881E288
:1023C0000E94C21183E10E94C21186E00E94C211E4
:1023D00082EC0E94C21180E20E94C21189E00E9438
:1023E000C21180E80E94C21180E40E94C211C8EFAD
:1023F000D1E061E080E00E94A61121972097C9F703
:1024000088E00E94C2118CE0DF91CF910C94C21140
:1024100080E80E94C21180E40E94C2111092D10390
:102420001092D203E9EDF1E0119283E0E13DF8076B
:10243000D9F708958093D1036093D2030895CF9381
:10244000DF9380E80E94C21180E40E94C211C9EDAE
:10245000D1E061E089910E94A61183E0C13DD807D7
:10246000C1F7DF91CF910895882319F080E20C9491
:10247000C21184E2FCCF962F969596959695E82FFB
:10248000F0E084E5989FE00DF11D1124E752FE4F26
:102490002081677081E090E0DC0102C0AA0FBB1FC1
:1024A0006A95E2F7BD01442319F02A2B2083089591
:1024B00060952623FBCFBF92CF92DF92EF92FF92DF
:1024C0000F931F93CF93DF93C62F25E0269F8001A4
:1024D000112497E0699F700111248052990B289F65
:1024E0006001299FD00C1124D0E08D2F90E080173F
:1024F000910709F051C08091D1038F5F9C2F990FF4
:10250000990F9C0F890F8093D103843558F08091E7
:10251000D2031092D1038F5F97E0C99F800D1124E1
:102520008093D2038091D203803320F01092D103A4
:102530001092D203DF91CF911F910F91FF90EF90F6
:10254000DF90CF90BF9008958D2F6C2F0E94A31421
:10255000F601E80FF11DE651FF4FE4913B0D2D0F01
:10256000F0E08B2D0E94A31402C0F595E7958A95A3
:10257000E2F741E0E0FF40E0632F822F0E943B1230
:10258000B3943091D2032091D1038B2D90E08E151E
:102590009F05D1F6DF5FA9CFB12CF3CF1F93CF9367
:1025A000DF93162FEC018991811104C0DF91CF9147
:1025B0001F910895612F0E945B12F5CFCF93DF9397
:1025C0009B01FC01DC01A60FB71F80E090E02150C9
:1025D0003109821793071CF0DF91CF910895419143
:1025E0005E91EF01219758834C930196F0CFEF92C3
:1025F000FF920F931F93CF93DF937B01EA019B011F
:10260000E0E0F0E00AE010E0009739F5CF0120E3C8
:102610008C179D0764F19E012E1B3F0B8901CE177D
:10262000DF0714F400E010E00E0F1F1FCE17DF07C6
:1026300014F420E030E02E0F3F1FE701C20FD31F3C
:10264000B801C7010E94DE121882C801DF91CF9144
:102650001F910F91FF90EF900895B8010E94AF1461
:102660003196805DD9018D939D01CB01CDCFD701EE
:10267000A80FB91F2C930196CBCF2F923F924F9268
:102680005F926F927F928F929F92AF92BF92CF9202
:10269000DF92EF92FF920F931F93CF93DF9300D0BF
:1026A00000D000D0CDB7DEB71B012C015A01890143
:1026B00069833A828B835C8269817A818B819C8178
:1026C0000E94CA156B0140E050E0B501C6010E94AE
:1026D000F7128D839E830115110509F473C0ED81F6
:1026E000FE81EA0DFB1D8EE28083C801012E000CE5
:1026F000AA0BBB0B89839A83AB83BC83BC01CD013E
:102700000E9402169B01AC0160E070E080E291E45F
:102710000E942B173B014C01C601DD0CAA0BBB0B21
:1027200089839A83AB83BC83BC01CD010E940216CE
:102730009B01AC0129823A824B825C8269817A8159
:102740008B819C810E94E614AD81BE811196AA0DF9
:10275000BB1DBE83AD839B01AC0169827A828B82F3
:102760009C8269817A818B819C810E94BE166983DB
:102770007A838B839C8369817A818B819C810E947F
:10278000CA15362F272FA8016D817E81832F922FA6
:102790000F900F900F900F900F900F90DF91CF91AF
:1027A0001F910F91FF90EF90DF90CF90BF90AF906F
:1027B0009F908F907F906F905F904F903F902F9061
:1027C0000C94F7120F900F900F900F900F900F90A6
:1027D000DF91CF911F910F91FF90EF90DF90CF90FD
:1027E000BF90AF909F908F907F906F905F904F9031
:1027F0003F902F900895CF93DF9300D000D0CDB7B6
:10280000DEB78FB7F8942091DB033091DC03409161
:10281000DD035091DE0329833A834B835C838FBFB2
:10282000789469817A818B819C810F900F900F90B1
:102830000F90DF91CF9108951F921FB61F92112420
:102840002F933F938F939F93AF93BF938091DB031D
:102850009091DC03A091DD03B091DE033091E3039E
:1028600023E0230F2D3750F50196A11DB11D2093B4
:10287000E3038093DB039093DC03A093DD03B09329
:10288000DE038091DF039091E003A091E103B0911A
:10289000E2030196A11DB11D8093DF039093E00335
:1028A000A093E103B093E203BF91AF919F918F9109
:1028B0003F912F911F901FBE1F90189526E8230F60
:1028C0000296A11DB11DD3CF28E030E090E84698D4
:1028D000482F4923442349F0459A469A969521501A
:1028E00031092115310599F708954598F6CF429A97
:1028F000439842980E946414429A0895429A439AD7
:1029000042980E946414429A08953D9A3E9A469ACB
:102910003B9A3A9A429A429A8AEF90E020E931E053
:10292000F9013197F1F701970097D1F742988AEFB3
:1029300090E020E931E0F9013197F1F70197009734
:10294000D1F7429A0895991B79E004C0991F961710
:1029500008F0961B881F7A95C9F78095089597FB14
:10296000072E16F4009407D077FD09D00E94D214E8
:1029700007FC05D03EF4909581959F4F0895709582
:1029800061957F4F0895A29FB001B39FC001A39F9F
:10299000700D811D1124911DB29F700D811D112498
:1029A000911D0895AA1BBB1B51E107C0AA1FBB1FA5
:1029B000A617B70710F0A61BB70B881F991F5A95CB
:1029C000A9F780959095BC01CD0108955058BB277B
:1029D000AA270E94FE140C9478160E946A1638F0FA
:1029E0000E94711620F039F49F3F19F426F40C94DC
:1029F00067160EF4E095E7FB0C946116E92F0E9430
:102A0000891658F3BA17620773078407950720F0F1
:102A100079F4A6F50C94AB160EF4E0950B2EBA2FB4
:102A2000A02D0B01B90190010C01CA01A0011124D4
:102A3000FF27591B99F0593F50F4503E68F11A1680
:102A4000F040A22F232F342F4427585FF3CF469511
:102A500037952795A795F0405395C9F77EF41F1633
:102A6000BA0B620B730B840BBAF09150A1F0FF0FFD
:102A7000BB1F661F771F881FC2F70EC0BA0F621FE9
:102A8000731F841F48F4879577956795B795F795D9
:102A90009E3F08F0B0CF9395880F08F09927EE0F6E
:102AA0009795879508950E943D1608F481E0089552
:102AB0000E946C150C9478160E94711658F00E94B2
:102AC0006A1640F029F45F3F29F00C946116511109
:102AD0000C94AC160C9467160E94891668F399231F
:102AE000B1F3552391F3951B550BBB27AA2762170A
:102AF0007307840738F09F5F5F4F220F331F441F17
:102B0000AA1FA9F335D00E2E3AF0E0E832D091504A
:102B10005040E695001CCAF72BD0FE2F29D0660F37
:102B2000771F881FBB1F261737074807AB07B0E87A
:102B300009F0BB0B802DBF01FF2793585F4F3AF080
:102B40009E3F510578F00C9461160C94AC165F3FD3
:102B5000E4F3983ED4F3869577956795B795F79506
:102B60009F5FC9F7880F911D9695879597F90895EE
:102B7000E1E0660F771F881FBB1F6217730784078A
:102B8000BA0720F0621B730B840BBA0BEE1F88F799
:102B9000E09508950E94D1156894B1110C94AC167B
:102BA00008950E94911688F09F5798F0B92F9927A1
:102BB000B751B0F0E1F0660F771F881F991F1AF028
:102BC000BA95C9F714C0B13091F00E94AB16B1E0CC
:102BD00008950C94AB16672F782F8827B85F39F0CB
:102BE000B93FCCF3869577956795B395D9F73EF4C1
:102BF00090958095709561957F4F8F4F9F4F089569
:102C0000E89409C097FB3EF4909580957095619586
:102C10007F4F8F4F9F4F9923A9F0F92F96E9BB273C
:102C20009395F695879577956795B795F111F8CFB8
:102C3000FAF4BB0F11F460FF1BC06F5F7F4F8F4F23
:102C40009F4F16C0882311F096E911C0772321F019
:102C50009EE8872F762F05C0662371F096E8862FB1
:102C600070E060E02AF09A95660F771F881FDAF708
:102C7000880F9695879597F90895990F0008550F35
:102C8000AA0BE0E8FEEF16161706E807F907C0F0F2
:102C900012161306E407F50798F0621B730B840BFA
:102CA000950B39F40A2661F0232B242B252B21F4D4
:102CB00008950A2609F4A140A6958FEF811D811D74
:102CC000089597F99F6780E870E060E008959FEFAE
:102CD00080EC089500240A941616170618060906B3
:102CE000089500240A941216130614060506089582
:102CF000092E0394000C11F4882352F0BB0F40F40A
:102D0000BF2B11F460FF04C06F5F7F4F8F4F9F4F49
:102D1000089557FD9058440F551F59F05F3F71F0CB
:102D20004795880F97FB991F61F09F3F79F0879532
:102D30000895121613061406551FF2CF4695F1DFBB
:102D400008C0161617061806991FF1CF869571054B
:102D5000610508940895E894BB2766277727CB017F
:102D600097F908950E943D1608F48FEF08950E9488
:102D7000911680E090E009F0881F08950E94D11616
:102D80000C9478160E946A1638F00E94711620F092
:102D9000952311F00C9461160C94671611240C9471
:102DA000AC160E94891670F3959FC1F3950F50E001
:102DB000551F629FF001729FBB27F00DB11D639FED
:102DC000AA27F00DB11DAA1F649F6627B00DA11D93
:102DD000661F829F2227B00DA11D621F739FB00D39
:102DE000A11D621F839FA00D611D221F749F3327A9
:102DF000A00D611D231F849F600D211D822F762F42
:102E00006A2F11249F5750409AF0F1F088234AF01E
:102E1000EE0FFF1FBB1F661F771F881F915050408A
:102E2000A9F79E3F510580F00C9461160C94AC16E6
:102E30005F3FE4F3983ED4F3869577956795B79511
:102E4000F795E7959F5FC1F7FE2B880F911D96952B
:102E5000879597F90895FA01EE0FFF1F3096210527
:102E60003105A1F16115710561F48038BFE39B075D
:102E700049F168949038810561F08038BFEF9B0775
:102E800041F099234AF5FF3FE1053105210519F18C
:102E9000E8940894E795D901AA2329F4AB2FBE2F13
:102EA000F85FD0F310C0FF5F70F4A695E0F7F73934
:102EB00050F019F0FF3A38F49F779F930DD00F90A0
:102EC00007FC9058089546F00C94671660E070E097
:102ED00080E89FE308954FE79F775F934F933F9379
:102EE0002F930E9426182F913F914F915F910E943E
:102EF000BE160C94831729F416F00C9461160C94EA
:102F0000AB160C9467160E949116A8F39638A0F79A
:102F100007F80F92E8942BE33AEA48EB5FE70E9448
:102F2000D4160F920F920F924DB75EB70F920E9478
:102F30006E18E8E6F0E00E94B5174F915F91EF91AF
:102F4000FF91E595EE1FFF1F49F0FE57E06844270B
:102F5000EE0F441FFA95E1F74195550B0E94E817D3
:102F60000F9007FE0C94DC170895DF93CF931F9307
:102F70000F93FF92EF92DF927B018C01689406C061
:102F8000DA2EEF010E94D116FE01E894A591259159
:102F9000359145915591A6F3EF010E94FE14FE0173
:102FA0009701A801DA9469F7DF90EF90FF900F91F5
:102FB0001F91CF91DF9108959B01AC0160E070E01B
:102FC00080E89FE30C9458150C9461160C94A21899
:102FD0000E949116D8F39923C9F3940F511DA3F3BE
:102FE0009150504094F059F0882332F0660F771FCB
:102FF000881F91505040C1F79E3F51052CF7880F14
:10300000911D9695879597F908955F3FACF0983E8E
:103010009CF0BB27869577956795B79508F4B160C6
:103020009395C1F7BB0F58F711F460FFE8CF6F5FBE
:103030007F4F8F4F9F4FE3CF0C94AC1616F00C943C
:10304000A2180C94671668940C9461160E9491164D
:10305000A8F39923C1F3AEF3DF93CF931F930F939C
:10306000FF92C92FDD2788232AF02197660F771F4B
:10307000881FDAF720E030E040E85FEB9FE3883913
:1030800020F0803E38F021968F770E94E714E0E927
:10309000F0E004C00E94E714EDEBF0E00E94B517E9
:1030A0008B01BE01EC01FB2E6F5771097595771FDF
:1030B000880B990B0E94021628E132E741E35FE397
:1030C0000E94D116AF2D9801AE01FF900F911F9174
:1030D000CF91DF910E94FE140C947816FA01DC0166
:1030E000AA0FBB1F9B01AC01BF5728F4222733272F
:1030F0004427507820C0B75190F4AB2F0024469558
:1031000037952795011CA395D2F3002071F0220F6B
:10311000331F441FB395DAF30ED00C94E6146130DC
:103120007105A0E88A07B94630F49B01AC01662717
:10313000772788279078309621F020833183428347
:10314000538308959F3F31F0915020F487957795F0
:103150006795B795880F911D9695879597F908956E
:10316000BB274A3031F4992322F4BDE29095819532
:103170009F4F0C94ED18BB272A3051F4992342F449
:10318000BDE290958095709561957F4F8F4F9F4FD1
:103190000C94CB18BB27FA01A62F62177105810585
:1031A0009105330B30FB66F0AA27660F771F881F47
:1031B000991FAA1FA21710F0A21B63953850A9F7F8
:1031C000A05DAA3308F0A95DA19336F7B111B193C0
:1031D0001082CA010C940619BB27FB015527AA27A8
:1031E000880F991FAA1FA41710F0A41B8395505194
:1031F000B9F7A05DAA3308F0A95DA193009779F70C
:10320000B111B1931192CB010C940619DC01FC01B0
:10321000672F71917723E1F7329704C07C916D930A
:1032200070836291AE17BF07C8F30895F999FECF76
:1032300092BD81BDF89A992780B50895A6E1B0E0C6
:1032400044E050E00C944A19262FF999FECF92BD24
:1032500081BDF89A019700B4021639F01FBA20BD5B
:103260000FB6F894FA9AF99A0FBE08950396272F8D
:103270000E9425190E942419252F0E942519242F08
:103280000C9425190196272F0E9425190C942419B6
:10329000DC01CB01FC01F999FECF06C0F2BDE1BD16
:1032A000F89A319600B40D9241505040B8F7089505
:0432B000F894FFCFC0
:1032B400040003183C0000C842C51108125B12CE7A
:1032C400121A121F1226242020002D2D2E2D00202C
:1032D4004C002D2D2D2D2D2D2D2D2D2D2D2D2D2D28
:1032E400004B4D285329002122202020004B4D2F34
:1032F40048002020530024252620002D2800292DB5
:1033040000204B4D004C2F313030004C2F4800230F
:103314002020004C2F2F4D202D20004C2F2F4B0010
:1033240035303A200035353A200034303A20003424
:04333400313A20000A
:00000001FF
