:10000000C6C073C8DAC8DEC0DDC0DCC0DBC0DAC081
:100010005EC515C5D7C0D6C0D5C0D4C0D3C0D2C068
:10002000D1C0D0C0CFC007634236B79BD8A71A391A
:10003000685618AEBAAB558C1D3CB7CC5763BD6D36
:10004000EDFD753EF6177231BF000000803F0800DD
:100050000000BE922449123EABAAAA2ABECDCCCC47
:100060004C3E00000080BEABAAAAAA3E00000000E1
:10007000BF000000803F0000000000084178D3BBB3
:100080004387D1133D190E3CC3BD4282AD2B3E6860
:10009000EC8276BED98FE1A93E4C80EFFFBE01C451
:1000A000FF7F3F00000000000000000000FFC1D5FE
:1000B000C1FE0C020000005C222A221D3EC1C9C9FB
:1000C0003E0808080808492A1C080000050300002B
:1000D000001C2241000041221C0000000205020811
:1000E000083E0808005030000008080808080060B2
:1000F00060000020100804023E5149453E00427F46
:10010000400042615149462141454B311814127F4C
:100110001027454545393C4A4949300171090503D5
:100120003649494936064949291E000000000000A9
:1001300000000000000000000000000000000000BF
:10014000000000000000000000000000007E11110F
:10015000117E7F494949363E414141227F4141223A
:100160001C7F494949417F090909013E4149497AB2
:100170007F0808087F00417F41002040413F017F08
:10018000081422417F404040407F020C027F11242E
:100190001FBECFE5D4E0DEBFCDBF10E0A0E6B0E0EB
:1001A000EEE7FFE102C005900D92A03BB107D9F741
:1001B00022E0A0EBB0E001C01D92A13FB207E1F741
:1001C00039D0DBCE1DCFF8944091EA005091EB007E
:1001D0006091EC007091ED0084E090E0B6DE40911B
:1001E000DE005091DF006091E0007091E10080E05E
:1001F00090E0ABDE4091DA005091DB006091DC00D2
:100200007091DD0088E090E0A0DE6091CA0084E19A
:1002100090E08ADE4091EE005091EF006091F00096
:100220007091F1008CE090E090DE8CE380936300AD
:1002300078940895CDB7DEB764970FB6F894DEBF13
:100240000FBECDBF84B38D7C84BB86E886B985ECB8
:1002500087B981B3837781BB8CE882BB86E085BF99
:1002600080EC8BBF1FBC83E08EBD2EEE35E83DBD1C
:100270002CBD83BF12BE85E089BF80E190E04FDED8
:100280006093F2007093F3008093F4009093F50074
:1002900084E090E044DE462F572FBC01498B5A8BF7
:1002A0006B8B7C8B9A01AC01B901ABDC882321F00C
:1002B000198A1A8A1B8A1C8A29893A894B895C897E
:1002C0002093EA003093EB004093EC005093ED0054
:1002D00080E090E024DE462F572FBC01498B5A8BDB
:1002E0006B8B7C8B9A01AC01B9018BDC882321F0EC
:1002F000198A1A8A1B8A1C8A89899A89AB89BC89BE
:100300008093DE009093DF00A093E000B093E100C3
:1003100088E090E004DE462F572FBC01498B5A8BB2
:100320006B8B7C8B9A01AC01B9016BDC882321F0CB
:10033000198A1A8A1B8A1C8A29893A894B895C89FD
:100340002093DA003093DB004093DC005093DD0013
:1003500084E190E0DCDD8F3F09F480E08093CA0007
:100360008CE090E0DCDD462F572FBC01498B5A8B87
:100370006B8B7C8B9A01AC01B90143DC882321F0A3
:10038000198A1A8A1B8A1C8A89899A89AB89BC892D
:100390008093EE009093EF00A093F000B093F100F3
:1003A000E0916400F091650009957894C12C93E088
:1003B000D92EE0906C00F0906D0000916A001091D1
:1003C0006B00609068007090690080906E00909063
:1003D0006F00A0906600B090670087990EC1C110B1
:1003E0000CC19FE892BBDA94CC24C394D11002C014
:1003F00083E0D82E2091D6003091D7004091D800CC
:100400005091D900298B3A8B4B8B5C8B20E030E0EC
:10041000A90169897A898B899C89F1D918163CF1DF
:10042000369A3699FECF84B195B19C0150E040E0F8
:10043000298B3A8B4B8B5C8BCA01B9017DDA20E0AA
:1004400030E040E751E4698B7A8B8B8B9C8B698918
:100450007A898B899C89D7D9462F572FBC01409325
:10046000D6005093D7006093D8007093D900809144
:10047000CD00811170C232E0D31609F4CFC043E041
:10048000D41241C161E081E0F701099561E080E7A4
:1004900090E0F80109958091C0009091C1004AE078
:1004A000BE01675F7F4FD1DC61E0F801099561E033
:1004B00081E4F701099561E086E790E0F80109958C
:1004C00069E081E0F701099561E08AE790E0F801D1
:1004D00009952091E2003091E3004091E4005091B1
:1004E000E500298B3A8B4B8B5C8B21E030E0AE0131
:1004F0004F5F5F4F69897A898B899C8927D861E131
:1005000081E0F70109952091E2003091E3004091EC
:10051000E4005091E500298B3A8B4B8B5C8B20E0FB
:1005200030E046EC52E469897A898B899C89B6DA95
:100530001816ACF08091E2009091E300A091E400E5
:10054000B091E500898B9A8BAB8BBC8B20E030E0BF
:10055000A901BC01CD0153D918160CF458C062E0B2
:1005600089E890E0F801099566E186E3F7010995CD
:100570008091CB0061E0863008F44DC08EE890E0B9
:10058000F801099560E281E0F701099561E08AE7E9
:1005900090E0F801099568E285E0F701099561E0CE
:1005A00088E990E0F80109952091DE003091DF00A4
:1005B0004091E0005091E100298B3A8B4B8B5C8B92
:1005C00021E030E0AE014F5F5F4F69897A898B8906
:1005D0009C89BCD761E0CE010196F801099568E2DB
:1005E00086E3F701099561E08EE890E0F80109954E
:1005F000F4010995F5010995F0CE879BFBCECC203F
:1006000009F4F8CE82B3805882BBC12CF3CE62E0ED
:10061000CE010196A7CF84E990E0B2CF8091CB00C4
:10062000282F30E050E040E0298B3A8B4B8B5C8BDD
:10063000CA01B90181D922E030E0AE014F5F5F4FBE
:10064000698B7A8B8B8B9C8B69897A898B899C8946
:100650007DD767E086E0F70109958091CB00811195
:1006600031C062E086E890E0F80109956BE088E32C
:10067000F701099561E08CE990E0F801099560E2E5
:1006800081E0F701099561E08AE790E0F8010995BA
:1006900068E285E0F701099561E088E990E0F801FA
:1006A00009958091CA00811124C061E086E890E03C
:1006B000F801099568E288E3F701099561E08CE9A2
:1006C00090E094CF8091CB00811109C08091CB0044
:1006D000882329F062E082E990E0F8010995809191
:1006E000CB004AE0BE01675F7F4F90E0AEDB62E087
:1006F000BBCF8091CA004AE0BE01675F7F4F90E0A8
:10070000A4DB61E0D5CF2091DA003091DB0040918D
:10071000DC005091DD00298B3A8B4B8B5C8B22E007
:1007200030E0AE014F5F5F4F69897A898B899C8980
:100730000DD761E081E0F701099561E081EA90E081
:10074000F80109952091DA003091DB004091DC003E
:100750005091DD00298B3A8B4B8B5C8B20E030E095
:10076000A90169897A898B899C8949D818160CF462
:100770008BC061E089E890E0F801099561E081E4CF
:10078000F701099561E087EA90E0F801099569E0D1
:1007900081E0F701099561E08AE790E0F8010995A9
:1007A0002091EA003091EB004091EC005091ED0077
:1007B000298B3A8B4B8B5C8B21E030E0AE014F5F95
:1007C0005F4F69897A898B899C89C0D661E181E014
:1007D000F70109952091EA003091EB004091EC007F
:1007E0005091ED00298B3A8B4B8B5C8B20E030E0F5
:1007F000A90169897A898B899C8901D818160CF41A
:1008000077C062E086E890E0F801099566E186E449
:10081000F701099561E087E790E0F80109952091DB
:10082000D6003091D7004091D8005091D900298B43
:100830003A8B4B8B5C8B30E020E0AE014F5F5F4F1B
:1008400069897A898B899C8981D660E281E0F70188
:10085000099561E08AE790E0F801099568E285E092
:10086000F701099561E08AEA90E0F801099561E0F5
:10087000CE010196F801099568E286E4F701099531
:1008800061E088EA90E0B2CE2091DA003091DB009E
:100890004091DC005091DD00298B3A8B4B8B5C8BB7
:1008A00020E030E040E85FE369897A898B899C89A0
:1008B000A6D787FF19C08091DA009091DB00A09144
:1008C000DC00B091DD00898B9A8BAB8BBC8B20E078
:1008D00030E0A901BC01CD01E1D818162CF461E08B
:1008E00082E990E0F801099561E0CE01019644CFDC
:1008F0002091EA003091EB004091EC005091ED0026
:10090000298B3A8B4B8B5C8B20E030E0A901698905
:100910007A898B899C89C2D81816CCF48091EA0018
:100920009091EB00A091EC00B091ED00898B9A8B37
:10093000AB8BBC8B20E030E040E85FE3BC01CD0135
:100940005ED787FF04C062E080E3F301099562E0AF
:10095000CE01019659CFF3E0DF124BC0F8942091FD
:10096000CC0030E0AFEFBFEFC5D6698B7A8B8B8BB5
:100970009C8BE4D71B012C018091C8009091C90089
:100980009C0150E040E0298B3A8B4B8B5C8BCA0179
:10099000B901D2D79101A201698B7A8B8B8B9C8B89
:1009A00069897A898B899C89C6D69B01AC0160E0F4
:1009B00070E080E291E427D71B012C01AB01BC0160
:1009C00080E190E0C2DA69E080E0F701099528E073
:1009D00030E0AE014F5F5F4F298A3A8A4B8A5C8ACA
:1009E00069897A898B899C89B1D561E0CE010196AC
:1009F000FDCD78948091C8009091C9009C0150E091
:100A000040E0298B3A8B4B8B5C8B2AE0AE01475F31
:100A10005F4F69897A898B899C8921DA61E0F801C5
:100A2000099569E080E0F70109958091CC004AE0E2
:100A3000BE01675F7F4F90E008DA61E0D7CD1F927B
:100A40001FB61F9211242F933F938F939F93AF93C1
:100A5000BF938091B8009091B900A091BA00B09175
:100A6000BB003091F60026E0230F2D3750F502969B
:100A7000A11DB11D2093F6008093B8009093B9009A
:100A8000A093BA00B093BB008091BC009091BD00D0
:100A9000A091BE00B091BF000196A11DB11D809331
:100AA000BC009093BD00A093BE00B093BF00BF9167
:100AB000AF919F918F913F912F911F901FBE1F90DB
:100AC000189529E8230F0396A11DB11DD3CF1F92BE
:100AD0000F920FB60F921124BF92CF92DF92EF9236
:100AE000FF920F931F932F933F934F935F936F93B7
:100AF0007F938F939F93AF93BF93EF93FF93CF9386
:100B0000DF93CDB7DEB72A97DEBFCDBF80916000FF
:100B100090916100019790936100809360008091B3
:100B2000C6009091C7008032934038F48091C8008D
:100B30009091C900892B09F446DB809163008111F3
:100B400005C08091CB00811101C03DDB8799BCC2FB
:100B5000809162008150809362008091CD0081116C
:100B600023C080916200883009F4ABC28C3099F0C8
:100B70008430D1F41092DA001092DB001092DC0085
:100B80001092DD001092EA001092EB001092EC003F
:100B90001092ED0008C01092DE001092DF0010925B
:100BA000E0001092E1000FDB80916200811107C02C
:100BB0008091CD00811103C081E08093CD008091B0
:100BC000600090916100892B09F057C28091C800A4
:100BD0009091C9009C0150E040E029833A834B8307
:100BE0005C83CA01B901A8D62091F2003091F300CC
:100BF0004091F4005091F50069837A838B839C8344
:100C000069817A818B819C814DD720E030E041E67B
:100C100055E469837A838B839C8369817A818B8194
:100C20009C8140D769837A838B839C8369817A8195
:100C30008B819C8155D66093CB008091CE009091A2
:100C4000CF00A091D000B091D10089839A83AB836B
:100C5000BC8329E638E84FE45BE3BC01CD0122D731
:100C600020E030E041E656E469837A838B839C83FD
:100C700069817A818B819C8115D7462F572FBC01C2
:100C80004D835E836F8378872091CE003091CF00B3
:100C90004091D0005091D10029833A834B835C83EB
:100CA00029E638E84FE45BE369817A818B819C8196
:100CB000F9D620E030E040E850E469837A838B8302
:100CC0009C8369817A818B819C81ECD68B018A8798
:100CD00099878091C6009091C7009C0150E040E048
:100CE00029833A834B835C83CA01B90125D620E06E
:100CF00030E04AE754E469837A838B839C8369817B
:100D00007A818B819C817FD5462F572FBC014093E0
:100D1000CE005093CF006093D0007093D1008091AB
:100D2000CB00863008F4D4C1B090CB0020E030E096
:100D300048EC52E46D817E818F819885B3D66B013A
:100D40007C018B2D90E0B0E0A0E089839A83AB8397
:100D5000BC83BC01CD01F2D59B01AC01C982DA8212
:100D6000EB82FC8269817A818B819C814CD5462FF4
:100D7000572FBC014093E2005093E3006093E400DE
:100D80007093E5002091E2003091E3004091E4008F
:100D90005091E50029833A834B835C8320E030E067
:100DA000A90169817A818B819C8178D618160CF013
:100DB00064C08091E2009091E300A091E400B091C2
:100DC000E50089839A83AB83BC8320E030E048EC64
:100DD00052E4BC01CD0113D587FF4FC02091E20042
:100DE0003091E3004091E4005091E500C090D200C2
:100DF000D090D300E090D400F090D50060E070E097
:100E000080E89FE300D5A701960169837A838B83ED
:100E10009C8369817A818B819C818DD4462F572F49
:100E2000BC014093D2005093D3006093D4007093E0
:100E3000D5002091EE003091EF004091F0005091EC
:100E4000F10029833A834B835C832091D200309157
:100E5000D3004091D4005091D50069817A818B8173
:100E60009C81D1D4462F572FBC014093DE00509374
:100E7000DF006093E0007093E1002091DA00309190
:100E8000DB004091DC005091DD0009831A839A85D4
:100E90009B83A985AC8369817A818B819C814BD4AA
:100EA000462F572FBC014093DA005093DB0060932C
:100EB000DC007093DD002091D6003091D700409186
:100EC000D8005091D90029833A834B835C839801E1
:100ED0004A85598569817A818B819C812BD4462FE3
:100EE000572FBC014093D6005093D7006093D80091
:100EF0007093D9008091CB00863008F4A7C0809110
:100F0000D6009091D700A091D800B091D9008983E4
:100F10009A83AB83BC832091DE003091DF00409147
:100F2000E0005091E100BC01CD016DD420E030E043
:100F300048EC52E469837A838B839C8369817A814C
:100F40008B819C81AFD569837A838B839C836981F4
:100F50007A818B819C81C4D4462F572F5093C10036
:100F60004093C0002091EE003091EF004091F000DE
:100F70005091F10029833A834B835C8320E030E079
:100F800040E85FE369817A818B819C81D4D3462FCD
:100F9000572FBC014093EE005093EF006093F00098
:100FA0007093F1008091CB00C090E600D090E700F4
:100FB000E090E800F090E900282F30E050E040E0B9
:100FC00029833A834B835C83CA01B901B7D49B015F
:100FD000AC0160E070E080E89FE315D4A7019601C2
:100FE00069837A838B839C8369817A818B819C81DD
:100FF000A2D3462F572FBC014093E6005093E70041
:101000006093E8007093E9008091EE009091EF000A
:10101000A091F000B091F10089839A83AB83BC83E7
:101020002091E6003091E7004091E8005091E900FE
:10103000BC01CD01E8D369837A838B839C8369816A
:101040007A818B819C814CD46093CA00809163002B
:101050008150809363008091CD00811104C0109273
:10106000C9001092C8001092C7001092C60084E018
:1010700090E090936100809360008EEE95E89DBDB6
:101080008CBD2A960FB6F894DEBF0FBECDBFDF91A0
:10109000CF91FF91EF91BF91AF919F918F917F91F0
:1010A0006F915F914F913F912F911F910F91FF9001
:1010B000EF90DF90CF90BF900F900FBE0F901F90DA
:1010C00018951092CA006FCD88E18093620077CDA9
:1010D0008D819E81AF81B8858093E2009093E3007B
:1010E000A093E400B093E500C8CE1F920F920FB614
:1010F0000F9211242F933F934F935F936F937F939E
:101100008F939F93AF93BF93EF93FF93CF93DF930F
:1011100000D000D0CDB7DEB78091C8009091C90053
:1011200001969093C9008093C8008091CD008823D8
:1011300059F08091C8009091C900019629F48091DE
:10114000CC008F5F8093CC008091EA009091EB00FF
:10115000A091EC00B091ED0089839A83AB83BC83AE
:101160002091F2003091F3004091F4005091F5008D
:10117000BC01CD01E0D2462F572FBC014093EA00BD
:101180005093EB006093EC007093ED000F900F9084
:101190000F900F90DF91CF91FF91EF91BF91AF91A1
:1011A0009F918F917F916F915F914F913F912F917F
:1011B0000F900FBE0F901F9018952F932FB72F935E
:1011C0003F934F935F938F939F93AF93BF93839975
:1011D0001BC02FB7F8948091B8009091B900A091EE
:1011E000BA00B091BB002FBF78949093C300809356
:1011F000C200BF91AF919F918F915F914F913F91AD
:101200002F912FBF2F9118952FB7F8948091B80088
:101210009091B900A091BA00B091BB002FBF789413
:101220009093C5008093C4008091C4009091C50044
:101230002091C2003091C3004091C6005091C70078
:10124000840F951F821B930B9093C7008093C60059
:10125000939ACFCFC4986623A9F0C39A27E030E0D1
:1012600090E0AC01022E02C0559547950A94E2F732
:1012700040FF0AC0C29AC19AC1982150310988F72B
:10128000C49A0895C398EACFC298F5CF60E0E2CF40
:1012900080E8FCDF80E4FADF1092EF021092F002A7
:1012A000E7EFF0E088EF91E0DF019C011D92215013
:1012B0003040E1F708958093EF026093F0020895C3
:1012C000CF93DF93BC9ABD9ABB9ABA9AB99AC59A42
:1012D000C49A8FE19EE40197F1F700C00000C59821
:1012E0009FE725EB81E0915020408040E1F700C06E
:1012F0000000C59AC49881E2C9DF83E1C7DF86E0B8
:10130000C5DF82ECC3DF80E2C1DF89E0BFDF80E8B8
:10131000BDDF80E4BBDFC8EFD1E061E080E09ADFB1
:101320002197D9F788E0B2DF8CE0DF91CF91AECF83
:10133000CF93DF9380E8AADF80E4A8DFC7EFD0E097
:1013400061E0899187DF82E0CF3ED807C9F7DF915E
:10135000CF910895811102C084E298CF80E2FDCF41
:10136000962F969596959695E82FF0E084E5989FB0
:10137000E00DF11D1124E950FF4F2081677081E0DD
:1013800090E001C0880F6A95EAF7442319F0822B98
:101390008083089580958223FBCFBF92CF92DF9206
:1013A000EF92FF920F931F93CF93DF93C62F25E009
:1013B000629F8001112497E0699F7001112480527F
:1013C000990B289F6001299FD00C1124D0E0D017E1
:1013D000110609F04CC08091EF028F5F9C2F990F8E
:1013E000990F9C0F890F8093EF02843558F08091FC
:1013F000F0021092EF028F5F97E0C99F800D1124D9
:101400008093F0028091F002803320F01092EF027E
:101410001092F002DF91CF911F910F91FF90EF900A
:10142000DF90CF90BF9008958D2F6C2F44D1F6019F
:10143000E80FF11DE855FF4FE4913B0D2D0FF0E053
:101440008B2D39D102C0F595E7958A95E2F741E0F9
:10145000E0FF40E0632F822F83DFB3943091F002EE
:101460002091EF02BE141F04F9F6DF5FB0CFB12C5C
:10147000F5CF1F93CF93DF93162FEC018991811144
:1014800004C0DF91CF911F910895612F86DFF6CFC1
:10149000CF93DF939B01FC01DC01A60FB71F90E007
:1014A00080E021503109821793071CF0DF91CF9122
:1014B000089541915E91EF01219758834C930196D5
:1014C000F0CFAF92BF92CF92DF92EF92FF920F9345
:1014D0001F93CF93DF937B015A01FB01D0E0C0E063
:1014E0002AE030E0009759F585010C1B1D0B6801BF
:1014F000AC16BD0614F4D12CC12CA60160E370E03B
:10150000C7018C0F9D1F9AD4AC16BD0614F410E0D1
:1015100000E00C0F1D1FCC0DDD1DCE0DDF1DB80131
:10152000C701B6DF1882C801DF91CF911F910F91DB
:10153000FF90EF90DF90CF90BF90AF9008952196ED
:10154000B901C5D0805D8193CB01CCCF2F923F9262
:101550004F925F926F927F928F929F92AF92BF92C3
:10156000CF92DF92EF92FF920F931F93CF93DF936F
:1015700000D000D000D0CDB7DEB71B012C015A013E
:10158000890169833A828B835C8269817A818B814C
:101590009C81A1D16B0150E040E0B501C60191DF13
:1015A0008D839E830115110509F46CC0ED81FE81C8
:1015B000EA0DFB1D8EE28083C801012E000CAA0BF0
:1015C000BB0B89839A83AB83BC83BC01CD01B6D1AD
:1015D0009B01AC0160E070E080E291E4C6D23B0187
:1015E0004C01C601DD0CAA0BBB0B89839A83AB832C
:1015F000BC83BC01CD01A2D19B01AC0129823A82FE
:101600004B825C8269817A818B819C8193D0AD8190
:10161000BE811196AA0DBB1DBE83AD839B01AC019B
:1016200069827A828B829C8269817A818B819C819A
:1016300039D269837A838B839C8369817A818B8198
:101640009C8149D1362F272FA8016D817E81832F60
:10165000922F26960FB6F894DEBF0FBECDBFDF9156
:10166000CF911F910F91FF90EF90DF90CF90BF909F
:10167000AF909F908F907F906F905F904F903F9032
:101680002F901FCF26960FB6F894DEBF0FBECDBFAA
:10169000DF91CF911F910F91FF90EF90DF90CF904E
:1016A000BF90AF909F908F907F906F905F904F9082
:1016B0003F902F900895991B79E004C0991F9617C9
:1016C00008F0961B881F7A95C9F78095089597FBB7
:1016D000072E16F4009406D077FD08D017D007FC2B
:1016E00005D03EF4909581959F4F08957095619532
:1016F0007F4F0895A29FB001B39FC001A39F01D067
:10170000B29F700D811D1124911D0895AA1BBB1B52
:1017100051E107C0AA1FBB1FA617B70710F0A61BF1
:10172000B70B881F991F5A95A9F780959095BC0112
:10173000CD0108955058BB27AA270ED075C166D198
:1017400030F06BD120F031F49F3F11F41EF45BC1F7
:101750000EF4E095E7FB51C1E92F77D180F3BA177A
:10176000620773078407950718F071F49EF58FC11F
:101770000EF4E0950B2EBA2FA02D0B01B9019001AC
:101780000C01CA01A0011124FF27591B99F0593FF0
:1017900050F4503E68F11A16F040A22F232F342F38
:1017A0004427585FF3CF469537952795A795F04086
:1017B0005395C9F77EF41F16BA0B620B730B840B9B
:1017C000BAF09150A1F0FF0FBB1F661F771F881F53
:1017D000C2F70EC0BA0F621F731F841F48F48795AB
:1017E00077956795B795F7959E3F08F0B3CF93959A
:1017F000880F08F09927EE0F979587950895D9D00F
:1018000008F481E008950CD00FC107D140F0FED05C
:1018100030F021F45F3F19F0F0C0511139C1F3C02D
:1018200014D198F39923C9F35523B1F3951B550BA4
:10183000BB27AA2762177307840738F09F5F5F4FA3
:10184000220F331F441FAA1FA9F333D00E2E3AF0E4
:10185000E0E830D091505040E695001CCAF729D0FE
:10186000FE2F27D0660F771F881FBB1F261737074D
:101870004807AB07B0E809F0BB0B802DBF01FF277D
:1018800093585F4F2AF09E3F510568F0B6C000C1E3
:101890005F3FECF3983EDCF3869577956795B795B7
:1018A000F7959F5FC9F7880F911D9695879597F9D2
:1018B0000895E1E0660F771F881FBB1F621773074B
:1018C0008407BA0720F0621B730B840BBA0BEE1F60
:1018D00088F7E095089504D06894B111D9C00895AF
:1018E000BCD088F09F5790F0B92F9927B751A0F03E
:1018F000D1F0660F771F881F991F1AF0BA95C9F7A4
:1019000012C0B13081F0C3D0B1E00895C0C0672FDC
:10191000782F8827B85F39F0B93FCCF38695779553
:101920006795B395D9F73EF490958095709561953C
:101930007F4F8F4F9F4F0895E89409C097FB3EF467
:1019400090958095709561957F4F8F4F9F4F99230C
:10195000A9F0F92F96E9BB279395F695879577958A
:101960006795B795F111F8CFFAF4BB0F11F460FF4A
:101970001BC06F5F7F4F8F4F9F4F16C0882311F0A2
:1019800096E911C0772321F09EE8872F762F05C0B6
:10199000662371F096E8862F70E060E02AF09A9551
:1019A000660F771F881FDAF7880F9695879597F946
:1019B0000895990F0008550FAA0BE0E8FEEF1616E0
:1019C0001706E807F907C0F012161306E407F50733
:1019D00098F0621B730B840B950B39F40A2661F0A7
:1019E000232B242B252B21F408950A2609F4A1404A
:1019F000A6958FEF811D811D089597F99F6780E857
:101A000070E060E008959FEF80EC089500240A9450
:101A10001616170618060906089500240A941216C9
:101A20001306140605060895092E0394000C11F4FC
:101A3000882352F0BB0F40F4BF2B11F460FF04C0A9
:101A40006F5F7F4F8F4F9F4F089557FD9058440F02
:101A5000551F59F05F3F71F04795880F97FB991F0D
:101A600061F09F3F79F087950895121613061406CA
:101A7000551FF2CF4695F1DF08C016161706180657
:101A8000991FF1CF86957105610508940895E89432
:101A9000BB2766277727CB0197F908958ADF08F4DB
:101AA0008FEF08950BD0C0CFB1DF28F0B6DF18F06C
:101AB000952309F0A2CFA7CF1124EACFC6DFA0F368
:101AC000959FD1F3950F50E0551F629FF001729FD3
:101AD000BB27F00DB11D639FAA27F00DB11DAA1FF2
:101AE000649F6627B00DA11D661F829F2227B00D3F
:101AF000A11D621F739FB00DA11D621F839FA00DCA
:101B0000611D221F749F3327A00D611D231F849F19
:101B1000600D211D822F762F6A2F11249F57504070
:101B20008AF0E1F088234AF0EE0FFF1FBB1F661F0B
:101B3000771F881F91505040A9F79E3F510570F0C4
:101B40005CCFA6CF5F3FECF3983EDCF386957795AC
:101B50006795B795F795E7959F5FC1F7FE2B880FBF
:101B6000911D9695879597F90895FA01EE0FFF1F3D
:101B700030962105310599F16115710561F48038C0
:101B8000BFE39B0749F168949038810561F0803884
:101B9000BFEF9B0741F0992342F5FF3FE105310577
:101BA000210511F1E8940894E795D901AA2329F4B5
:101BB000AB2FBE2FF85FD0F310C0FF5F70F4A69577
:101BC000E0F7F73950F019F0FF3A38F49F779F9318
:101BD0000CD00F9007FC905808953EF014CF60E0B1
:101BE00070E080E89FE308954FE79F775F934F93FE
:101BF0003F932F93A2D02F913F914F915F9152DF4E
:101C000009C0D7DE880B990B089519F40EF0F5CEB4
:101C10003ECFF9CE22DFC8F39638C0F707F80F920F
:101C2000E8942BE33AEA48EB5FE74ADF0F920F9222
:101C30000F924DB75EB70F92C0D0E6E2F0E016D03B
:101C40004F915F91EF91FF91E595EE1FFF1F49F0D6
:101C5000FE57E0684427EE0F441FFA95E1F74195DF
:101C6000550B32D00F9007FE26C00895DF93CF9317
:101C70001F930F93FF92EF92DF927B018C01689488
:101C800005C0DA2EEF011ADFFE01E894A591259137
:101C9000359145915591AEF3EF015EDDFE0197015F
:101CA000A801DA9479F7DF90EF90FF900F911F91E0
:101CB000CF91DF9108959B01AC0160E070E080E876
:101CC0009FE3A1CD9ACEACC0C8DEE8F39923D9F347
:101CD000940F511DBBF39150504094F059F088235C
:101CE00032F0660F771F881F91505040C1F79E3F1A
:101CF000510544F7880F911D9695879597F908959A
:101D00005F3FACF0983E9CF0BB2786957795679532
:101D1000B79508F4B1609395C1F7BB0F58F711F46C
:101D200060FFE8CF6F5F7F4F8F4F9F4FE3CFB0CE05
:101D30000EF076C068CE689460CE8FDEC8F399232B
:101D4000D1F3C6F3DF93CF931F930F93FF92C92F65
:101D5000DD2788232AF02197660F771F881FDAF77F
:101D600020E030E040E85FEB9FE3883920F0803EE0
:101D700030F021968F77DFDCEEE4F0E003C0DBDCAF
:101D8000EBE7F0E073DF8B01BE01EC01FB2E6F5738
:101D900071097595771F880B990BD0DD28E132E723
:101DA00041E35FE38BDEAF2D9801AE01FF900F9111
:101DB0001F91CF91DF91D0DC37CEFA01DC01AA0F61
:101DC000BB1F9B01AC01BF5728F4222733274427B0
:101DD00050781FC0B75188F4AB2F00244695379533
:101DE0002795011CA395D2F3002069F0220F331F21
:101DF000441FB395DAF30DD09DCC61307105A0E896
:101E00008A07B94630F49B01AC01662777278827FB
:101E10009078309621F02083318342835383089554
:101E20009F3F31F0915020F4879577956795B7954E
:101E3000880F911D9695879597F90895DC0101C04B
:101E40006D9341505040E0F70895BB274A3031F47C
:101E5000992322F4BDE2909581959F4F30C0BB2716
:101E60002A3051F4992342F4BDE290958095709503
:101E700061957F4F8F4F9F4F01C0BB27FA01A62F5F
:101E80006217710581059105330B30FB66F0AA27B7
:101E9000660F771F881F991FAA1FA21710F0A21B99
:101EA00063953850A9F7A05DAA3308F0A95DA19306
:101EB00036F7B111B1931082CA0119C0BB27FB01DB
:101EC0005527AA27880F991FAA1FA41710F0A41B33
:101ED00083955051B9F7A05DAA3308F0A95DA1938D
:101EE000009779F7B111B1931192CB0100C0DC01D9
:101EF000FC01672F71917723E1F7329704C07C9141
:101F00006D9370836291AE17BF07C8F30895E1998E
:101F1000FECF9FBB8EBBE09A99278DB30895A6E1B3
:101F2000B0E044E050E01BC0262FE199FECF9FBBFC
:101F30008EBBE09A01970DB2021631F02DBB0FB6A1
:101F4000F894E29AE19A0FBE08950396272FEDDFE9
:101F5000EBDF252FEADF242FE8CFDC01CB01FC01EA
:101F6000E199FECF06C0FFBBEEBBE09A31960DB201
:0E1F70000D9241505040B8F70895F894FFCFFD
:101F7E000400183C60094809CD09390A5B09980923
:101F8E00242526202000204B4D002D2D2D2D2D2DCE
:101F9E002D2D2D2D2D2D2D2D002D2D2E2D004C2F9B
:101FAE00313030004C2F4800232020004B4D2F485D
:101FBE0000252624202000204C0021222020200055
:00000001FF
