:10000000E9C004C147C101C100C1FFC0FEC0FDC0BD
:1000100037C349C6FAC0F9C0F8C0F7C0F6C0F5C08A
:10002000F4C0F3C0F2C007634236B79BD8A71A39B1
:10003000685618AEBAAB558C1D3CB7CC5763BD6D36
:10004000EDFD753EF6177231BF000000803F0800DD
:100050000000BE922449123EABAAAA2ABECDCCCC47
:100060004C3E00000080BEABAAAAAA3E00000000E1
:10007000BF000000803F0000000000084178D3BBB3
:100080004387D1133D190E3CC3BD4282AD2B3E6860
:10009000EC8276BED98FE1A93E4C80EFFFBE01C451
:1000A000FF7F3F0000000000000000000000005F34
:1000B00000000007000700147F147F14242A7F2A01
:1000C00012231308646236495522500005030000CC
:1000D000001C2241000041221C0000000205020811
:1000E000083E0808005030000008080808080060B2
:1000F00060000020100804023E5149453E00427F46
:10010000400042615149462141454B311814127F4C
:100110001027454545393C4A4949300171090503D5
:100120003649494936064949291E0036360000003D
:10013000563600000814224100141414141400410F
:100140002214080201510906324979413E7E1111FB
:10015000117E7F494949363E414141227F4141223A
:100160001C7F494949417F090909013E4149497AB2
:100170007F0808087F00417F41002040413F017F08
:10018000081422417F404040407F020C027F7F04E0
:1001900008107F3E4141413E7F090909063E415119
:1001A000215E7F09192946464949493101017F01EC
:1001B000013F4040403F1F2040201F3F4038403F0C
:1001C0006314081463070870080761514945430028
:1001D0000000000011241FBECFE5D4E0DEBFCDBF7C
:1001E00011E0A0E6B0E0EEE2FAE102C005900D9267
:1001F000AA30B107D9F723E0AAE0B1E001C01D920F
:10020000A734B207E1F799D510CCFACE1F920F921E
:100210000FB60F9211242F933F934F935F936F93D9
:100220007F938F939F93AF93BF93EF93FF938091AF
:100230001201909113010196909313018093120182
:1002400060916600709167008091680090916900EC
:1002500020913401309135014091360150913701A0
:10026000EFD76093340170933501809336019093FA
:100270003701FF91EF91BF91AF919F918F917F9146
:100280006F915F914F913F912F910F900FBE0F9003
:100290001F9018951F920F920FB60F9211242F9353
:1002A0003F934F935F936F937F938F939F93AF93FE
:1002B000BF93EF93FF93839906C0E8D470930D0129
:1002C00060930C011AC0E2D470930F0160930E0189
:1002D00040910E0150910F0120910C0130910D01C0
:1002E0008091100190911101840F951F821B930B37
:1002F0009093110180931001939AFF91EF91BF9118
:10030000AF919F918F917F916F915F914F913F91AD
:100310002F910F900FBE0F901F901895909118017C
:1003200080911601891720F480911801809316019D
:100330000895CF92DF92EF92FF9260911801C090E2
:100340003001D0903101E0903201F090330170E043
:1003500080E090E078D89B01AC0160E070E080E83C
:100360009FE3D6D7A70196016BD7609330017093B6
:100370003101809332019093330160913801709183
:10038000390180913A0190913B01209130013091E7
:1003900031014091320150913301BAD726D8609390
:1003A0001701FF90EF90DF90CF900895CF92DF92EA
:1003B000EF92FF926091120170911301C09066005C
:1003C000D0906700E0906800F090690080E090E0D5
:1003D00038D8A7019601EBD820E030E041E655E49B
:1003E000E6D803D860931801FF90EF90DF90CF908C
:1003F0000895CF92DF92EF92FF92CF936091100118
:100400007091110180E090E01CD820E030E04AE7D4
:1004100054E47ED760931C0170931D0180931E01EC
:1004200090931F0180911801863008F47FC060917D
:100430001C0170911D0180911E0190911F0120915E
:100440006200309163004091640050916500C0915A
:100450001801ADD820E030E048EC52E4A8D820E004
:1004600030E041E655E4A3D820E030E040E850E435
:100470009ED86B017C016C2F70E080E090E0E3D7A8
:100480009B01AC01C701B60143D760932C01709367
:100490002D0180932E0190932F0160912C0170917A
:1004A0002D0180912E0190912F0120E030E0A901D3
:1004B0007AD818160CF05DC020912C0130912D01D6
:1004C00040912E0150912F01C0902001D090210128
:1004D000E0902201F090230160E070E080E89FE36B
:1004E00017D7A7019601ACD6609320017093210124
:1004F000809322019093230160913801709139011A
:1005000080913A0190913B0120912001309121018D
:100510004091220150912301FBD6609328017093F2
:10052000290180932A0190932B0123C060911C0123
:1005300070911D0180911E0190911F012091620018
:1005400030916300409164005091650030D820E004
:1005500030E041E655E42BD820E030E040E850E4BC
:1005600026D860932C0170932D0180932E019093D7
:100570002F0160911C0170911D0180911E019091CD
:100580001F012091620030916300409164005091FE
:100590006500C0902401D0902501E0902601F090E4
:1005A000270105D820E030E040E850E400D8A7015A
:1005B000960146D66093240170932501809326010D
:1005C0009093270180916000882381F0209124017D
:1005D00030912501409126015091270160E070E0A3
:1005E00088E892E42CD601D760936000CF91FF9009
:1005F000EF90DF90CF900895F8944091340150919E
:100600003501609136017091370184E090E0F1D9B5
:10061000409128015091290160912A0170912B018C
:1006200080E090E0E6D9409124015091250160914D
:1006300026017091270188E090E0DBD960911601D6
:1006400081E190E0C5D96091170180E190E0C0D9C7
:10065000409138015091390160913A0170913B010C
:100660008CE090E0C6D960910A0170910B0182E1A3
:1006700090E0C7D91092190110921B017894089547
:100680001F920F920FB60F9211242F933F934F9307
:100690005F936F937F938F939F93AF93BF93EF93EA
:1006A000FF9380911401909115010196909315018B
:1006B0008093140180911001909111018032934038
:1006C00058F48091120190911301892B29F48091A3
:1006D0001B01813009F490DF809119018E3248F0BE
:1006E00080911801811105C080911B01813009F4AE
:1006F00083DF8091140190911501049708F440C0A4
:1007000055DE77DE60912C0170912D0180912E01D4
:1007100090912F0120E030E040E85FE344D71816C5
:100720001CF481E080931B01809118018630B8F0A1
:10073000609138017091390180913A0190913B01AB
:1007400020E030E040E85FE37BD5609338017093B0
:10075000390180933A0190933B01EBDDDFDD80911D
:1007600019018F5F809319011092130110921201E9
:1007700010921101109210011092150110921401A3
:100780008EEE95E89DBD8CBDFF91EF91BF91AF912D
:100790009F918F917F916F915F914F913F912F9199
:1007A0000F900FBE0F901F901895CF92DF92EF928F
:1007B000FF92CF9384E090E001D96B017C019B0113
:1007C000AC01A4D7882319F0C12CD12C7601C0929A
:1007D0003401D0923501E0923601F092370180E089
:1007E00090E0ECD86B017C019B01AC018FD7882392
:1007F00019F0C12CD12C7601C0922801D092290188
:10080000E0922A01F0922B0188E090E0D7D86B01AA
:100810007C019B01AC017AD7882319F0C12CD12C23
:100820007601C0922401D0922501E0922601F09237
:10083000270181E190E0BAD8C82F682F70E080E0EE
:1008400090E0FFD59B01AC0161D78111C0E0C0935E
:10085000160180E190E0AAD8C82F682F70E080E0F0
:1008600090E0EFD59B01AC0151D7811102C0CF3F81
:1008700009F4C0E0C09317018CE090E09FD86B01B1
:100880007C019B01AC0142D7882319F0C12CD12CEB
:100890007601C0923801D0923901E0923A01F0928B
:1008A0003B0182E190E08FD87C01BC0180E090E0C8
:1008B000C8D59B01AC012AD7882311F0E12CF12C7B
:1008C000F0920B01E0920A01CF91FF90EF90DF9040
:1008D000CF900895C498662311F0C39A01C0C398BD
:1008E00027E030E090E0AC01022E02C0559547951C
:1008F0000A94E2F740FF02C0C29A01C0C298C19AAE
:10090000C1982150310978F7C49A089560E0E2CF88
:1009100080E8FCDF80E4FADF1092340310923503A4
:10092000ECE3F1E0119283E0E433F807D9F708959E
:10093000811102C084E201C080E2E8CF962F969533
:1009400096959695E82FF0E084E5989FE00DF11DCF
:100950001124E45CFE4F677081E090E001C0880FD5
:100960006A95EAF7442319F09081892B03C080959A
:100970009081892380830895BF92CF92DF92EF9276
:10098000FF920F931F93CF93DF93D62E95E0699F2D
:10099000E001112497E0699F80011124B12C082EF9
:1009A000000C990B809725E0289F7001299FF00C7F
:1009B00011248B2D90E08C179D0739F1C12C8C2DC3
:1009C00090E080179107F9F08B2D6D2D05D4F7017C
:1009D000E80FF11DE855FF4FE491F0E08C2DFCD3BA
:1009E00002C0F595E7958A95E2F76091350380910D
:1009F00034036C0DE0FF02C041E001C040E08B0D0C
:100A00009DDFC394DCCFB394D4CF8091340391E0C5
:100A1000980F8D2D880F880F8D0D890F843518F450
:100A2000809334030BC010923403809135038F5FA1
:100A300097E0D99E800D1124809335038091350372
:100A4000803320F01092340310923503DF91CF9160
:100A50001F910F91FF90EF90DF90CF90BF9008957E
:100A60001F93CF93DF93162FEC018991882319F000
:100A7000612F82DFFACFDF91CF911F91089580938C
:100A80003403609335030895CF93DF93BC9ABD9AE6
:100A9000BB9ABA9AB99AC59AC49A8FE19EE4019713
:100AA000F1F700C00000C5989FE725EB81E0915069
:100AB00020408040E1F700C00000C59AC49881E260
:100AC00025DF83E123DF86E021DF82EC1FDF80E288
:100AD0001DDF89E01BDF80E819DF80E417DFC8EF46
:100AE000D1E061E080E0F6DE2197D9F788E00EDF03
:100AF0008CE0DF91CF910ACFCF93DF9380E806DFC0
:100B000080E404DFCCE3D1E061E08991E3DE83E0BF
:100B1000C433D807C9F7DF91CF9108959B012150C5
:100B20003109FC01E60FF71FDC01AD01481B590B31
:100B3000421753073CF44C9152915D9340832150EE
:100B40003109F3CF0895EF92FF920F931F93CF9344
:100B5000DF938B019A01FB014AE0E42EF12CEF01B7
:100B6000C01BD10B009731F0B70142D3805D819358
:100B7000CB01F5CFF801EC0FFD1F80E3C217D307BF
:100B80001CF421968193FACFBE01C801C7DFF8019A
:100B9000EC0FFD1F1082CE01DF91CF911F910F91BD
:100BA000FF90EF9008952F923F924F925F926F9235
:100BB0007F928F929F92AF92BF92CF92DF92EF92ED
:100BC000FF920F931F93CF93DF934B015C01EA01D8
:100BD000890106D46B017C0140E050E0BE01C601F2
:100BE000B2DF1C0101151105F1F1FE01E80FF91F3B
:100BF0008EE28083B801012E000C880B990B23D460
:100C00009B01AC0160E070E080E291E433D52B0100
:100C10003C01B601DD0C880B990B15D49B01AC018E
:100C2000C501B4010CD32FEF221A320AC20DD31D15
:100C3000A3019201BCD4D4D3DC01CB01A801BE0135
:100C4000DF91CF911F910F91FF90EF90DF90CF90A8
:100C5000BF90AF909F908F907F906F905F904F90DC
:100C60003F902F9070CFDF91CF911F910F91FF9008
:100C7000EF90DF90CF90BF90AF909F908F907F903C
:100C80006F905F904F903F902F9008952FB7F894FA
:100C900060913E0370913F03809140039091410326
:100CA0002FBF789408951F920F920FB60F921124C0
:100CB0002F933F938F939F93AF93BF9380913E0366
:100CC00090913F03A0914003B091410330914603BE
:100CD00026E0230F2D3720F40296A11DB11D05C07B
:100CE00029E8230F0396A11DB11D2093460380938D
:100CF0003E0390933F03A0934003B0934103809140
:100D0000420390914303A0914403B091450301969F
:100D1000A11DB11D8093420390934303A09344030C
:100D2000B0934503BF91AF919F918F913F912F91C8
:100D30000F900FBE0F901F901895CF93DF93CDB7F4
:100D4000DEB7A4970FB6F894DEBF0FBECDBF81B358
:100D5000837781BB8CE882BB86E085BF80EC8BBF4C
:100D60001FBC83E08EBD2EEE35E83DBD2CBD83BF9C
:100D700012BE85E089BF19DDE0916A00F0916B0039
:100D800009957894212C312CE0907600F090770032
:100D90000091740010917500C0907A00D0907B0093
:100DA0002601360156014601809178009091790024
:100DB0009AA389A3E0916C00F0916D00FCA3EBA3D2
:100DC000879918C0211016C0FEE0F31510F0339477
:100DD00001C0312C832D806882BB809161008F5FC0
:100DE0008093610080916100873068F081E080939A
:100DF000610009C0879B09C0222039F082B3805866
:100E000082BB212C02C02224239480916100833074
:100E100009F4B4C030F4813069F0823009F45BC069
:100E2000B7C1853009F414C108F4EAC0863009F46A
:100E30006CC1AEC160912C0170912D0180912E0189
:100E400090912F0121E030E0AE014F5F5F4FF5013F
:100E5000099567E081E0F701099560912C01709197
:100E60002D0180912E0190912F0120E030E046EC81
:100E700052E499D3181674F060912C0170912D01F1
:100E800080912E0190912F0120E030E0A9013CD209
:100E9000181624F062E08CE790E003C062E0CE0117
:100EA0000196F80109956BE086E3F70109958091B9
:100EB000180161E0863018F081E890E002C087E810
:100EC00090E0F80109956EE186E0F701099561E08F
:100ED0008BE890E049C060912801709129018091D0
:100EE0002A0190912B0121E030E0AE014F5F5F4F6E
:100EF000F401099567E081E0F70109956091280107
:100F00007091290180912A0190912B0120E030E01D
:100F100046EC52E448D3181674F0609128017091A1
:100F2000290180912A0190912B0120E030E0A90154
:100F3000EBD1181624F062E08CE790E003C062E089
:100F4000CE010196F80109956BE086E3F70109955A
:100F500061E081E890E0F80109956EE186E0F70133
:100F6000099561E085EA90E0F801099567E283E080
:100F7000F701099561E088E990E025C160911801C9
:100F800070E080E090E05DD222E030E0AE014F5FA3
:100F90005F4FF601099567E086E0F70109958091BA
:100FA0001801811104C062E082EB90E016C08091CC
:100FB0001801811109C080911801882329F062E08D
:100FC00085E890E0F8010995809118014AE0BE019A
:100FD000675E7F4F90E0B7D462E0F80109956BE05F
:100FE00086E3F701099561E085EB90E0F80109954A
:100FF0006EE184E0F701099561E08AEB90E0E3C0DF
:1010000067E086E0F701099580911701811104C01E
:1010100062E082EB90E009C0809117014AE0BE01D6
:10102000675E7F4F90E08FD462E0F80109956BE036
:1010300086E3F701099561E085EB90E0F8010995F9
:101040006EE184E0F701099561E088EC90E0BBC0B7
:1010500060912401709125018091260190912701D2
:1010600022E030E0AE014F5F5F4FF201099567E08B
:1010700081E0F7010995609124017091250180912B
:1010800026019091270120E030E0A9013DD11816FA
:1010900024F062E08CE790E025C06091240170911B
:1010A0002501809126019091270120E030E040E861
:1010B0005FE32AD187FF13C060912401709125015D
:1010C000809126019091270120E030E0A9016BD2A8
:1010D00018162CF462E085E890E0F801099562E0CA
:1010E000CE010196F80109956BE088E4F7010995B6
:1010F00061E08EED90E0F80109956EE18FE0F70177
:10110000099561E086ED90E05EC0609134017091D8
:101110003501809136019091370122E030E0AE0137
:101120004F5F5F4FF301099567E081E0F701099593
:1011300060913401709135018091360190913701B1
:1011400020E030E0A901E0D062E018161CF082EB4C
:1011500090E002C0CE010196F80109956BE088E4A9
:10116000F701099561E080EE90E0F80109956EE1E4
:1011700082E1F701099561E083EE90E0F8010995BD
:1011800067E282E1F701099561E08CEE90E01BC017
:1011900061E081E0F701099561E085EF90E0F801F9
:1011A000099569E081E0F701099561E082E091E04D
:1011B000F8010995809161004AE0BE01675E7F4FAA
:1011C00090E0C1D361E0F8010995E9A1FAA1099580
:1011D000EBA1FCA10995F4CD991B79E004C0991FFE
:1011E000961708F0961B881F7A95C9F78095089581
:1011F00097FB072E16F4009406D077FD08D00BD08D
:1012000007FC05D03EF4909581959F4F0895709509
:1012100061957F4F0895AA1BBB1B51E107C0AA1F10
:10122000BB1FA617B70710F0A61BB70B881F991F87
:101230005A95A9F780959095BC01CD010895505815
:10124000BB27AA270ED075C166D130F06BD120F034
:1012500031F49F3F11F41EF45BC10EF4E095E7FBFF
:1012600051C1E92F77D180F3BA176207730784075A
:10127000950718F071F49EF58FC10EF4E0950B2ED2
:10128000BA2FA02D0B01B90190010C01CA01A001D8
:101290001124FF27591B99F0593F50F4503E68F133
:1012A0001A16F040A22F232F342F4427585FF3CF74
:1012B000469537952795A795F0405395C9F77EF445
:1012C0001F16BA0B620B730B840BBAF09150A1F08E
:1012D000FF0FBB1F661F771F881FC2F70EC0BA0F14
:1012E000621F731F841F48F4879577956795B7959C
:1012F000F7959E3F08F0B3CF9395880F08F0992794
:10130000EE0F979587950895D9D008F481E0089558
:101310000CD00FC107D140F0FED030F021F45F3F78
:1013200019F0F0C0511139C1F3C014D198F39923C9
:10133000C9F35523B1F3951B550BBB27AA27621799
:101340007307840738F09F5F5F4F220F331F441FDE
:10135000AA1FA9F333D00E2E3AF0E0E830D0915016
:101360005040E695001CCAF729D0FE2F27D0660F03
:10137000771F881FBB1F261737074807AB07B0E842
:1013800009F0BB0B802DBF01FF2793585F4F2AF058
:101390009E3F510568F0B6C000C15F3FECF3983E38
:1013A000DCF3869577956795B795F7959F5FC9F7B5
:1013B000880F911D9695879597F90895E1E0660F3E
:1013C000771F881FBB1F621773078407BA0720F0B7
:1013D000621B730B840BBA0BEE1F88F7E095089520
:1013E00004D06894B111D9C00895BCD088F09F573B
:1013F00090F0B92F9927B751A0F0D1F0660F771F61
:10140000881F991F1AF0BA95C9F712C0B13081F040
:10141000C3D0B1E00895C0C0672F782F8827B85F88
:1014200039F0B93FCCF3869577956795B395D9F7A1
:101430003EF490958095709561957F4F8F4F9F4FAB
:101440000895E89409C097FB3EF4909580957095B7
:1014500061957F4F8F4F9F4F9923A9F0F92F96E900
:10146000BB279395F695879577956795B795F11175
:10147000F8CFFAF4BB0F11F460FF1BC06F5F7F4F12
:101480008F4F9F4F16C0882311F096E911C0772324
:1014900021F09EE8872F762F05C0662371F096E82D
:1014A000862F70E060E02AF09A95660F771F881FFC
:1014B000DAF7880F9695879597F90895990F0008A0
:1014C000550FAA0BE0E8FEEF16161706E807F90716
:1014D000C0F012161306E407F50798F0621B730BB1
:1014E000840B950B39F40A2661F0232B242B252B32
:1014F00021F408950A2609F4A140A6958FEF811DD5
:10150000811D089597F99F6780E870E060E0089575
:101510009FEF80EC089500240A941616170618060B
:101520000906089500240A941216130614060506E7
:101530000895092E0394000C11F4882352F0BB0F78
:1015400040F4BF2B11F460FF04C06F5F7F4F8F4FDB
:101550009F4F089557FD9058440F551F59F05F3F16
:1015600071F04795880F97FB991F61F09F3F79F0C5
:1015700087950895121613061406551FF2CF469547
:10158000F1DF08C0161617061806991FF1CF8695C9
:101590007105610508940895E894BB2766277727AD
:1015A000CB0197F908958ADF08F48FEF08950BD0E7
:1015B000C0CFB1DF28F0B6DF18F0952309F0A2CF35
:1015C000A7CF1124EACFC6DFA0F3959FD1F3950FE3
:1015D00050E0551F629FF001729FBB27F00DB11DB7
:1015E000639FAA27F00DB11DAA1F649F6627B00D47
:1015F000A11D661F829F2227B00DA11D621F739F30
:10160000B00DA11D621F839FA00D611D221F749F3D
:101610003327A00D611D231F849F600D211D822F84
:10162000762F6A2F11249F5750408AF0E1F08823CB
:101630004AF0EE0FFF1FBB1F661F771F881F9150D8
:101640005040A9F79E3F510570F05CCFA6CF5F3F99
:10165000ECF3983EDCF3869577956795B795F7950B
:10166000E7959F5FC1F7FE2B880F911D9695879593
:1016700097F90895FA01EE0FFF1F30962105310505
:1016800099F16115710561F48038BFE39B0749F159
:1016900068949038810561F08038BFEF9B0741F076
:1016A000992342F5FF3FE1053105210511F1E89449
:1016B0000894E795D901AA2329F4AB2FBE2FF85F30
:1016C000D0F310C0FF5F70F4A695E0F7F73950F043
:1016D00019F0FF3A38F49F779F930CD00F9007FCD6
:1016E000905808953EF014CF60E070E080E89FE3EA
:1016F00008954FE79F775F934F933F932F93A2D027
:101700002F913F914F915F9152DF09C0D7DE880B37
:10171000990B089519F40EF0F5CE3ECFF9CE22DFE5
:10172000C8F39638C0F707F80F92E8942BE33AEA2B
:1017300048EB5FE74ADF0F920F920F924DB75EB70B
:101740000F92C0D0E6E2F0E016D04F915F91EF919A
:10175000FF91E595EE1FFF1F49F0FE57E068442713
:10176000EE0F441FFA95E1F74195550B32D00F90DB
:1017700007FE26C00895DF93CF931F930F93FF9228
:10178000EF92DF927B018C01689405C0DA2EEF01A5
:101790001ADFFE01E894A591259135914591559167
:1017A000AEF3EF015EDDFE019701A801DA9479F74F
:1017B000DF90EF90FF900F911F91CF91DF910895EF
:1017C0009B01AC0160E070E080E89FE3A1CD9ACE80
:1017D000ACC0C8DEE8F39923D9F3940F511DBBF3D5
:1017E0009150504094F059F0882332F0660F771FE3
:1017F000881F91505040C1F79E3F510544F7880F14
:10180000911D9695879597F908955F3FACF0983EA6
:101810009CF0BB27869577956795B79508F4B160DE
:101820009395C1F7BB0F58F711F460FFE8CF6F5FD6
:101830007F4F8F4F9F4FE3CFB0CE0EF076C068CE74
:10184000689460CE8FDEC8F39923D1F3C6F3DF939B
:10185000CF931F930F93FF92C92FDD2788232AF080
:101860002197660F771F881FDAF720E030E040E805
:101870005FEB9FE3883920F0803E30F021968F7730
:10188000DFDCEEE4F0E003C0DBDCEBE7F0E073DF8D
:101890008B01BE01EC01FB2E6F5771097595771F07
:1018A000880B990BD0DD28E132E741E35FE38BDE63
:1018B000AF2D9801AE01FF900F911F91CF91DF9155
:1018C000D0DC37CEFA01DC01AA0FBB1F9B01AC01B3
:1018D000BF5728F422273327442750781FC0B75119
:1018E00088F4AB2F0024469537952795011CA395C6
:1018F000D2F3002069F0220F331F441FB395DAF3AF
:101900000DD09DCC61307105A0E88A07B94630F44E
:101910009B01AC016627772788279078309621F0C5
:10192000208331834283538308959F3F31F0915048
:1019300020F4879577956795B795880F911D9695B3
:10194000879597F90895BB274A3031F4992322F4FB
:10195000BDE2909581959F4F01C0BB27FB015527A4
:10196000AA27880F991FAA1FA41710F0A41B8395FC
:101970005051B9F7A05DAA3308F0A95DA193009773
:1019800079F7B111B1931192CB0100C0DC01FC01D8
:10199000672F71917723E1F7329704C07C916D93A3
:1019A00070836291AE17BF07C8F30895E199FECF27
:1019B0009FBB8EBBE09A99278DB30895A6E1B0E056
:1019C00044E050E024C0A8E1B0E042E050E01FC095
:1019D000262FE199FECF9FBB8EBBE09A01970DB2F7
:1019E000021631F02DBB0FB6F894E29AE19A0FBEC1
:1019F00008950396272FEDDFEBDF252FEADF242F55
:101A0000E8CF0196272FE5DFE3CFDC01CB01FC0116
:101A1000E199FECF06C0FFBBEEBBE09A31960DB256
:0E1A20000D9241505040B8F70895F894FFCF52
:101A2E00440169884F3BB4168F38440588049804E6
:101A3E009E04BC0430053F057C05D3052D2D2E2DAF
:101A4E00004C2F313030004C2F4800494E5354413A
:101A5E004E54204655454C0020434F4E53554D5045
:101A6E0054494F4E00415645524147452046554533
:101A7E004C002D2D004B4D2F480043555252454ED4
:101A8E005420535045454400415645524147452048
:101A9E0053504545440055534544204655454C004A
:101AAE004B4D0054524156454C4544004449535405
:101ABE00414E4345004D4F4445204E4F5420534513
:0A1ACE0054004D4F44453A2000003B
:00000001FF
