:100000000C94E8000C945F0A0C94C80A0C94150B2D
:100010000C9405010C94770B0C9405010C940501CC
:100020000C9405010C9405010C9405010C94050138
:100030000C9405010C9425070C9405010C94050102
:100040000C94DD060C9405010C9405010C9405013B
:100050000C9405010C9405010C9405010C94050108
:100060000C9405010C94050107634236B79BD8A791
:100070001A39685618AEBAAB558C1D3CB7CC5763CD
:10008000BD6DEDFD753EF6177231BF000000803F7B
:1000900008000000BE922449123EABAAAA2ABECD97
:1000A000CCCC4C3E00000080BEABAAAAAA3E000009
:1000B0000000BF000000803F000000000008417801
:1000C000D3BB4387D1133D190E3CC3BD4282AD2B38
:1000D0003E68EC8276BED98FE1A93E4C80EFFFBE30
:1000E00001C4FF7F3F00000000000000000000FF8F
:1000F000C1D5C1FE0C020000005C222A221D3EC1B7
:10010000C9C93E0808080808492A1C080000050358
:100110000000001C2241000041221C0000000205DA
:100120000208083E080800503000000808080808C7
:10013000006060000020100804023E5149453E0066
:10014000427F400042615149462141454B311814DC
:10015000127F1027454545393C4A4949300171090C
:1001600005033649494936064949291E0000000061
:10017000000000000000000000000000000000007F
:100180000000000000000000000000000000007EF1
:100190001111117E7F494949363E414141227F413B
:1001A00041221C7F494949417F090909013E4149D2
:1001B000497A7F0808087F00417F41002040413F85
:1001C000017F081422417F404040407F020C027FA3
:1001D00011241FBECFEFD8E0DEBFCDBF11E0A0E0FD
:1001E000B1E0E4ECF5E202C005900D92A636B1074D
:1001F000D9F723E0A6E6B1E001C01D92AB3AB20701
:10020000E1F70E9454020C94E0120C940000CF938A
:10021000DF9300D000D0CDB7DEB7F89480E190E056
:100220000E94AC126093AC017093AD018093AE015B
:100230009093AF018CE190E00E94AC126093A80112
:100240007093A9018093AA019093AB0184E090E0A0
:100250000E94AC12462F572FBC0149835A836B83EF
:100260007C839A01AC01B9010E94FD10882321F022
:1002700019821A821B821C8289819A81AB81BC817E
:100280008093A0019093A101A093A201B093A30138
:1002900080E090E00E94AC12462F572FBC014983AA
:1002A0005A836B837C839A01AC01B9010E94FD10D3
:1002B000882321F019821A821B821C8289819A81EB
:1002C000AB81BC818093940190939501A09396019A
:1002D000B093970188E090E00E94AC12462F572F10
:1002E000BC0149835A836B837C839A01AC01B901B9
:1002F0000E94FD10882321F019821A821B821C8221
:1003000089819A81AB81BC81809390019093910106
:10031000A0939201B093930180E290E00E94A41216
:10032000809380018CE090E00E94AC12462F572F02
:10033000BC0149835A836B837C839A01AC01B90168
:100340000E94FD10882321F019821A821B821C82D0
:1003500089819A81AB81BC818093A4019093A5018E
:10036000A093A601B093A70184E190E00E94AC1293
:10037000462F572FBC0149835A836B837C839A0194
:10038000AC01B9010E94FD10882321F019821A8264
:100390001B821C8289819A81AB81BC8180939C01E4
:1003A00090939D01A0939E01B0939F0188E190E0FE
:1003B0000E94AC12462F572FBC0149835A836B838E
:1003C0007C839A01AC01B9010E94FD10882321F0C1
:1003D00019821A821B821C8289819A81AB81BC811D
:1003E0008093880190938901A0938A01B0938B0137
:1003F00078940F900F900F900F90DF91CF91089508
:10040000F8944091A0015091A1016091A2017091D6
:10041000A30184E090E00E94C412409194015091A5
:100420009501609196017091970180E090E00E94A3
:10043000C41240919001509191016091920170918C
:10044000930188E090E00E94C4126091800180E2F4
:1004500090E00E94B2124091A4015091A5016091D8
:10046000A6017091A7018CE090E00E94C412409117
:100470009C0150919D0160919E0170919F0184E1CA
:1004800090E00E94C41240918801509189016091CE
:100490008A0170918B0188E190E00E94C4128CE384
:1004A0008093040178940895CDB7DEB7A4970FB672
:1004B000F894DEBF0FBECDBF3D9880917A0086686C
:1004C00080937A0080917C00806C80937C00809186
:1004D0007C00856080937C008AB1837F8AB98BB170
:1004E0008C608BB9809169008260809369008091F3
:1004F00069008460809369008DB383608DBB8AB18D
:100500008F738AB98BB1806C8BB92098289A8091AF
:1005100068008560809368008BB385608BBB809199
:100520006B00816080936B0080916D008068809388
:100530006D00109280008091810083608093810023
:1005400080916F00816080936F008EEE95E89093AC
:1005500085008093840085B5836085BD81E08093AC
:100560006E0016BC0E940701E0910901F0910A019A
:10057000099578949E012F5F3F4F6901A0900F016C
:10058000B0901001B88EAF8A4090110150901201C6
:10059000BE8AAD8A5A8E498E7201850140910D0145
:1005A00050910E015C8F4B8F5CA34BA38091130184
:1005B0009091140198A38F8FA0910B01B0910C0121
:1005C000BAA3A9A320918C0130918D0140918E0195
:1005D00050918F01298B3A8B4B8B5C8B20E030E064
:1005E000A90169897A898B899C890E94DC0E181679
:1005F0008CF180917A00806480937A0080917A00F7
:1006000086FDFCCF80917800909179009C0150E0AC
:1006100040E0298B3A8B4B8B5C8BCA01B9010E945D
:10062000890F20E030E040E751E4698B7A8B8B8BB7
:100630009C8B69897A898B899C890E94E10E462F5F
:10064000572FBC0140938C0150938D0160938E0114
:1006500070938F01809183018111BBC2809102014F
:10066000823009F4BEC1833009F4C3C0813009F07F
:100670009CC2209190013091910140919201509142
:100680009301298B3A8B4B8B5C8B22E030E0A601E7
:1006900069897A898B899C890E946E0D61E081E06D
:1006A000F701099561E08BE491E0F801099520914B
:1006B0009001309191014091920150919301298BC9
:1006C0003A8B4B8B5C8B20E030E0A90169897A89F9
:1006D0008B899C890E94DC0E460118160CF4F8C127
:1006E00061E083E391E0F801099561E081E4F701BD
:1006F000099561E080E591E0F801099569E081E004
:10070000F701099561E084E291E0F80109952091F3
:10071000A0013091A1014091A2015091A301298B28
:100720003A8B4B8B5C8B21E030E0A40169897A899C
:100730008B899C890E946E0D61E181E0F70109952A
:100740002091A0013091A1014091A2015091A301FB
:10075000298B3A8B4B8B5C8B20E030E0A9016989B7
:100760007A898B899C890E94DC0E18160CF4E8C1EA
:1007700062E080E391E0F801099566E186E4F70123
:10078000099561E081E291E0F801099520918C01E1
:1007900030918D0140918E0150918F01298B3A8BC0
:1007A0004B8B5C8B30E020E0A40169897A898B89CE
:1007B0009C890E946E0D60E281E0F701099561E07D
:1007C00084E291E0F801099568E285E0F701099576
:1007D00061E083E591E0F801099561E0C401F80169
:1007E000099568E286E4F701099561E081E591E009
:1007F000D8C061E081E0F701099561E085E191E011
:10080000F8010995809176019091770161E0853634
:10081000910508F4C9C080E2EB8DFC8D09958091AB
:100820007601909177014AE0BE01675F7F4F0E9499
:100830003E1261E0F801099561E081E4F701099554
:1008400061E080E291E0F801099569E081E0F7015B
:10085000099561E084E291E0F80109952091980101
:100860003091990140919A0150919B01298B3A8BCB
:100870004B8B5C8B21E030E0A60169897A898B89FA
:100880009C890E946E0D61E181E0F701099520913C
:1008900098013091990140919A0150919B01298BC7
:1008A0003A8B4B8B5C8B20E030E046EC52E469895C
:1008B0007A898B899C890E943B1046011816B4F0F6
:1008C0008091980190919901A0919A01B0919B011A
:1008D000898B9A8BAB8BBC8B20E030E0A901BC01EB
:1008E000CD010E94DC0E18160CF473C062E083E3A5
:1008F00091E0F801099566E186E3F7010995809199
:10090000810161E0863008F467C088E391E0F80176
:10091000099560E281E0F701099561E084E291E0E8
:10092000F801099568E285E0F701099561E082E444
:1009300091E0F80109952091940130919501409141
:10094000960150919701298B3A8B4B8B5C8B21E060
:1009500030E0A40169897A898B899C890E946E0D97
:100960008091940190919501A0919601B091970189
:10097000898B9A8BAB8BBC8B20E030E0A901BC014A
:10098000CD010E94DC0E61E018164CF183E391E08A
:10099000F801099568E286E3F701099561E088E3CB
:1009A00091E0F8010995BEC18AE191E0F80109954D
:1009B00080917601909177014AE0BE01675F7F4F99
:1009C0000E943E1261E0F801099561E08DE191E03D
:1009D00031CF62E0C6018DCF8EE391E098CFC401A4
:1009E000D7CF80918101282F30E050E040E0298B63
:1009F0003A8B4B8B5C8BCA01B9010E94890F22E0B4
:100A000030E0A601698B7A8B8B8B9C8B69897A8904
:100A10008B899C890E946E0D67E086E0F70109953D
:100A200080918101811131C062E080E391E0F801A1
:100A300009956BE088E3F701099561E086E491E0B0
:100A4000F801099560E281E0F701099561E084E22F
:100A500091E0F801099568E285E0F701099561E008
:100A600082E491E0F801099580918001811125C00F
:100A700061E080E391E0F801099568E288E3F7011D
:100A8000099561E086E491E08CCF8091810181112C
:100A900009C080918101882329F062E08CE391E014
:100AA000F8010995809181014AE0BE01675F7F4F9F
:100AB00090E00E943E1262E0BACF809180014AE04D
:100AC000BE01675F7F4F90E00E943E1261E0D3CF8E
:100AD00020919001309191014091920150919301A8
:100AE000298B3A8B4B8B5C8B20E030E040E85FE356
:100AF00069897A898B899C890E94DC0E87FF1DC0D9
:100B00008091900190919101A0919201B0919301F7
:100B1000898B9A8BAB8BBC8B20E030E0A901BC01A8
:100B2000CD010E943B10181644F461E08CE391E083
:100B3000F801099561E0C601D6CD61E0C401D3CDCD
:100B40002091A0013091A1014091A2015091A301F7
:100B5000298B3A8B4B8B5C8B20E030E0A9016989B3
:100B60007A898B899C890E943B101816DCF480914D
:100B7000A0019091A101A091A201B091A301898B44
:100B80009A8BAB8BBC8B20E030E040E85FE3BC018C
:100B9000CD010E94DC0E87FF05C062E080E3EBA17F
:100BA000FCA1099562E0C401E6CD61E081E0F701B6
:100BB000099561E089E591E0F801099580910201CC
:100BC0004AE0BE01675F7F4F90E00E943E1261E005
:100BD000E8CE80910201823009F4ABC0833009F481
:100BE000C1C0813009F09EC0F8942091820130E0AC
:100BF000AFEFBFEF0E944C0E698B7A8B8B8B9C8B77
:100C00000E948B0F3B014C0180917E0190917F01EE
:100C10009C0150E040E0298B3A8B4B8B5C8BCA01E6
:100C2000B9010E94890F9301A401698B7A8B8B8B88
:100C30009C8B69897A898B899C890E94700E9B01A3
:100C4000AC0160E070E080E291E40E94E10E1B01E3
:100C50008D8F9E8F8091050190910601A0910701D3
:100C6000B0910801898B9A8BAB8BBC8B20E030E074
:100C70004AE754E4BC01CD010E94E10E20E030E0DF
:100C800040E752E4698B7A8B8B8B9C8B69897A89DC
:100C90008B899C890E94E10E3B014C01A1016D8D65
:100CA0007E8D80E190E00E94C412A301B4018CE12A
:100CB00090E00E94C41261E081E691E0ED89FE8936
:100CC000099569E080E0E98DFA8D099528E030E02A
:100CD000A601298A3A8AFD8DFB8B8E8D8C8B6989C2
:100CE0007A898B899C890E946E0D61E0C601ED892D
:100CF000FE89099562E180E0E98DFA8D099528E089
:100D000030E0A601698A7A8A8B8A9C8A69897A8905
:100D10008B899C890E946E0D61E0C601ED89FE8978
:100D200009957894EF8DF8A10995E9A1FAA10995A3
:100D300049CC209105013091060140910701509165
:100D40000801298B3A8B4B8B5C8B21E030E0A601AC
:100D500069897A898B899C890E946E0D61E0C60140
:100D6000F50120CE789480917E0190917F019C01C5
:100D700050E040E0298B3A8B4B8B5C8B2AE0AE0134
:100D8000475F5F4F69897A898B899C890E944912E4
:100D900061E0EF89F88D099569E080E0F20109953D
:100DA000809182014AE0BE01675F7F4F90E00E9420
:100DB0003E1261E0EF89F88DF5CD1F921FB61F92AC
:100DC00011242F933F938F939F93AF93BF93809161
:100DD0006E0190916F01A0917001B09171013091FD
:100DE000B00126E0230F2D3750F50296A11DB11D4D
:100DF0002093B00180936E0190936F01A0937001D6
:100E0000B09371018091720190917301A09174016E
:100E1000B09175010196A11DB11D8093720190934F
:100E20007301A0937401B0937501BF91AF919F912D
:100E30008F913F912F911F901FBE1F90189529E809
:100E4000230F0396A11DB11DD3CF1F920F920FB692
:100E50000F921124BF92CF92DF92EF92FF920F93E5
:100E60001F932F933F934F935F936F937F938F9332
:100E70009F93AF93BF93EF93FF93CF93DF93CDB740
:100E8000DEB72D97DEBFCDBF8091000190910101AB
:100E90000197909301018093000180917C019091D2
:100EA0007D018032934040F480917E0190917F01DA
:100EB000892B11F40E94000280910401811106C067
:100EC00080918101811102C00E9400024E99E6C208
:100ED00080910301815080930301809183018111EE
:100EE0002EC0809103018D3050F58091030188233D
:100EF00031F180910201823009F4CDC2833099F042
:100F00008130E9F4109290011092910110929201B7
:100F1000109293011092A0011092A1011092A201CF
:100F20001092A30108C010929401109295011092A2
:100F30009601109297010E9400020E940701809181
:100F40000301811107C080918301811103C081E0F9
:100F5000809383018091000190910101892B09F018
:100F600074C280917E0190917F019C0150E040E02D
:100F700029833A834B835C83CA01B9010E94890F9C
:100F80002091AC013091AD014091AE015091AF0183
:100F900069837A838B839C8369817A818B819C812D
:100FA0000E94401020E030E041E655E469837A83F6
:100FB0008B839C8369817A818B819C810E94401004
:100FC00069837A838B839C8369817A818B819C81FD
:100FD0000E945A0F60938101809184019091850154
:100FE000A0918601B091870189839A83AB83BC83EA
:100FF0002091A8013091A9014091AA015091AB0123
:101000002D833E834F835887BC01CD010E94401041
:1010100020E030EC48EA56E469837A838B839C8332
:1010200069817A818B819C810E944010462F572FC5
:10103000BC0149875A876B877C8720918401309156
:10104000850140918601509187016D817E818F815C
:1010500098850E94401020E030E040EC50E4698325
:101060007A838B839C8369817A818B819C810E94A6
:1010700040108B018D879D8380917C0190917D0133
:101080009C0150E040E029833A834B835C83CA0192
:10109000B9010E94890F20E030E04AE754E46983F7
:1010A0007A838B839C8369817A818B819C810E9466
:1010B000E10E462F572FBC014093840150938501C8
:1010C000609386017093870180918101863008F4D6
:1010D000E9C1B090810120E030E048EC52E469853C
:1010E0007A858B859C850E9440106B017C018B2D3D
:1010F00090E0B0E0A0E089839A83AB83BC83BC011D
:10110000CD010E948B0F9B01AC01C982DA82EB8278
:10111000FC8269817A818B819C810E94E10E462F3D
:10112000572FBC01409398015093990160939A0105
:1011300070939B01209198013091990140919A01FF
:1011400050919B0129833A834B835C8320E030E0FC
:10115000A90169817A818B819C810E943B101816BC
:101160000CF068C08091980190919901A0919A012A
:10117000B0919B0189839A83AB83BC8320E030E0EC
:1011800048EC52E4BC01CD010E94DC0E87FF52C046
:10119000209198013091990140919A0150919B01C1
:1011A000C0908801D0908901E0908A01F0908B0175
:1011B00060E070E080E89FE30E94E10EA7019601E5
:1011C00069837A838B839C8369817A818B819C81FB
:1011D0000E94700E462F572FBC01409388015093F8
:1011E000890160938A0170938B012091A401309151
:1011F000A5014091A6015091A70129833A834B8311
:101200005C83209188013091890140918A0150913D
:101210008B0169817A818B819C810E94E10E462F2E
:10122000572FBC0140939401509395016093960110
:10123000709397012091900130919101409192011A
:101240005091930109831A839D859B83AD81AC8363
:1012500069817A818B819C810E94700E462F572F65
:10126000BC0140939001509391016093920170935F
:10127000930120918C0130918D0140918E0150910C
:101280008F0129833A834B835C8398014D855D816F
:1012900069817A818B819C810E946F0E462F572F26
:1012A000BC0140938C0150938D0160938E0170932B
:1012B0008F0180918101863008F4B0C080918C014B
:1012C00090918D01A0918E01B0918F0189839A83B5
:1012D000AB83BC832091940130919501409196019C
:1012E00050919701BC01CD010E94E10E20E030E059
:1012F00048EC52E469837A838B839C8369817A8189
:101300008B819C810E94401069837A838B839C83AC
:1013100069817A818B819C810E945A0F462F572FB9
:1013200050937701409376012091A4013091A5015B
:101330004091A6015091A70129833A834B835C8396
:1013400020E030E040E85FE369817A818B819C8115
:101350000E94700E462F572FBC014093A40150935A
:10136000A5016093A6017093A70180918101C090AF
:101370009C01D0909D01E0909E01F0909F01282F4C
:1013800030E050E040E029833A834B835C83CA011C
:10139000B9010E948B0F9B01AC0160E070E080E816
:1013A0009FE30E94E10EA701960169837A838B83F4
:1013B0009C8369817A818B819C810E94700E462F6B
:1013C000572FBC0140939C0150939D0160939E0157
:1013D00070939F018091A4019091A501A091A60115
:1013E000B091A70189839A83AB83BC8320919C0130
:1013F00030919D0140919E0150919F01BC01CD0112
:101400000E94E10E69837A838B839C8369817A8150
:101410008B819C810E945A0F60938001809104010E
:1014200081508093040180918301811104C0109246
:101430007F0110927E0110927D0110927C0184E068
:1014400090E090930101809300018EEE95E89093D7
:101450008500809384002D960FB6F894DEBF0FBEF2
:10146000CDBFDF91CF91FF91EF91BF91AF919F9150
:101470008F917F916F915F914F913F912F911F912C
:101480000F91FF90EF90DF90CF90BF900F900FBE25
:101490000F901F901895109280014DCD88E1809398
:1014A000030158CD89859A85AB85BC8580939801C9
:1014B00090939901A0939A01B0939B01BBCE1F9288
:1014C0000F920FB60F9211242F933F934F935F9378
:1014D0006F937F938F939F93AF93BF93EF93FF93FC
:1014E000CF93DF9300D000D0CDB7DEB780917E01DF
:1014F00090917F01019690937F0180937E0180916E
:101500008301882359F080917E0190917F0101969B
:1015100029F4809182018F5F809382018091A001E4
:101520009091A101A091A201B091A30189839A8316
:10153000AB83BC832091AC013091AD014091AE01F1
:101540005091AF01BC01CD010E94700E462F572F64
:10155000BC014093A0015093A1016093A20170933C
:10156000A3010F900F900F900F90DF91CF91FF91FB
:10157000EF91BF91AF919F918F917F916F915F910B
:101580004F913F912F910F900FBE0F901F90189584
:101590002F932FB72F933F934F935F938F939F93E7
:1015A000AF93BF934B991BC02FB7F89480916E01F6
:1015B00090916F01A0917001B09171012FBF78944B
:1015C0009093790180937801BF91AF919F918F9112
:1015D0005F914F913F912F912FBF2F9118952FB76A
:1015E000F89480916E0190916F01A0917001B0917B
:1015F00071012FBF789490937B0180937A01809141
:101600007A0190917B01209178013091790140918C
:101610007C0150917D01840F951F821B930B909349
:101620007D0180937C015B9ACFCF1F920F920FB602
:101630000F9211242F933F934F935F936F937F9358
:101640008F939F93AF93BF93EF93FF93CF93DF93CA
:1016500000D000D0CDB7DEB7189925C080918301A6
:101660008130C1F54E9936C08091050190910601F7
:10167000A0910701B091080189839A83AB83BC8351
:1016800020E030E040E05FE3BC01CD010E946F0E3E
:10169000462F572FBC0140930501509306016093DC
:1016A0000701709308010F900F900F900F90DF913A
:1016B000CF91FF91EF91BF91AF919F918F917F91CA
:1016C0006F915F914F913F912F910F900FBE0F90AF
:1016D0001F901895809102018F5F80930201809185
:1016E0000201843000F381E080930201DCCF1F927D
:1016F0000F920FB60F9211242F933F934F935F9346
:101700006F937F938F939F93AF93BF93EF93FF93C9
:10171000CF93DF9300D000D0CDB7DEB74F9925C06F
:10172000809183018130C1F54E9936C080910501C9
:1017300090910601A0910701B091080189839A83D5
:10174000AB83BC8320E030E040E05FE3BC01CD012F
:101750000E94700E462F572FBC01409305015093F5
:10176000060160930701709308010F900F900F908E
:101770000F90DF91CF91FF91EF91BF91AF919F912A
:101780008F917F916F915F914F913F912F910F902A
:101790000FBE0F901F901895809102018150809389
:1017A0000201809102018111E0CF83E08093020168
:1017B000DCCF2C986623A9F02B9A27E030E090E04C
:1017C000AC01022E02C0559547950A94E2F740FFFE
:1017D0000AC02A9A299A29982150310988F72C9A07
:1017E00008952B98EACF2A98F5CF60E00C94D90B96
:1017F00080E80E94F50B80E40E94F50B1092A9038B
:101800001092AA03E1EBF1E088EF91E0DF019C0187
:101810001D9221503040E1F708958093A903609311
:10182000AA030895CF93DF93249A259A239A229AA4
:10183000219A2D9A2C9A8FE19EE40197F1F700C02E
:1018400000002D989FE725EB81E0915020408040DB
:10185000E1F700C000002D9A2C9881E20E94F50B60
:1018600083E10E94F50B86E00E94F50B82EC0E945A
:10187000F50B80E20E94F50B89E00E94F50B80E8F1
:101880000E94F50B80E40E94F50BC8EFD1E061E007
:1018900080E00E94D90B2197D1F788E00E94F50BD8
:1018A0008CE0DF91CF910C94F50BCF93DF9380E820
:1018B0000E94F50B80E40E94F50BC1EBD1E061E0E2
:1018C00089910E94D90B83E0C93AD807C1F7DF910B
:1018D000CF910895811103C084E20C94F50B80E24E
:1018E000FCCF962F969596959695E82FF0E084E597
:1018F000989FE00DF11D1124EF54FE4F2081677079
:1019000081E090E001C0880F6A95EAF7442319F05E
:10191000822B8083089580958223FBCFBF92CF9244
:10192000DF92EF92FF920F931F93CF93DF93C62F17
:1019300025E0629F8001112497E0699F70011124C6
:101940008052990B289F6001299FD00C1124D0E070
:10195000D017110609F04FC08091A9038F5F9C2F0B
:10196000990F990F9C0F890F8093A903843558F024
:101970008091AA031092A9038F5F97E0C99F800D01
:1019800011248093AA038091AA03803320F010923F
:10199000A9031092AA03DF91CF911F910F91FF909D
:1019A000EF90DF90CF90BF9008958D2F6C2F0E9405
:1019B0002C0EF601E80FF11DE651FF4FE4913B0DAF
:1019C0002D0FF0E08B2D0E942C0E02C0F595E795AF
:1019D0008A95E2F741E0E0FF40E0632F822F0E940A
:1019E000710CB3943091AA032091A903BE141F0473
:1019F000E1F6DF5FADCFB12CF5CF1F93CF93DF932F
:101A0000162FEC018991811104C0DF91CF911F91B4
:101A10000895612F0E948E0CF5CFCF93DF939B0129
:101A2000FC01DC01A60FB71F90E080E021503109D6
:101A3000821793071CF0DF91CF91089541915E9139
:101A4000EF01219758834C930196F0CFAF92BF924C
:101A5000CF92DF92EF92FF920F931F93CF93DF937A
:101A60007B015A01FB01D0E0C0E02AE030E00097A2
:101A700069F585010C1B1D0B6801AC16BD0614F43D
:101A8000D12CC12CA60160E370E0C7018C0F9D1F13
:101A90000E943712AC16BD0614F410E000E00C0FE3
:101AA0001D1FCC0DDD1DCE0DDF1DB801C7010E942D
:101AB0000D0D1882C801DF91CF911F910F91FF90FA
:101AC000EF90DF90CF90BF90AF9008952196B9012D
:101AD0000E94380E805D8193CB01C9CF2F923F9237
:101AE0004F925F926F927F928F929F92AF92BF922E
:101AF000CF92DF92EF92FF920F931F93CF93DF93DA
:101B000000D000D000D0CDB7DEB71B012C015A01A8
:101B1000890169833A828B835C8269817A818B81B6
:101B20009C810E94530F6B0150E040E0B501C6015B
:101B30000E94260D8D839E830115110509F473C043
:101B4000ED81FE81EA0DFB1D8EE28083C801012E2E
:101B5000000CAA0BBB0B89839A83AB83BC83BC01AB
:101B6000CD010E948B0F9B01AC0160E070E080E230
:101B700091E40E94AD103B014C01C601DD0CAA0BA3
:101B8000BB0B89839A83AB83BC83BC01CD010E94CC
:101B90008B0F9B01AC0129823A824B825C82698166
:101BA0007A818B819C810E946F0EAD81BE811196DE
:101BB000AA0DBB1DBE83AD839B01AC0169827A82F5
:101BC0008B829C8269817A818B819C810E944010EA
:101BD00069837A838B839C8369817A818B819C81E1
:101BE0000E94530F362F272FA8016D817E81832FEE
:101BF000922F26960FB6F894DEBF0FBECDBFDF91B1
:101C0000CF911F910F91FF90EF90DF90CF90BF90F9
:101C1000AF909F908F907F906F905F904F903F908C
:101C20002F900C94260D26960FB6F894DEBF0FBEAB
:101C3000CDBFDF91CF911F910F91FF90EF90DF907B
:101C4000CF90BF90AF909F908F907F906F905F905C
:101C50004F903F902F900895991B79E004C0991FF1
:101C6000961708F0961B881F7A95C9F780950895F6
:101C700097FB072E16F4009407D077FD09D00E9439
:101C80005B0E07FC05D03EF4909581959F4F08951B
:101C9000709561957F4F0895A29FB001B39FC001D9
:101CA000A39F700D811D1124911DB29F700D811D88
:101CB0001124911D0895AA1BBB1B51E107C0AA1F47
:101CC000BB1FA617B70710F0A61BB70B881F991FDD
:101CD0005A95A9F780959095BC01CD01089550586B
:101CE000BB27AA270E94870E0C9401100E94F30FB5
:101CF00038F00E94FA0F20F039F49F3F19F426F4CF
:101D00000C94F00F0EF4E095E7FB0C94EA0FE92F2A
:101D10000E94121058F3BA176207730784079507D9
:101D200020F079F4A6F50C9434100EF4E0950B2E07
:101D3000BA2FA02D0B01B90190010C01CA01A0011D
:101D40001124FF27591B99F0593F50F4503E68F178
:101D50001A16F040A22F232F342F4427585FF3CFB9
:101D6000469537952795A795F0405395C9F77EF48A
:101D70001F16BA0B620B730B840BBAF09150A1F0D3
:101D8000FF0FBB1F661F771F881FC2F70EC0BA0F59
:101D9000621F731F841F48F4879577956795B795E1
:101DA000F7959E3F08F0B0CF9395880F08F09927DC
:101DB000EE0F9795879508950E94C60F08F481E06D
:101DC00008950E94F50E0C9401100E94FA0F58F02D
:101DD0000E94F30F40F029F45F3F29F00C94EA0FC2
:101DE00051110C9435100C94F00F0E94121068F3EE
:101DF0009923B1F3552391F3951B550BBB27AA27C4
:101E000062177307840738F09F5F5F4F220F331FFD
:101E1000441FAA1FA9F335D00E2E3AF0E0E832D0C5
:101E200091505040E695001CCAF72BD0FE2F29D0C8
:101E3000660F771F881FBB1F261737074807AB079A
:101E4000B0E809F0BB0B802DBF01FF2793585F4F0F
:101E50003AF09E3F510578F00C94EA0F0C9435103F
:101E60005F3FE4F3983ED4F3869577956795B795F1
:101E7000F7959F5FC9F7880F911D9695879597F9FC
:101E80000895E1E0660F771F881FBB1F6217730775
:101E90008407BA0720F0621B730B840BBA0BEE1F8A
:101EA00088F7E09508950E945A0F6894B1110C9438
:101EB000351008950E941A1088F09F5798F0B92F96
:101EC0009927B751B0F0E1F0660F771F881F991F6F
:101ED0001AF0BA95C9F714C0B13091F00E943410CD
:101EE000B1E008950C943410672F782F8827B85FDD
:101EF00039F0B93FCCF3869577956795B395D9F7C7
:101F00003EF490958095709561957F4F8F4F9F4FD0
:101F10000895E89409C097FB3EF4909580957095DC
:101F200061957F4F8F4F9F4F9923A9F0F92F96E925
:101F3000BB279395F695879577956795B795F1119A
:101F4000F8CFFAF4BB0F11F460FF1BC06F5F7F4F37
:101F50008F4F9F4F16C0882311F096E911C0772349
:101F600021F09EE8872F762F05C0662371F096E852
:101F7000862F70E060E02AF09A95660F771F881F21
:101F8000DAF7880F9695879597F90895990F0008C5
:101F9000550FAA0BE0E8FEEF16161706E807F9073B
:101FA000C0F012161306E407F50798F0621B730BD6
:101FB000840B950B39F40A2661F0232B242B252B57
:101FC00021F408950A2609F4A140A6958FEF811DFA
:101FD000811D089597F99F6780E870E060E008959B
:101FE0009FEF80EC089500240A9416161706180631
:101FF0000906089500240A9412161306140605060D
:102000000895092E0394000C11F4882352F0BB0F9D
:1020100040F4BF2B11F460FF04C06F5F7F4F8F4F00
:102020009F4F089557FD9058440F551F59F05F3F3B
:1020300071F04795880F97FB991F61F09F3F79F0EA
:1020400087950895121613061406551FF2CF46956C
:10205000F1DF08C0161617061806991FF1CF8695EE
:102060007105610508940895E894BB2766277727D2
:10207000CB0197F908950E94C60F08F48FEF0895D9
:102080000E9453100C9401100E94F30F38F00E942C
:10209000FA0F20F0952311F00C94EA0F0C94F00F36
:1020A00011240C9435100E94121070F3959FC1F307
:1020B000950F50E0551F629FF001729FBB27F00DF6
:1020C000B11D639FAA27F00DB11DAA1F649F66274B
:1020D000B00DA11D661F829F2227B00DA11D621F9A
:1020E000739FB00DA11D621F839FA00D611D221F54
:1020F000749F3327A00D611D231F849F600D211D38
:10210000822F762F6A2F11249F5750409AF0F1F0BA
:1021100088234AF0EE0FFF1FBB1F661F771F881F23
:1021200091505040A9F79E3F510580F00C94EA0F62
:102130000C9435105F3FE4F3983ED4F38695779581
:102140006795B795F795E7959F5FC1F7FE2B880FC9
:10215000911D9695879597F90895FA01EE0FFF1F47
:10216000309621053105A1F16115710561F48038C2
:10217000BFE39B0749F168949038810561F080388E
:10218000BFEF9B0741F099234AF5FF3FE105310579
:10219000210519F1E8940894E795D901AA2329F4B7
:1021A000AB2FBE2FF85FD0F310C0FF5F70F4A69581
:1021B000E0F7F73950F019F0FF3A38F49F779F9322
:1021C0000DD00F9007FC9058089546F00C94F00F36
:1021D00060E070E080E89FE308954FE79F775F93AA
:1021E0004F933F932F930E94AD112F913F914F91A9
:1021F0005F910E9440100C940A110E94C60F880B38
:10220000990B089529F416F00C94EA0F0C943410ED
:102210000C94F00F0E941A10A8F39638A0F707F854
:102220000F92E8942BE33AEA48EB5FE70E945610DE
:102230000F920F920F924DB75EB70F920E94F51159
:10224000E8E6F0E00E943C114F915F91EF91FF9121
:10225000E595EE1FFF1F49F0FE57E0684427EE0F9B
:10226000441FFA95E1F74195550B0E946F110F90AD
:1022700007FE0C9463110895DF93CF931F930F9380
:10228000FF92EF92DF927B018C01689406C0DA2EF8
:10229000EF010E945310FE01E894A591259135911C
:1022A00045915591A6F3EF010E94870EFE0197011B
:1022B000A801DA9469F7DF90EF90FF900F911F91DA
:1022C000CF91DF9108959B01AC0160E070E080E860
:1022D0009FE30C94E10E0C94EA0F0C9429120E94D7
:1022E0001A10D8F39923C9F3940F511DA3F39150F9
:1022F000504094F059F0882332F0660F771F881F02
:1023000091505040C1F79E3F51052CF7880F911D09
:102310009695879597F908955F3FACF0983E9CF0AD
:10232000BB27869577956795B79508F4B160939527
:10233000C1F7BB0F58F711F460FFE8CF6F5F7F4F15
:102340008F4F9F4FE3CF0C94351016F00C94291249
:102350000C94F00F68940C94EA0F0E941A10A8F3E2
:102360009923C1F3AEF3DF93CF931F930F93FF92A3
:10237000C92FDD2788232AF02197660F771F881F32
:10238000DAF720E030E040E85FEB9FE3883920F0A7
:10239000803E38F021968F770E94700EE0E9F0E0E1
:1023A00004C00E94700EEDEBF0E00E943C118B0126
:1023B000BE01EC01FB2E6F5771097595771F880BD5
:1023C000990B0E948B0F28E132E741E35FE30E9403
:1023D0005310AF2D9801AE01FF900F911F91CF9137
:1023E000DF910E94870E0C940110FA01DC01AA0F04
:1023F000BB1F9B01AC01BF5728F42227332744277A
:10240000507820C0B75190F4AB2F002446953795F3
:102410002795011CA395D2F3002071F0220F331FE2
:10242000441FB395DAF30ED00C946F0E6130710532
:10243000A0E88A07B94630F49B01AC0166277727EC
:1024400088279078309621F020833183428353830C
:1024500008959F3F31F0915020F4879577956795C7
:10246000B795880F911D9695879597F90895DC018A
:1024700001C06D9341505040E0F70895BB274A30AA
:1024800031F4992322F4BDE2909581959F4F0C94ED
:102490007B12BB272A3051F4992342F4BDE2909578
:1024A0008095709561957F4F8F4F9F4F0C94591277
:1024B000BB27FA01A62F6217710581059105330B21
:1024C00030FB66F0AA27660F771F881F991FAA1F87
:1024D000A21710F0A21B63953850A9F7A05DAA338C
:1024E00008F0A95DA19336F7B111B1931082CA012A
:1024F0000C949412BB27FB015527AA27880F991F1C
:10250000AA1FA41710F0A41B83955051B9F7A05D22
:10251000AA3308F0A95DA193009779F7B111B1939F
:102520001192CB010C949412DC01FC01672F719184
:102530007723E1F7329704C07C916D9370836291A9
:10254000AE17BF07C8F30895F999FECF92BD81BDBC
:10255000F89A992780B50895A6E1B0E044E050E0EC
:102560000C94D212262FF999FECF92BD81BDF89A14
:10257000019700B4021639F01FBA20BD0FB6F894C7
:10258000FA9AF99A0FBE08950396272F0E94B31264
:102590000E94B212252F0E94B312242F0C94B31262
:1025A000DC01CB01FC01F999FECF06C0F2BDE1BD13
:1025B000F89A319600B40D9241505040B8F7089502
:0425C000F894FFCFBD
:1025C400040003183C0000C842120CF80B8E0CFDEA
:1025D4000C0D0C550C24252620002D2800292D0037
:1025E400204B4D002D2D2D2D2D2D2D2D2D2D2D2D13
:1025F4002D2D002D2D2E2D004C2F313030004C2F41
:102604004800232020004B4D2F4800262420200082
:10261400204C002122202020004C2F2F4D202D2043
:06262400004C2F2F4B00BB
:00000001FF
